:020000040000FA
:100000000C94DA000C9402010C9402010C9402018D
:100010000C9402010C9402010C9402010C94020154
:100020000C9402010C9402010C9402010C94020144
:100030000C9402010C9402010C9402010C94020134
:100040000C94BA090C9402010C9488090C9462096E
:100050000C9402010C9402010C9402010C94020114
:100060000C9402010C940201626C6E6B696E660066
:1000700076657200302E362E3100682D626561740F
:1000800000313000627566662D696E0032353600CB
:100090006465760041726475696E6F20556E6F00FD
:1000A0006370750041546D65676133323850006389
:1000B0006F6E0053747265616D006275696C6400E7
:1000C00041707220203320323032312031383A32C0
:1000D000333A303300000000000000240027002ADB
:1000E0000000000000250028002B00000000002375
:1000F000002600290004040404040404040202028B
:100100000202020303030303030102040810204058
:1001100080010204081020010204081020000000E1
:1001200008000201000003040700000000000000B6
:100130000005010501050105010501050105010590
:10014000010501050105010501050105010501057F
:10015000010501050105010501050105010501056F
:10016000010501050105010501050105010501055F
:100170000104010401040104010401040104010457
:100180000104010401040104010401040104010447
:100190000104010401040104010401040104010437
:1001A0000104010401040104010401040104010427
:1001B0000100040A11241FBECFEFD8E0DEBFCDBF7F
:1001C00011E0A0E0B1E0E8EEF9E102C005900D9287
:1001D000AE34B107D9F722E0AEE4B1E001C01D9220
:1001E000A431B207E1F710E0CAEDD0E004C02197D6
:1001F000FE010E94CB0CC93DD107C9F70E94540AE9
:100200000C94F20C0C94000008950895AF92BF92E4
:10021000CF92DF92EF92FF920F931F93CF93DF93D2
:100220006C017B018B01040F151FEB015E01AE1801
:10023000BF08C017D10759F06991D601ED91FC9123
:100240000190F081E02DC6010995892B79F7C50150
:10025000DF91CF911F910F91FF90EF90DF90CF90A2
:10026000BF90AF900895FC01538D448D252F30E051
:10027000842F90E0821B930B541710F0CF960895B3
:1002800001970895FC01918D828D981761F0A28DE0
:10029000AE0FBF2FB11D5D968C91928D9F5F9F73A6
:1002A000928F90E008958FEF9FEF0895FC01918D5C
:1002B000828D981731F0828DE80FF11D858D90E0C9
:1002C00008958FEF9FEF0895FC01918D228D892F66
:1002D00090E0805C9F4F821B91098F73992708954E
:1002E00087E591E00E94640121E0892B09F420E078
:1002F000822F089580E090E0892B29F00E94700100
:1003000081110C9400000895FC01A48DA80FB92F51
:10031000B11DA35ABF4F2C91848D90E001968F732D
:100320009927848FA689B7892C93A089B1898C914C
:10033000837080648C93938D848D981306C002889B
:10034000F389E02D80818F7D80830895EF92FF9265
:100350000F931F93CF93DF93EC0181E0888F9B8DE8
:100360008C8D98131AC0E889F989808185FF15C0A2
:100370009FB7F894EE89FF896083E889F9898081C5
:100380008370806480839FBF81E090E0DF91CF9194
:100390001F910F91FF90EF900895F62E0B8D10E0B6
:1003A0000F5F1F4F0F731127E02E8C8D8E110CC025
:1003B0000FB607FCFACFE889F989808185FFF5CF70
:1003C000CE010E948401F1CFEB8DEC0FFD2FF11DCA
:1003D000E35AFF4FF0829FB7F8940B8FEA89FB89AD
:1003E00080818062CFCFCF93DF93EC01888D88230B
:1003F000B9F0AA89BB89E889F9898C9185FD03C088
:10040000808186FD0DC00FB607FCF7CF8C9185FF6C
:10041000F2CF808185FFEDCFCE010E948401E9CF2C
:10042000DF91CF910895833081F028F4813099F0E5
:100430008230A9F008958730A9F08830C9F084305F
:10044000B1F4809180008F7D03C0809180008F7710
:1004500080938000089584B58F7784BD089584B516
:100460008F7DFBCF8091B0008F778093B00008958F
:100470008091B0008F7DF9CF1F93CF93DF93282F0A
:1004800030E0F901E35EFE4F8491F901E75FFE4F32
:10049000D491F901EB50FF4FC491CC23A9F0162F52
:1004A00081110E941302EC2FF0E0EE0FFF1FEF51BD
:1004B000FF4FA591B4918FB7F894EC91111108C03A
:1004C000D095DE23DC938FBFDF91CF911F910895EC
:1004D000DE2BF8CFCF93DF9390E0FC01E75FFE4F78
:1004E00024918B509F4FFC0184918823C9F090E0A8
:1004F000880F991FFC01E952FF4FA591B491FC01AF
:10050000EF51FF4FC591D49161110DC09FB7F89481
:100510008C91209582238C938881282328839FBFE8
:10052000DF91CF910895623051F49FB7F8943C91D8
:10053000822F809583238C93E8812E2BEFCF8FB76A
:10054000F894EC912E2B2C938FBFEACF3FB7F89401
:100550008091530190915401A0915501B0915601A1
:1005600026B5A89B05C02F3F19F00196A11DB11D0E
:100570003FBFBA2FA92F982F8827BC01CD01620F4A
:10058000711D811D911D42E0660F771F881F991F05
:100590004A95D1F708950C94A6022FB7F89460916C
:1005A0004F017091500180915101909152012FBFE4
:1005B00008958F929F92AF92BF92CF92DF92EF9267
:1005C000FF920F931F93CF93DF936C017B018B01FD
:1005D000040F151F0E94CD024B015C01E701C017FB
:1005E000D107C8F40E94CD02681979098A099B09CC
:1005F000683B7B408105910570F4D6018D919C91FB
:10060000DC01ED91FC910284F385E02D099597FDC5
:10061000E6CF8993E4CFCE018E199F09DF91CF9168
:100620001F910F91FF90EF90DF90CF90BF90AF9010
:100630009F908F900895DC01ED91FC911197309778
:1006400061F012962D913C911397E217F30728F46D
:1006500001900020E9F7ED93FC930895FC0180815F
:100660009181009739F0228133818217930710F42A
:100670000C94670C90E080E008950F931F93CF9344
:10068000DF93EC01FB0101900020E9F78F01061BCD
:10069000170B8A819B81A801480F591F2C813D812E
:1006A0002417350768F028813981A801820F931F2C
:1006B0000E94D10C4A815B81400F511F5B834A83AA
:1006C000DF91CF911F910F9108950F931F93CF93B7
:1006D000DF93CDB7DEB762970FB6F894DEBF0FBEDB
:1006E000CDBF8C01CB014AE0BE016F5F7F4F0E94FE
:1006F0008E0CBE016F5F7F4FC8010E943D03629662
:100700000FB6F894DEBF0FBECDBFDF91CF911F9122
:100710000F9108953F924F925F926F927F928F92C6
:100720009F92AF92BF92CF92DF92EF92FF920F9380
:100730001F93CF93DF93CDB7DEB7A3970FB6F8948F
:10074000DEBF0FBECDBF6C012DB73EB73BA32AA3C2
:100750000E94CB02D60157968D919C915897B12C4F
:10076000029709F483C356968C9156978F5F5696DD
:100770008C93569754962D913C915597232B19F0B5
:10078000BB24B3946CC38330D8F7ED91FC91828184
:10079000882309F449C3FE0131964F0150E1452EEB
:1007A000512CD601ED91FC9180819181DC01ED917C
:1007B000FC910084F185E02D0995181619060CF0BE
:1007C00033C345E050E0BE01695E7F4FF601808192
:1007D00091810E94D902009721F3059709F047C043
:1007E000888D998D982789279827998F888F0A8DCA
:1007F0001B8D1027012710271B8F0A8F892BB9F11A
:100800008F8981113FC00E94CD02D60116966D934B
:100810007D938D939C93199757962D913C91589762
:100820004A8D5B8D232B49F5288D398D213031057B
:1008300021F549305105A9F0483C510519F04430E3
:100840005105A9F4F60166877787808B918B21E0AB
:1008500030E0308F278BC6010E9429090E94CB020D
:10086000A0CF83E090E058969C938E935797D60143
:10087000ED91FC911282B12CF2C24530510509F084
:1008800090CFF5CFF601808191810130F1E01F0713
:1008900040F0D60158961C921E925797FC01128286
:1008A00080CFADB6BEB698012F5F3F4F4DB75EB754
:1008B000421B530B0FB6F8945EBF0FBE4DBFADB7D2
:1008C000BEB711967D01A801BD010E94D902801713
:1008D000910709F066C0EA8DFB8DEE0DFF1D1082B9
:1008E0000E94CD02F60166837783808791878F8986
:1008F000813109F489C230F58630B9F08F3009F4BE
:1009000081C0823029F5D60157968D919C915897D8
:10091000892B59F4E1E0F0E05896FC93EE93579759
:10092000C6010E9429090E94CB02488D598DF12CE5
:10093000E12C08EC10E030E020E060E0C6010E940D
:10094000280813C08D31F9F260F4843109F45AC0DB
:10095000D60158961C921E925797ED91FC911282E7
:1009600004C0893241F0873399F70FB6F894BEBEC0
:100970000FBEADBE16CF84819581892B39F480E2FC
:1009800090E00E94420BF601958384838A8D9B8DB3
:100990008E0D9F1DFA82E9829C838B83E816F906EF
:1009A00030F00FB6F894BEBE0FBEADBE60CF40E2D1
:1009B00050E0B701D60114968D919C910E94E30CF2
:1009C000C4010E941B03D601ED91FC911197128284
:1009D00058961C921E9257970E94CD02DC01CB01C3
:1009E00088589341A109B109F60182879387A487AA
:1009F000B58786839783A087B18786879787A08BE3
:100A0000B18BB3CF888D998DD60155969C938E93DB
:100A10005497EA8DFB8DF9A3E8A33F016E0C7F1C70
:100A2000FD8EEC8E7F8E6E8EE614F70408F081C189
:100A3000D7010D911C91CE014C960E941B03FC0125
:100A4000808191818615970508F073C18C8D9D8DED
:100A5000DC012C91213409F063C001960E94670CDF
:100A60004EE0342E380E06970CF45FC00637B2E71E
:100A70001B0709F45EC108F0DAC20136F2E71F076E
:100A800009F4C0C2043622E7120709F05EC033241D
:100A90003A949A8A898A1C8A1B8A5E8A4D8A67E4FC
:100AA00071E0CE0141960E943D03032D10E0B80194
:100AB000CE0141960E946503F801E35EFE4F8491EA
:100AC000F801E75FFE4FF4900B501F4FF8010491BF
:100AD00060E070E0002389F081110E941302E02F92
:100AE000F0E0EE0FFF1FE551FF4FA591B491EC919F
:100AF000FE2261E070E009F460E0CE0141960E94C0
:100B000065030B891C890150110929893A89F12C47
:100B1000E12C50E040E064E1C6010E94280809C1D0
:100B2000CE014C960E942E03382E0637B2E71B07E3
:100B300009F422C1D0F40136F2E71F0709F4A8C076
:100B4000043622E7120709F4A4CF00371D4609F442
:100B500064C0D60154964D915C91F12CE12C02E0D9
:100B600010E030E020E060E0D7CF043647E714071C
:100B700009F473C0063757E7150709F416C10136A3
:100B8000174739F7CE014C960E941B03DC018D916B
:100B90009C918615970508F0CCC061E0832D0E94DA
:100BA0006A02CE014C960E942E038C0161E0832DD7
:100BB0000E946A020115110509F465C00F3F110575
:100BC00009F092C061E060C0CE014C960E942E03F5
:100BD000F82ECE014C960E941B030C8D1D8D69E3EF
:100BE00071E0C8010E94DA0C60E0892B79F06CE3B7
:100BF00071E0C8010E94DA0C892B39F060E471E0E1
:100C0000C8010E94DA0C892BE9F461E08F2D0E9463
:100C10006A02CE014C960E941B038C8D9D8D861519
:100C2000970508F086C0DC012C91213469F6019605
:100C30000E94670C3EE0F32EF80E069754F2FF2454
:100C4000FA94C7CF64E471E0C8010E94DA0C892BE2
:100C500001F762E0DBCF33243A94CE014C960E9438
:100C60001B03DC018D919C918615970508F061C0EE
:100C700061E0832D0E946A02CE014C960E942E03F1
:100C800061E0892B09F460E0832D0E943C0251C091
:100C90009A8A898A1C8A1B8A5E8A4D8A6AE471E074
:100CA000CE0141960E943D03632D70E0CE01419636
:100CB0000E946503BDE0B31510F4E2EF3E0E832DF4
:100CC0008770806480937C0080917A008064809338
:100CD0007A0080917A0086FDFCCF80917800609147
:100CE0007900762F682F09CFE32DF0E0E35EFE4F09
:100CF000E491E33039F148F4E130B9F0E230E9F061
:100D0000003811050CF05ECFBECFE73029F1E83096
:100D100059F1E430A9F780918000806280938000CF
:100D200010938B0000938A0004C084B5806884BD52
:100D300007BDF601158A148A18CE84B5806284BD79
:100D400008BDF7CF80918000806880938000109369
:100D5000890000938800EDCF8091B0008068809377
:100D6000B0000093B300E5CF8091B0008062809323
:100D7000B0000093B400DDCF3982BFE1B315C8F2F3
:100D8000E32DF0E0EE0FFF1FEF5CFE4F2591349155
:100D90002115310571F2E1E025303E0751F2C40121
:100DA000F9010995C6CF33243A94CE014C960E949E
:100DB0001B032C8D3D8DC9018E199F0948A159A196
:100DC000481B590B3A8329835C834B835E834D8395
:100DD000398A5FE1531508F4ACCFE32DF0E0EE0F54
:100DE000FF1FEF58FE4F259134912115310509F46D
:100DF000A0CF81E02430380709F49BCFB401CE01A5
:100E00004196F901099595CF8A8D9B8D8E0D9F1D79
:100E1000FA82E9829C838B83E816F90608F0A5CD57
:100E2000C4010E941B03A1CD0E94CD022B013C01F5
:100E3000F60100811181D8011296BC901297878922
:100E4000908D8130910509F088C0B1102FC0468681
:100E50005786608A718A108E178A12961C92D60164
:100E600056968C915697815056968C938B2DAAA1AD
:100E7000BBA10FB6F894BEBF0FBEADBFA3960FB611
:100E8000F894DEBF0FBECDBFDF91CF911F910F91C0
:100E9000FF90EF90DF90CF90BF90AF909F908F909A
:100EA0007F906F905F904F903F90089586819781DB
:100EB000A085B185A3019201281B390B4A0B5B0B5E
:100EC000DA01C90189333AE49307A105B10530F08D
:100ED000108E178AD80112961C92CDCC8131974280
:100EE000A105B10598F4F60182859385A485B585A1
:100EF000A3019201281B390B4A0B5B0BDA01C901D4
:100F000081319742A105B10508F43ACCF6018685F6
:100F10009785A089B189A3019201281B390B4A0B3F
:100F20005B0BDA01C901893B9B40A105B10508F4BF
:100F300027CCF12CE12C10E000E030E020E050E084
:100F400040E066E0C6010E942808D6011E964D9238
:100F50005D926D927C92519782CF892B09F010CCD3
:100F600086859785A089B189481A590A6A0A7B0A39
:100F7000BB2079F0F9EB4F16FBE05F0661047104CA
:100F800008F4FECBD80112961C92F601108E178A37
:100F900072CCF9E84F16F3E15F066104710408F4BE
:100FA000EFCBD8018D919C91DC01ED91FC910680F5
:100FB000F781E02D099581E0F801828381E090E0DE
:100FC000D60153969C938E93529712962D913C91F5
:100FD000F90101900020E9F731978F01021B130BF3
:100FE000F12CE12C41E050E06DE1C6010E9428089F
:100FF000F60182859385A485B58586879787A08B22
:10100000B18BBECB9A8A898A1C8A1B8A5E8A4D8ADA
:101010006AE471E0CE0141960E943D036FEF70E0FB
:10102000CE0141960E94650333243A9446CE04369D
:1010300047E7140709F40FCE063757E7150709F4F9
:10104000B2CE0136174709F084CD33243A949ACDB5
:101050002F923F924F925F927F928F929F92AF9288
:10106000BF92CF92DF92EF92FF920F931F93CF9395
:10107000DF9300D000D01F92CDB7DEB77C01762E73
:101080006A015901DC01ED91FC918281882309F408
:10109000A9C0862F8D7F09F4D7C0B6E06B1709F47D
:1010A000D3C0EDE16E1709F4CFC0D70157968D91EB
:1010B0009C91019709F096C0452B81F4F701C488F3
:1010C000D588C114D10451F482899389019609F419
:1010D000A0C0938B828BF701C288D38884EF870DE1
:1010E0008930B0F5D7011A964D915D916D917C9143
:1010F0001D9716968D919D910D90BC91A02D8417F2
:101100009507A607B70710F4DB01CA011C012D01E2
:10111000E2E42E0E311C411C511C0E94CD02A201A2
:101120009101261B370B480B590BDA01C901B7FD9A
:1011300075C0C7010E948A030E94CD02A2019101DD
:10114000261B370B480B590BDA01C901B7FFF1CF4A
:101150004801B5E08B0E911CA114B10419F485E08F
:10116000882E912C7982DC24CD24DC24DB82CA8277
:10117000902F812F9D838C83D701ED91FC918081ED
:101180009181DC01ED91FC910280F381E02D45E03D
:1011900050E0BE016F5F7F4F09950E94CB02772020
:1011A00009F445C00115110509F441C0D701ED91BD
:1011B000FC9180819181DC01ED91FC910280F381B1
:1011C000E02DA801B50109950B5F1F4F0E94CB02CE
:1011D0008016910679F1F701108E178A0190F0813F
:1011E000E02D12820F900F900F900F900F90DF91D3
:1011F000CF911F910F91FF90EF90DF90CF90BF9014
:10120000AF909F908F907F905F904F903F902F90E6
:10121000089581E090E0938B828B5DCFD701569645
:101220008C91811195CFC7010E948A0391CF05E06F
:1012300010E0CECF0E94CD02D7011A966D937D9318
:101240008D939C931D97CECFC114D10409F080CF0C
:1012500035CFCF92DF92EF92FF920F931F93CF93F0
:10126000DF93CDB7DEB7C55AD1090FB6F894DEBF0C
:101270000FBECDBF6C0145E650E060E770E0CE01E7
:1012800001960E94850CCE018A599F4F7C0105E68C
:1012900010E09E012F5F3F4F50E040E061E1C6014A
:1012A0000E942808CB55DF4F0FB6F894DEBF0FBE63
:1012B000CDBFDF91CF911F910F91FF90EF90DF9005
:1012C000CF9008951F920F920FB60F9211242F9373
:1012D0003F934F935F936F937F938F939F93AF93BE
:1012E000BF93EF93FF9387E591E00E948401FF9104
:1012F000EF91BF91AF919F918F917F916F915F918E
:101300004F913F912F910F900FBE0F901F90189506
:101310001F920F920FB60F9211242F938F939F93CA
:10132000EF93FF93E0916701F09168018081E09174
:101330006D01F0916E0182FD1BC090818091700162
:101340008F5F8F7320917101821741F0E0917001DE
:10135000F0E0E95AFE4F958F80937001FF91EF9175
:101360009F918F912F910F900FBE0F901F90189506
:101370008081F4CF1F920F920FB60F9211242F93FA
:101380003F938F939F93AF93BF9380914F01909121
:101390005001A0915101B091520130914E0123E0D2
:1013A000230F2D3758F50196A11DB11D20934E0135
:1013B00080934F0190935001A0935101B09352013B
:1013C0008091530190915401A0915501B091560123
:1013D0000196A11DB11D8093530190935401A093D8
:1013E0005501B0935601BF91AF919F918F913F915D
:1013F0002F910F900FBE0F901F90189526E8230F86
:101400000296A11DB11DD2CFE7E5F1E01382128251
:1014100088EE93E0A0E0B0E084839583A683B78351
:101420008BE291E09183808385EC90E095878487BF
:1014300084EC90E09787868780EC90E0918B808B9E
:1014400081EC90E0938B828B82EC90E0958B848B87
:1014500086EC90E0978B868B118E128E138E148EF5
:10146000ADE0B2E011961C921E9212961C92129759
:10147000E4EFF1E0B183A08313821282158214821B
:101480001682178210861186128613861486158698
:1014900016861786108A118A138A128A158A148A68
:1014A000168A108E178A0895789484B5826084BD58
:1014B00084B5816084BD85B5826085BD85B5816058
:1014C00085BD80916E00816080936E0010928100D6
:1014D0008091810082608093810080918100816091
:1014E0008093810080918000816080938000809152
:1014F000B10084608093B1008091B00081608093DE
:10150000B00080917A00846080937A0080917A00A4
:10151000826080937A0080917A00816080937A0063
:1015200080917A00806880937A001092C100E091E7
:101530006701F091680182E08083E0916301F0919E
:1015400064011082E0916501F09166018FEC808367
:1015500010926F01E0916B01F0916C0186E0808345
:10156000E0916901F0916A01808180618083E0915E
:101570006901F0916A01808188608083E09169014E
:10158000F0916A01808180688083E0916901F09127
:101590006A0180818F7D808380E091E09093F701E4
:1015A0008093F6010E94CD02DC01CB018858934163
:1015B000A109B1098093FE019093FF01A09300025D
:1015C000B09301028093FA019093FB01A093FC0178
:1015D000B093FD018093020290930302A093040252
:1015E000B0930502E091F401F091F50187E591E0F7
:1015F00091838083E091F401F091F50112821092C1
:101600000C0210920B020E94CD026B017C018091B2
:101610000B0290910C02019781F00E94CD026C198F
:101620007D098E099F09683273428105910528F46E
:1016300084EF91E00E948A03EACF80910B0290919F
:101640000C020197B9F661E08AE00E946A0261E04B
:101650008BE00E946A0261E08CE00E946A0261E015
:101660008DE00E946A02C0E0D0E084EF91E00E9429
:101670008A032097D1F30E9470018823B1F30E945E
:101680000000F3CF0F931F93CF93DF938230910528
:1016900010F482E090E0E0911202F091130230E049
:1016A00020E0B0E0A0E0309799F42115310509F46D
:1016B0004AC0281B390B24303105D8F58A819B811B
:1016C0006115710589F1FB0193838283FE0111C0CD
:1016D000408151810281138148175907E0F0481772
:1016E000590799F4109761F012960C93129713967C
:1016F0001C933296CF01DF91CF911F910F910895E6
:101700000093120210931302F4CF2115310551F00A
:101710004217530738F0A901DB019A01BD01DF012F
:10172000F801C1CFEF01F9CF909313028093120219
:10173000CDCFFE01E20FF31F819391932250310927
:1017400039832883D7CF2091100230911102232BA7
:1017500041F4209123013091240130931102209310
:10176000100220912101309122012115310541F40F
:101770002DB73EB74091250150912601241B350B12
:10178000E0911002F0911102E217F307A0F42E1B72
:101790003F0B2817390778F0AC014E5F5F4F2417D5
:1017A000350748F04E0F5F1F50931102409310020F
:1017B000819391939FCFF0E0E0E09CCFCF93DF93B4
:1017C0000097E9F0FC01329713821282A091120275
:1017D000B0911302ED0130E020E01097A1F42081D8
:1017E0003181820F931F209110023091110228172E
:1017F000390709F061C0F0931102E0931002DF9104
:10180000CF910895EA01CE17DF07E8F54A815B81A1
:101810009E0141155105B1F7E901FB83EA83499126
:101820005991C40FD51FEC17FD0761F48081918198
:101830000296840F951FE9019983888382819381A1
:101840009B838A83F0E0E0E012968D919C91139740
:101850000097B9F52D913C911197CD010296820F19
:10186000931F20911002309111022817390739F681
:10187000309751F51092130210921202B093110298
:10188000A0931002BCCFD383C28340815181840FC7
:10189000951FC817D90761F44E5F5F4F8881998102
:1018A000480F591F518340838A819B819383828390
:1018B0002115310509F0B0CFF0931302E093120225
:1018C0009ECFFD01DC01C0CF13821282D7CFFC0175
:1018D00088279927E89421912032E9F3293010F0E4
:1018E0002E30C8F32B3241F02D3239F4689404C005
:1018F0000E94990C820F911D219120532A30C0F330
:101900001EF4909581959F4F0895FB01DC0102C064
:1019100005900D9241505040D8F70895BB274A30AA
:1019200031F4992322F4BDE2909581959F4F0C9458
:10193000A20C7AE0979F902D879F802D910D112406
:101940000895BB27FB015527AA27880F991FAA1FB7
:10195000A41710F0A41B83955051B9F7A05DAA33CA
:1019600008F0A95DA193009779F7B111B193119295
:10197000CB010C94BB0CDC01FC01672F7191772328
:10198000E1F7329704C07C916D9370836291AE173A
:10199000BF07C8F30895EE0FFF1F0590F491E02DE7
:1019A0000994FB01DC0102C001900D9241505040AE
:1019B000D8F70895FB01DC018D9101908019011089
:1019C000D9F3990B0895FB01DC014150504048F0D8
:1019D00001900D920020C9F701C01D924150504066
:1019E000E0F70895F894FFCF4B6D70704454626E29
:1019F00064515648586B44614768317568356F6962
:101A000042434E5163475A750000001402800000A3
:101A1000000000A60106013301F3016401420156F2
:101A200001696E006F75740070776D0070750064E9
:061A300077006177000061
:107E0000112484B714BE81FFF0D085E080938100F7
:107E100082E08093C00088E18093C10086E0809377
:107E2000C20080E18093C4008EE0C9D0259A86E02C
:107E300020E33CEF91E0309385002093840096BBD3
:107E4000B09BFECF1D9AA8958150A9F7CC24DD24C4
:107E500088248394B5E0AB2EA1E19A2EF3E0BF2EE7
:107E6000A2D0813461F49FD0082FAFD0023811F036
:107E7000013811F484E001C083E08DD089C08234E0
:107E800011F484E103C0853419F485E0A6D080C0E4
:107E9000853579F488D0E82EFF2485D0082F10E0AE
:107EA000102F00270E291F29000F111F8ED06801E7
:107EB0006FC0863521F484E090D080E0DECF843638
:107EC00009F040C070D06FD0082F6DD080E0C81688
:107ED00080E7D80618F4F601B7BEE895C0E0D1E017
:107EE00062D089930C17E1F7F0E0CF16F0E7DF06D8
:107EF00018F0F601B7BEE89568D007B600FCFDCFD4
:107F0000A601A0E0B1E02C9130E011968C91119780
:107F100090E0982F8827822B932B1296FA010C0160
:107F200087BEE89511244E5F5F4FF1E0A038BF0790
:107F300051F7F601A7BEE89507B600FCFDCF97BE46
:107F4000E89526C08437B1F42ED02DD0F82E2BD052
:107F50003CD0F601EF2C8F010F5F1F4F84911BD097
:107F6000EA94F801C1F70894C11CD11CFA94CF0C13
:107F7000D11C0EC0853739F428D08EE10CD085E9AC
:107F80000AD08FE07ACF813511F488E018D01DD067
:107F900080E101D065CF982F8091C00085FFFCCF94
:107FA0009093C60008958091C00087FFFCCF809118
:107FB000C00084FD01C0A8958091C6000895E0E648
:107FC000F0E098E1908380830895EDDF803219F02E
:107FD00088E0F5DFFFCF84E1DECF1F93182FE3DFCA
:107FE0001150E9F7F2DF1F91089580E0E8DFEE27F6
:047FF000FF270994CA
:027FFE00040479
:00000001FF
