:020000040000FA
:100000000C9463000C948B000C948B000C94700780
:100010000C9470070C9470070C948B000C948B005C
:100020000C948B000C948B000C948B000C948B0024
:100030000C948B000C948B000C948B000C948B0014
:100040000C9426070C948B000C94F4060C94CE06AA
:100050000C948B000C948B000C948B000C948B00F4
:100060000C948B000C948B000000000024002700EF
:100070002A0000000008000201000003040700003D
:1000800000000000000000000000230026002900FE
:1000900000000000250028002B00040404040404D0
:1000A0000404020202020202030303030303010227
:1000B00004081020408001020408102001020408F6
:1000C0001020E8076D0E11241FBECFEFD8E0DEBF71
:1000D000CDBF11E0A0E0B1E0E4EFF2E202C0059094
:1000E0000D92A639B107D9F723E0A6E9B1E001C026
:1000F0001D92AA32B207E1F710E0C2E6D0E004C0D8
:100100002197FE010E943111C136D107C9F70E9423
:100110003B090C946D110C9400000F931F93CF9327
:10012000DF93C091D602E7EDF2E0CD3211F0E6EDBB
:10013000F2E08F0120E030E0A901D801DD918D01CE
:1001400080ED8D0F8A3090F4AAE0B0E00E94371164
:100150002D2FDD0F330B440B550B260F371F481F78
:10016000591F2053310941095109E7CFA4E6B0E0F6
:100170000E943711AB01BC01DF01819190ED980F16
:100180009A30D0F38E3259F511968C91119790EDEB
:10019000980F9A3020F5082E000C990BC0972AE092
:1001A000289F8001299F100D1124012E000C220B85
:1001B000330B400F511F621F731F12968C9190EDED
:1001C000980F9A3060F4082E000C990BC097092EF6
:1001D000000CAA0BBB0B480F591F6A1F7B1FCD32A7
:1001E00039F470956095509541955F4F6F4F7F4FF3
:1001F000CB01BA01DF91CF911F910F9108954F92DA
:100200005F926F927F928F929F92AF92BF92CF92A6
:10021000DF92EF92FF921F93CF93DF93C6EDD2E070
:10022000FE01C12CD12C7601119180ED810F8A3015
:10023000A8F4AAE0B0E0A70196010E943711C12EF0
:10024000110FDD08EE08FF08C60ED71EE81EF91EC6
:1002500080E3C81AD108E108F108E6CFC701B6016A
:1002600024E630E040E050E00E940F119B01AC0119
:1002700060EA76E881E090E00E94EB104B015C01BF
:100280009E01899190ED980F9A30D0F38E3221F52E
:10029000E901219680E1482E87E2582E612C712CCD
:1002A000A99180ED8A0F8A30B8F40A2E000CBB0B9E
:1002B000D097A30192010E944211860E971EA81E9C
:1002C000B91EC301B2012AE030E040E050E00E94D4
:1002D0000F1129013A01E4CFC701B60124E630E04D
:1002E00040E050E00E940F1160E472E48FE090E083
:1002F0000E94EB106B017C01C501B4016D5F7F4F63
:100300008F4F9F4F26E030E040E050E00E940F11F9
:10031000C701B601620F731F841F951FDF91CF9134
:100320001F91FF90EF90DF90CF90BF90AF909F9084
:100330008F907F906F905F904F900895AF92BF9293
:10034000CF92DF92EF92FF920F931F93CF93DF93A1
:100350006C017B018B01040F151FEB015E01AE18D0
:10036000BF08C017D10759F06991D601ED91FC91F2
:100370000190F081E02DC6010995892B79F7C5011F
:10038000DF91CF911F910F91FF90EF90DF90CF9071
:10039000BF90AF900895FC01538D448D252F30E020
:1003A000842F90E0821B930B541710F0CF96089582
:1003B00001970895FC01918D828D981761F0A28DAF
:1003C000AE0FBF2FB11D5D968C91928D9F5F9F7375
:1003D000928F90E008958FEF9FEF0895FC01918D2B
:1003E000828D981731F0828DE80FF11D858D90E098
:1003F00008958FEF9FEF0895FC01918D228D892F35
:1004000090E0805C9F4F821B91098F73992708951C
:1004100083EE91E00E94FC0121E0892B09F420E0A9
:10042000822F089580E090E0892B29F00E94080235
:1004300081110C9400000895FC01A48DA80FB92F20
:10044000B11DA35ABF4F2C91848D90E001968F73FC
:100450009927848FA689B7892C93A089B1898C911B
:10046000837080648C93938D848D981306C002886A
:10047000F389E02D80818F7D80830895EF92FF9234
:100480000F931F93CF93DF93EC0181E0888F9B8DB7
:100490008C8D98131AC0E889F989808185FF15C071
:1004A0009FB7F894EE89FF896083E889F989808194
:1004B0008370806480839FBF81E090E0DF91CF9163
:1004C0001F910F91FF90EF900895F62E0B8D10E085
:1004D0000F5F1F4F0F731127E02E8C8D8E110CC0F4
:1004E0000FB607FCFACFE889F989808185FFF5CF3F
:1004F000CE010E941C02F1CFEB8DEC0FFD2FF11D00
:10050000E35AFF4FF0829FB7F8940B8FEA89FB897B
:1005100080818062CFCFCF93DF93EC01888D8823D9
:10052000B9F0AA89BB89E889F9898C9185FD03C056
:10053000808186FD0DC00FB607FCF7CF8C9185FF3B
:10054000F2CF808185FFEDCFCE010E941C02E9CF62
:10055000DF91CF91089590E0FC01EE58FF4F249178
:10056000FC01E255FF4F3491FC01E656FF4FE49148
:10057000EE23C9F0222339F0233001F1A8F4213011
:1005800019F1223029F1F0E0EE0FFF1FE057FF4F85
:10059000A591B4918FB7F894EC91611126C0309574
:1005A0003E233C938FBF08952730A9F02830C9F02F
:1005B000243049F7809180008F7D03C080918000B6
:1005C0008F7780938000DFCF84B58F7784BDDBCFBA
:1005D00084B58F7DFBCF8091B0008F778093B00082
:1005E000D2CF8091B0008F7DF9CF3E2BDACFCF9361
:1005F000DF9390E0FC01E255FF4F249186569F4F18
:10060000FC0184918823D1F090E0880F991FFC01B0
:10061000E859FF4FA591B491FC01E057FF4FC591F8
:10062000D49161110EC09FB7F8948C91E22FE095A0
:100630008E238C932881E223E8839FBFDF91CF91A3
:1006400008958FB7F894EC91E22BEC938FBFF6CF1F
:100650003FB7F8948091DB019091DC01A091DD011E
:10066000B091DE0126B5A89B05C02F3F19F0019679
:10067000A11DB11D3FBFBA2FA92F982F8827BC01FC
:10068000CD01620F711D811D911D42E0660F771F24
:10069000881F991F4A95D1F708958F929F92AF9224
:1006A000BF92CF92DF92EF92FF924B015C010E94CA
:1006B00028036B017C010E9428036C197D098E09B7
:1006C0009F09683E734081059105A8F321E0821AD5
:1006D0009108A108B10888EEC80E83E0D81EE11C7D
:1006E000F11C81149104A104B10429F7FF90EF904B
:1006F000DF90CF90BF90AF909F908F9008952FB7CD
:10070000F8946091D7017091D8018091D9019091AE
:10071000DA012FBF08952091E1013091E2012817FD
:10072000390771F49091DF018091E001981741F051
:10073000E091DF01F0E0EA56FE4F808190E00895FD
:100740008FEF9FEF08950895EF92FF920F931F93FD
:10075000CF93DF93DC015C96ED90FC905D97E11404
:10076000F10479F481E090E013969C938E931297B4
:1007700090E080E0DF91CF911F910F91FF90EF907B
:1007800008955196ED91FC91529750968C91509707
:10079000982F90950FB75E962C915E97122F12703E
:1007A00021FD6095F8942081112319F1282B2083D5
:1007B000E7012197F1F728E0462F50E0308160FFF4
:1007C0001AC0382B3083E7012197F1F7BA017595EC
:1007D0006795215089F7112381F0808189238083D7
:1007E0000FBF5C968D919C910197F1F781E090E0AD
:1007F000C1CF2923DCCF3923E5CF9081892BEFCFDF
:100800002091E1013091E2012817390771F48091BC
:10081000E0012091DF0190E0805C9F4F821B9109F5
:1008200060E470E00E94FB10089590E080E008957D
:100830002091E1013091E20128173907B9F4909134
:10084000DF018091E001981789F0E091DF01F0E08D
:10085000EA56FE4F80812091DF0130E02F5F3F4F4D
:100860002F7333272093DF0190E008958FEF9FEFE0
:100870000895089590E080E00895CF93DF93EC0110
:1008800060E08E810E94AB0261E08E810E94AB022B
:1008900060E08E810E94AB028BE891E00197F1F756
:1008A000DF91CF910895CF92DF92EF92FF920F9355
:1008B0001F93CF93DF936C017C0187E0E80EF11C5E
:1008C000D0E0C0E0062F10E0B8010C2E02C07595F4
:1008D00067950A94E2F76170F70181917F010E94A8
:1008E000AB022196C430D10579F7C601DF91CF91D3
:1008F0001F910F91FF90EF90DF90CF900C943D04EB
:10090000CF92DF92EF92FF920F931F93CF93DF93DB
:10091000EC01F62E642F8C810E94AB028D818F3FFB
:1009200019F060E00E94AB020F2D10E08F8584FF6C
:1009300025C06E0187E0C80ED11CF12CE12CB80156
:100940000E2C02C0759567950A94E2F76170F60166
:1009500081916F010E94AB02FFEFEF1AFF0A88E05E
:10096000E816F10461F7CE01DF91CF911F910F914D
:10097000FF90EF90DF90CF900C943D04B80184E09D
:10098000759567958A95E1F7CE010E9453046F2D06
:10099000CE01DF91CF911F910F91FF90EF90DF90EB
:1009A000CF900C94530440E0682F83EF92E00C94B6
:1009B0008004CF93DF93823029F4909102039860F2
:1009C00090930203809306031092070380E48093C0
:1009D000080380E18093090380E580930A0361E0C6
:1009E0008091F7020E94F7028091F8028F3F19F080
:1009F00061E00E94F70261E08091F9020E94F70233
:100A0000C3EFD2E09E01235F32408091020384FD58
:100A10000BC084E090E021962817390744F461E088
:100A20008E810E94F702EECF88E090E0F4CF8BE356
:100A30009DE00197F1F760E08091F7020E94AB0220
:100A400060E08091F9020E94AB028091F8028F3F32
:100A500019F060E00E94AB028091020384FD39C06E
:100A600063E083EF92E00E945304CBE4D6E4CE012E
:100A70000197F1F763E083EF92E00E94530421971E
:100A8000F1F763E083EF92E00E94530483E592E084
:100A90000197F1F762E083EF92E00E9453048091A6
:100AA000020380620E94D30484E0809303038CE0FD
:100AB0000E94D30481E00E94D3048BE39FE101975D
:100AC000F1F782E08093040386E0DF91CF910C94EC
:100AD000D30480620E94D3048BE496E40197F1F77B
:100AE0008091020380620E94D30483E592E0019723
:100AF000F1F78091020380620E94D304D0CF41E0DD
:100B00000E94800481E090E00895FB0101900020A4
:100B1000E9F73197AF01461B570BDC01ED91FC91D2
:100B20000280F381E02D09948F929F92AF92BF9241
:100B3000EF92FF920F931F93CF93DF93CDB7DEB762
:100B4000A1970FB6F894DEBF0FBECDBF7C01FA01AE
:100B5000CB0119A2223008F42AE08E010F5D1F4F4D
:100B6000822E912CB12CA12CBF01A50194010E94D1
:100B70000F11F901CA016A300CF5605DD8016E935E
:100B80008D01232B242B252B79F790E080E0109703
:100B900021F0BD01C7010E948505A1960FB6F8940A
:100BA000DEBF0FBECDBFDF91CF911F910F91FF90A0
:100BB000EF90BF90AF909F908F900895695CDECFCB
:100BC0002F923F924F925F926F927F928F929F925D
:100BD000AF92BF92CF92DF92EF92FF921F93CF938B
:100BE000DF93EC016A017B01722EAB019601CB0110
:100BF000B6010E94E61060E371E0811126C0460153
:100C00005701E894B7F82FEF3FEF4FE75FE7C501D3
:100C1000B4010E94E61081110CC02FEF3FEF4FE7A7
:100C20005FE7C501B4010E941C0F64E371E0181670
:100C300064F02FEF3FEF4FE75FE4C701B6010E947A
:100C400074101816B4F468E371E0CE01DF91CF910F
:100C50001F91FF90EF90DF90CF90BF90AF909F904B
:100C60008F907F906F905F904F903F902F900C945B
:100C700085052FEF3FEF4FE75FECC701B6010E94FC
:100C80001C0F87FDE0CF20E030E0A901C701B601CD
:100C90000E941C0F312C212C87FF0DC0E881F981A7
:100CA0000190F081E02D6DE2CE0109951C01F7FA6B
:100CB000F094F7F8F09410E060E070E080E09FE3DB
:100CC000711641F020E030E040E251E40E94210F33
:100CD0001F5FF6CFA70196010E94B00E2B013C01C9
:100CE0000E94930F4B015C012AE0BC01A401CE01DC
:100CF0000E9494057C01E20CF31C1123E1F1C50173
:100D0000B4010E94C20F9B01AC01C301B2010E9459
:100D1000AF0E4B015C01E881F9810190F081E02D7B
:100D20006EE2CE010995E80EF91E115020F120E087
:100D300030E040E251E4C501B4010E9479102B017A
:100D40003C010E94930F4B01B12CA12C2AE0B5016C
:100D5000A401CE010E949405E80EF91EC501B4015C
:100D60000E94C20F9B01AC01C301B2010E94AF0EF1
:100D70004B015C01DACFC701DF91CF911F91FF904A
:100D8000EF90DF90CF90BF90AF909F908F907F902B
:100D90006F905F904F903F902F9008951F920F9209
:100DA0000FB60F9211242F933F934F935F936F933E
:100DB0007F938F939F93AF93BF93EF93FF9383EEB4
:100DC00091E00E941C02FF91EF91BF91AF919F9122
:100DD0008F917F916F915F914F913F912F910F90E4
:100DE0000FBE0F901F9018951F920F920FB60F9283
:100DF00011242F938F939F93EF93FF93E091F3012F
:100E0000F091F4018081E091F901F091FA0182FD05
:100E10001BC090818091FC018F5F8F732091FD0139
:100E2000821741F0E091FC01F0E0ED51FE4F958F0B
:100E30008093FC01FF91EF919F918F912F910F90E3
:100E40000FBE0F901F9018958081F4CF1F920F92C4
:100E50000FB60F9211242F933F938F939F93AF93CD
:100E6000BF938091D7019091D801A091D901B09101
:100E7000DA013091D60123E0230F2D3758F5019682
:100E8000A11DB11D2093D6018093D7019093D80165
:100E9000A093D901B093DA018091DB019091DC013C
:100EA000A091DD01B091DE010196A11DB11D8093DD
:100EB000DB019093DC01A093DD01B093DE01BF91D3
:100EC000AF919F918F913F912F910F900FBE0F90F7
:100ED0001F90189526E8230F0296A11DB11DD2CFB1
:100EE0001F920F920FB60F9211242F933F934F939F
:100EF0005F936F937F938F939F93AF93BF93EF9382
:100F0000FF93E091E101F091E201309749F0A6856D
:100F1000B7858585968D91FF14C09C918923A1F496
:100F2000FF91EF91BF91AF919F918F917F916F91C1
:100F30005F914F913F912F910F900FBE0F901F9097
:100F400018959C91892361F7A389B4899C9185891F
:100F5000809589238C93868997890197F1F7608D15
:100F6000718DA685B785558538E020E0CB010197C6
:100F7000F1F7822F90E095958795282F4C91452386
:100F800009F02068315091F7868D81FD2095809180
:100F9000E00190E001968F7399273091DF013817B7
:100FA00099F0A091E001B0E0AA56BE4F2C93809337
:100FB000E001828D938D0197F1F7A389B4898C911B
:100FC0009589892B8C93ACCF868D8160868FF1CFEC
:100FD000CF931092E6011092E50188EE93E0A0E035
:100FE000B0E08093E7019093E801A093E901B0930A
:100FF000EA0124E031E03093E4012093E30125ECA1
:1010000030E03093F0012093EF0124EC30E0309396
:10101000F2012093F10120EC30E03093F4012093B1
:10102000F30121EC30E03093F6012093F50122EC3E
:1010300030E03093F8012093F70126EC30E0309354
:10104000FA012093F9011092FC011092FD01109217
:10105000FE011092FF0110920E0310920D03809377
:101060000F0390931003A0931103B093120382E235
:1010700091E090930C0380930B0310922203109243
:10108000210310922403109223031092260310923E
:1010900025031092280310922703609129036E7F85
:1010A0006D7F609329036695617081E0682788E011
:1010B0000E94AB0261E088E00E94F702E6EBF0E0FC
:1010C000E491E0931B03E2EAF0E0E491F0E0EE0F3C
:1010D000FF1FE057FF4F8591949190931D038093DC
:1010E0001C0360E087E00E94F7028091290381FDE4
:1010F00004C061E087E00E94AB0287E080931703A1
:10110000E5EBF0E0E491E0931803E1EAF0E0E4912C
:10111000F0E0EE0FFF1FEA57FF4F25913491309317
:101120001A03209319031092F6021092F50226E199
:1011300031E03093F4022093F3028093F7028FEFB3
:101140008093F80286E08093F90285E08093FA02AA
:1011500084E08093FB0283E08093FC02C2E0C093B2
:10116000FD021092FE021092FF02109200031092F4
:1011700001031092020381E00E94D9044FEF5FEF58
:10118000BA0140938002509381026093820270936F
:101190008302109288021092890210928A021092A1
:1011A0008B028FEF99ECAAE9BBE3809390029093B6
:1011B0009102A0939202B09393028093980290932D
:1011C0009902A0939A02B0939B028093A0029093FD
:1011D000A102A093A202B093A3028093A8029093CD
:1011E000A902A093AA02B093AB028093B00290939D
:1011F000B102A093B202B093B3024093B8025093ED
:10120000B9026093BA027093BB028FEF90E09093A3
:10121000C1028093C0024093C4025093C502609300
:10122000C6027093C7024093CC025093CD026093E4
:10123000CE027093CF021092D4021092D502C093C6
:10124000E5021092E6021092E7021092E802109274
:10125000E9021092EA021092EB021092EC02109254
:10126000EE021092ED021092F0021092EF02109234
:10127000D602CF910895789484B5826084BD84B5F8
:10128000816084BD85B5826085BD85B5816085BD81
:1012900080916E00816080936E0010928100809139
:1012A00081008260809381008091810081608093C1
:1012B0008100809180008160809380008091B100E6
:1012C00084608093B1008091B00081608093B00011
:1012D00080917A00846080937A0080917A008260A5
:1012E00080937A0080917A00816080937A00809167
:1012F0007A00806880937A001092C10082E00E9498
:10130000D904E091F301F091F40182E08083E0914F
:10131000EF01F091F0011082E091F101F091F20102
:101320008FEC80831092FB01E091F701F091F801BE
:1013300086E08083E091F501F091F6018081806183
:101340008083E091F501F091F601808188608083CF
:10135000E091F501F091F601808180688083E09151
:10136000F501F091F60180818F7D80831092260334
:10137000109225031092240310922303109222034B
:10138000109221038DE991E0909328038093270325
:1013900090911703963108F047C02DEB30E0309361
:1013A0002203209321032BE931E03093240320937F
:1013B00023032CE231E03093260320932503209170
:1013C000680084E0983048F031E09E3008F430E066
:1013D00081E001C0880F3A95EAF7822B809368007C
:1013E0002DE630E0983050F02BE630E09E3030F0C3
:1013F0002CE630E0963110F030E020E030931F030F
:1014000020931E03292F30E0983008F06EC181E050
:1014100001C0880F9A95EAF78093200380912703F3
:10142000909128030197F1F780912503909126036D
:10143000892B49F1E091E101F091E20123E0EB30E9
:10144000F20709F1309739F0A389B4899C91858915
:10145000809589238C93809129038E7F8093290323
:101460001092E0011092DF018BE093E09093E20193
:101470008093E101E0911E03F0911F038081909120
:101480002003892B808320E0A22E20E0B22E0E9430
:101490007F036B017C01D0E00E947F036C197D0902
:1014A0008E099F09683E73408105910508F406C2C4
:1014B000DD2309F40EC1C0909002D0909102E0901B
:1014C0009202F0909302409098025090990260909E
:1014D0009A0270909B028091CC029091CD02A091D3
:1014E000CE02B091CF028F3F9F4FAF4FBF4F11F051
:1014F0000E947F03FFEFCF16F9ECDF06FAE9EF0653
:10150000FBE3FF0609F4D5C3C701B6010E94C40F6F
:1015100020E034E244E759E40E94210F6B017C0192
:10152000C301B2010E94C40F20E034E244E759E451
:101530000E94210F8B01D82FC92F68E471E08BE046
:1015400093E00E94850560E971E080E090E00E94F0
:101550004D0363E571E08BE093E00E9485056FE643
:1015600071E08BE093E00E9485056CE271E080E021
:1015700090E00E944D0362E771E08BE093E00E94EF
:10158000850520E030E04AE754E4B601C7010E9437
:101590001C0F16012701811104C0212C312C412C74
:1015A000512C26E0A101B2018BE093E00E94E005FE
:1015B0006EE771E08BE093E00E94850520E030E06B
:1015C0004AE754E4B8018D2F9C2F0E941C0F38016C
:1015D0008D2E9C2E811104C0612C712C812C912C9C
:1015E00026E0A301B4018BE093E00E94E00568ECE3
:1015F00070E080E090E00E944D036AE18BE093E0B0
:101600000E94A4036FE671E08BE093E00E948505E1
:1016100068EC70E080E090E00E944D036FE671E0BE
:101620008BE093E00E94850562E771E083EE91E034
:101630000E94850526E0A101B20183EE91E00E949F
:10164000E0056EE771E083EE91E00E94850526E0FB
:10165000A301B40183EE91E00E94E005E1E08091F6
:1016600006038111E0E0E195F0E0ED50FD4F848943
:1016700080680E94D3046CE871E083EF92E00E94DE
:10168000850526E0A601B70183EF92E00E94E00500
:10169000E0910603E23008F017C3E150F0E0ED50AE
:1016A000FD4F848980680E94D30461E971E083EF73
:1016B00092E00E94850526E0A8016D2F7C2F83EF24
:1016C00092E00E94E00564E670E080E090E00E9415
:1016D0004D03A114B10409F4DACE0E940802882354
:1016E00009F4D5CE0E940000D2CE9E3040F428509E
:1016F000310981E001C0880F2A95EAF78DCE2E507E
:101700003109F7CFCA3209F405C1CC3209F0BDC2A4
:101710008091D4028C278093D402FCC09091E60281
:10172000F0E0EA52FD4F10821091D502112309F426
:101730006AC12091D602822F022E000C990B3FEB3A
:10174000320F363008F0EBC0C7978295807F9091BA
:10175000D702292F092E000C330B4FEB490F4630CF
:1017600008F0E5C027533109820F9091D402891304
:1017700040C11091E802112309F4CFC08091ED021D
:101780009091EE0201969093EE028093ED0280918B
:10179000C8029091C902A091CA02B091CB02809375
:1017A000C4029093C502A093C602B093C702809171
:1017B000D0029091D102A091D202B091D302809335
:1017C000CC029093CD02A093CE02B093CF02809131
:1017D000E502882309F4B4C0813009F060C080912B
:1017E000840290918502A0918602B0918702809335
:1017F000800290938102A0938202B0938302809131
:101800008C0290918D02A0918E02B0918F028093F4
:10181000880290938902A0938A02B0938B028091F0
:10182000940290919502A0919602B09197028093B4
:10183000900290939102A0939202B09393028091B0
:101840009C0290919D02A0919E02B0919F02809374
:10185000980290939902A0939A02B0939B02809170
:10186000AC029091AD02A091AE02B091AF02809314
:10187000A8029093A902A093AA02B093AB02809110
:10188000B4029091B502A091B602B091B7028093D4
:10189000B0029093B102A093B202B093B3028091D0
:1018A000E6028F5F8093E6021092E70281E0CA327F
:1018B00009F080E08093D5021111D12F83EE91E0E1
:1018C0000E94FC01892B09F4E7CD83EE91E00E9490
:1018D000DA01C82F8091E9029091EA02A091EB020F
:1018E000B091EC020196A11DB11D8093E902909385
:1018F000EA02A093EB02B093EC02C43209F4B7C140
:10190000E091E702C5320CF0FDCECA3019F0CD30BF
:1019100009F0BBC1EF3008F401CF10E0C0CF215671
:10192000263018F48755910910CFC0970ECF9156E5
:10193000963018F42755310917CF2053310914CFA9
:101940008091A4029091A502A091A602B091A70255
:101950008093A0029093A102A093A202B093A3024D
:101960008091840290918502A0918602B0918702B5
:101970008093800290938102A0938202B0938302AD
:101980008091940290919502A0919602B091970255
:101990008093900290939102A0939202B09393024D
:1019A00080919C0290919D02A0919E02B0919F0215
:1019B0008093980290939902A0939A02B0939B020D
:1019C0008091C2029091C3029093C1028093C002A1
:1019D0008091BC029091BD02A091BE02B091BF0265
:1019E0008093B8029093B902A093BA02B093BB025D
:1019F00056CF8091EF029091F00201969093F00201
:101A00008093EF028ACF91111DC0A6EDB2E04CE3A6
:101A100051E0CD01FC012191CF01222309F456C1EF
:101A2000FA013191AF012317A9F3E2E4F1E08D91BE
:101A3000882309F44FC191918917C9F382E08093FB
:101A4000E5022DCFE091E502E23009F466CF809106
:101A5000D602882309F461CF20E2E29FF00111242D
:101A6000E92B3197E932F10508F019CFE65CF24F26
:101A70000C943111800D9B0DB00DCB0DD60D100EB9
:101A8000170E210E2C0E4F0C4F0C4F0C4F0C4F0C01
:101A90004F0C4F0C4F0C4F0C4F0C4F0C4F0C4F0C6E
:101AA0004F0C4F0C4F0C4F0C4F0C4F0C4F0C4F0C5E
:101AB0004F0C4F0C800D950D9B0DB00DCB0DD60D21
:101AC000F10DFC0D630DE6EDF2E020E030E0A90140
:101AD000019180ED800F8A3008F099C0AAE0B0E053
:101AE0000E943711202F000F330B440B550B260F8C
:101AF000371F481F591F2053310941095109E8CFA9
:101B00000E948D0060938402709385028093860208
:101B1000909387020E947F036093C8027093C9026A
:101B20008093CA029093CB02BACE91E0813409F43B
:101B30007BC090E079C00E94FF0060939402709394
:101B4000950280939602909397020E947F03609380
:101B5000D0027093D1028093D2029093D3029FCE91
:101B6000833509F0DACE8091940290919502A0918C
:101B70009602B0919702B095A095909581959F4F50
:101B8000AF4FBF4F8093940290939502A09396021B
:101B9000B093970284CE0E94FF0060939C027093E2
:101BA0009D0280939E0290939F0279CE873509F023
:101BB000B4CE80919C0290919D02A0919E02B09122
:101BC0009F02B095A095909581959F4FAF4FBF4FC5
:101BD00080939C0290939D02A0939E02B0939F02DB
:101BE0005ECE0E948D006093AC027093AD02809334
:101BF000AE029093AF0253CE0E948D006093B40268
:101C00007093B5028093B6029093B70248CE2093AA
:101C10008C0230938D0240938E0250938F023FCE00
:101C200091E081330CF485CF9093E80238CE86EDB5
:101C300092E00E94890E99279093C3028093C2027A
:101C40002ECE0E948D006093BC027093BD028093E3
:101C5000BE029093BF0223CE0E948D006093A40227
:101C60007093A5028093A6029093A70218CE1092BB
:101C7000E7021092E6021092D40282E08093E5021D
:101C80001092D5021092E80219CEEE3040F481E0B5
:101C90008E0F8093E702F0E0EA52FD4FC0838091FF
:101CA000D50281110BCE8091D402C827C093D402F3
:101CB00005CEC12CD12C8AE7E82E94E4F92E00E061
:101CC00010E0DAE7C4E439CCE1E0E8CC21E020938D
:101CD000E502E5CD1092E502E2CD82E291E090933B
:101CE0000C0380930B038091E1019091E2018B50F2
:101CF000934071F4E0911E03F0911F039081809155
:101D000020038095892380831092E2011092E101E3
:101D10000895FC0188279927E89421912032E9F35E
:101D2000293010F02E30C8F32B3241F02D3239F427
:101D3000689404C00E94A70E820F911D2191205328
:101D40002A30C0F31EF4909581959F4F08957AE054
:101D5000979F902D879F802D910D112408955058A5
:101D6000BB27AA270E94C70E0C943A100E942C1081
:101D700038F00E94331020F039F49F3F19F426F414
:101D80000C9429100EF4E095E7FB0C942310E92F36
:101D90000E944B1058F3BA17620773078407950720
:101DA00020F079F4A6F50C946D100EF4E0950B2E4E
:101DB000BA2FA02D0B01B90190010C01CA01A0019D
:101DC0001124FF27591B99F0593F50F4503E68F1F8
:101DD0001A16F040A22F232F342F4427585FF3CF39
:101DE000469537952795A795F0405395C9F77EF40A
:101DF0001F16BA0B620B730B840BBAF09150A1F053
:101E0000FF0FBB1F661F771F881FC2F70EC0BA0FD8
:101E1000621F731F841F48F4879577956795B79560
:101E2000F7959E3F08F0B0CF9395880F08F099275B
:101E3000EE0F9795879508950E94FF0F08F481E0B3
:101E400008950E94350F0C943A100E94331058F0F8
:101E50000E942C1040F029F45F3F29F00C942310CD
:101E600051110C946E100C9429100E944B1068F3C1
:101E70009923B1F3552391F3951B550BBB27AA2743
:101E800062177307840738F09F5F5F4F220F331F7D
:101E9000441FAA1FA9F335D00E2E3AF0E0E832D045
:101EA00091505040E695001CCAF72BD0FE2F29D048
:101EB000660F771F881FBB1F261737074807AB071A
:101EC000B0E809F0BB0B802DBF01FF2793585F4F8F
:101ED0003AF09E3F510578F00C9423100C946E104C
:101EE0005F3FE4F3983ED4F3869577956795B79571
:101EF000F7959F5FC9F7880F911D9695879597F97C
:101F00000895E1E0660F771F881FBB1F62177307F4
:101F10008407BA0720F0621B730B840BBA0BEE1F09
:101F200088F7E09508950E94531088F09F5798F025
:101F3000B92F9927B751B0F0E1F0660F771F881FCE
:101F4000991F1AF0BA95C9F714C0B13091F00E94E8
:101F50006D10B1E008950C946D10672F782F8827CD
:101F6000B85F39F0B93FCCF3869577956795B3950F
:101F7000D9F73EF490958095709561957F4F8F4F7E
:101F80009F4F0895E89409C097FB3EF49095809583
:101F9000709561957F4F8F4F9F4F9923A9F0F92F2F
:101FA00096E9BB279395F695879577956795B795AD
:101FB000F111F8CFFAF4BB0F11F460FF1BC06F5F93
:101FC0007F4F8F4F9F4F16C0882311F096E911C0A5
:101FD000772321F09EE8872F762F05C0662371F0C6
:101FE00096E8862F70E060E02AF09A95660F771FDA
:101FF000881FDAF7880F9695879597F90895990FB6
:102000000008550FAA0BE0E8FEEF16161706E807C2
:10201000F907C0F012161306E407F50798F0621BE3
:10202000730B840B950B39F40A2661F0232B242BB8
:10203000252B21F408950A2609F4A140A6958FEFD7
:10204000811D811D089597F99F6780E870E060E029
:1020500008959FEF80EC089500240A941616170641
:1020600018060906089500240A9412161306140689
:1020700005060895092E0394000C11F4882352F0EC
:10208000BB0F40F4BF2B11F460FF04C06F5F7F4FA4
:102090008F4F9F4F089557FD9058440F551F59F08B
:1020A0005F3F71F04795880F97FB991F61F09F3F45
:1020B00079F087950895121613061406551FF2CF6E
:1020C0004695F1DF08C0161617061806991FF1CFBE
:1020D00086957105610508940895E894BB276627E5
:1020E0007727CB0197F908950E94FF0F08F48FEF2F
:1020F00008950E948C100C943A100E942C1038F015
:102100000E94331020F0952311F00C9423100C94AE
:10211000291011240C946E100E944B1070F3959F9F
:10212000C1F3950F50E0551F629FF001729FBB27CE
:10213000F00DB11D639FAA27F00DB11DAA1F649F6A
:102140006627B00DA11D661F829F2227B00DA11D1D
:10215000621F739FB00DA11D621F839FA00D611DA3
:10216000221F749F3327A00D611D231F849F600DC4
:10217000211D822F762F6A2F11249F5750409AF0ED
:10218000F1F088234AF0EE0FFF1FBB1F661F771F79
:10219000881F91505040A9F79E3F510580F00C9444
:1021A00023100C946E105F3FE4F3983ED4F38695B1
:1021B00077956795B795F795E7959F5FC1F7FE2BE4
:1021C000880F911D9695879597F908950E94FF0FA6
:1021D000880B990B0895DB018F939F930E94371111
:1021E000BF91AF91A29F800D911DA39F900DB29FB3
:1021F000900D1124089597FB072E16F4009407D034
:1022000077FD09D00E944A1107FC05D03EF4909555
:1022100081959F4F0895709561957F4F0895A1E234
:102220001A2EAA1BBB1BFD010DC0AA1FBB1FEE1F50
:10223000FF1FA217B307E407F50720F0A21BB30B9B
:10224000E40BF50B661F771F881F991F1A9469F717
:1022500060957095809590959B01AC01BD01CF0173
:102260000895EE0FFF1F0590F491E02D09940E9450
:102270005E11A59F900DB49F900DA49F800D911DA0
:1022800011240895B7FF0C9437110E943711821B57
:10229000930B0895AA1BBB1B51E107C0AA1FBB1FCC
:1022A000A617B70710F0A61BB70B881F991F5A95E2
:1022B000A9F780959095BC01CD010895A29FB0012A
:1022C000B39FC001A39F700D811D1124911DB29F6A
:1022D000700D811D1124911D089510E0C2E6D0E01B
:1022E00004C0FE010E9431112196C336D107C9F7FF
:1022F000F894FFCF000000003E029E01CB018B024C
:10230000FC01DA01EE01000000007F059E013A04A5
:10231000390400000000A4039E013A04A303000452
:1023200018048B036E616E00696E66006F7666003E
:102330004750524D430047504747410041542B43BB
:102340004D47463D310D004154202B20434D47530E
:10235000203D20222B393136333837393331313370
:102360003622000D0A004C61746974756465203D65
:102370002000204C6F6E676974756465203D2000F5
:0A2380004C41543A004C4F4E3A0015
:107E0000112484B714BE81FFF0D085E080938100F7
:107E100082E08093C00088E18093C10086E0809377
:107E2000C20080E18093C4008EE0C9D0259A86E02C
:107E300020E33CEF91E0309385002093840096BBD3
:107E4000B09BFECF1D9AA8958150A9F7CC24DD24C4
:107E500088248394B5E0AB2EA1E19A2EF3E0BF2EE7
:107E6000A2D0813461F49FD0082FAFD0023811F036
:107E7000013811F484E001C083E08DD089C08234E0
:107E800011F484E103C0853419F485E0A6D080C0E4
:107E9000853579F488D0E82EFF2485D0082F10E0AE
:107EA000102F00270E291F29000F111F8ED06801E7
:107EB0006FC0863521F484E090D080E0DECF843638
:107EC00009F040C070D06FD0082F6DD080E0C81688
:107ED00080E7D80618F4F601B7BEE895C0E0D1E017
:107EE00062D089930C17E1F7F0E0CF16F0E7DF06D8
:107EF00018F0F601B7BEE89568D007B600FCFDCFD4
:107F0000A601A0E0B1E02C9130E011968C91119780
:107F100090E0982F8827822B932B1296FA010C0160
:107F200087BEE89511244E5F5F4FF1E0A038BF0790
:107F300051F7F601A7BEE89507B600FCFDCF97BE46
:107F4000E89526C08437B1F42ED02DD0F82E2BD052
:107F50003CD0F601EF2C8F010F5F1F4F84911BD097
:107F6000EA94F801C1F70894C11CD11CFA94CF0C13
:107F7000D11C0EC0853739F428D08EE10CD085E9AC
:107F80000AD08FE07ACF813511F488E018D01DD067
:107F900080E101D065CF982F8091C00085FFFCCF94
:107FA0009093C60008958091C00087FFFCCF809118
:107FB000C00084FD01C0A8958091C6000895E0E648
:107FC000F0E098E1908380830895EDDF803219F02E
:107FD00088E0F5DFFFCF84E1DECF1F93182FE3DFCA
:107FE0001150E9F7F2DF1F91089580E0E8DFEE27F6
:047FF000FF270994CA
:027FFE00040479
:00000001FF
