:020000040000FA
:100000000C9462000C948A000C948A000C948A0070
:100010000C948A000C948A000C948A000C948A0038
:100020000C948A000C948A000C948A000C948A0028
:100030000C948A000C948A000C948A000C948A0018
:100040000C942B070C948A000C94F9060C94D3069C
:100050000C948A000C948A000C948A000C948A00F8
:100060000C948A000C948A000000000024002700F1
:100070002A0000000000250028002B0000000000DE
:1000800023002600290004040404040404040202DA
:100090000202020203030303030301020408102007
:1000A0004080010204081020010204081020000012
:1000B0000008000201000003040700000000000027
:1000C0000000750711241FBECFEFD8E0DEBFCDBF03
:1000D00011E0A0E0B1E0E8EDF6E102C005900D927C
:1000E000A63BB107D9F722E0A6EBB1E001C01D9213
:1000F000A038B207E1F710E0C2E6D0E004C02197D3
:10010000FE010E94640BC136D107C9F70E94BF07E8
:100110000C946A0B0C940000AF92BF92CF92DF92C6
:10012000EF92FF920F931F93CF93DF936C017B01AC
:100130008B01040F151FEB015E01AE18BF08C0173D
:10014000D10759F06991D601ED91FC910190F081B0
:10015000E02DC6010995892B79F7C501DF91CF9173
:100160001F910F91FF90EF90DF90CF90BF90AF90D5
:100170000895FC01538D448D252F30E0842F90E0AD
:10018000821B930B541710F0CF9608950197089592
:10019000FC01918D828D981761F0A28DAE0FBF2F5B
:1001A000B11D5D968C91928D9F5F9F73928F90E0B1
:1001B00008958FEF9FEF0895FC01918D828D981720
:1001C00031F0828DE80FF11D858D90E008958FEF5D
:1001D0009FEF0895FC01918D228D892F90E0805C26
:1001E0009F4F821B91098F73992708958BEC91E0A3
:1001F0000E94EA0021E0892B09F420E0822F089573
:1002000080E090E0892B29F00E94F60081110C9487
:1002100000000895FC01A48DA80FB92FB11DA35AA9
:10022000BF4F2C91848D90E001968F739927848F16
:10023000A689B7892C93A089B1898C918370806439
:100240008C93938D848D981306C00288F389E02DDA
:1002500080818F7D80830895EF92FF920F931F938B
:10026000CF93DF93EC0181E0888F9B8D8C8D981369
:100270001AC0E889F989808185FF15C09FB7F89475
:10028000EE89FF896083E889F989808183708064C1
:1002900080839FBF81E090E0DF91CF911F910F910C
:1002A000FF90EF900895F62E0B8D10E00F5F1F4F1B
:1002B0000F731127E02E8C8D8E110CC00FB607FC2A
:1002C000FACFE889F989808185FFF5CFCE010E94B8
:1002D0000A01F1CFEB8DEC0FFD2FF11DE35AFF4F1B
:1002E000F0829FB7F8940B8FEA89FB898081806246
:1002F000CFCFCF93DF93EC01888D8823B9F0AA8903
:10030000BB89E889F9898C9185FD03C0808186FDD0
:100310000DC00FB607FCF7CF8C9185FFF2CF80811F
:1003200085FFEDCFCE010E940A01E9CFDF91CF9189
:100330000895833081F028F4813099F08230A9F05B
:1003400008958730A9F08830C9F08430B1F48091E5
:1003500080008F7D03C0809180008F778093800024
:10036000089584B58F7784BD089584B58F7DFBCFC4
:100370008091B0008F778093B00008958091B00095
:100380008F7DF9CFCF93DF93282F30E0F901E2552D
:10039000FF4F8491F901E656FF4FD491F901EA57D6
:1003A000FF4FC491CC23A1F081110E949901EC2F41
:1003B000F0E0EE0FFF1FE458FF4FA591B491EC91D0
:1003C000ED2381E090E009F480E0DF91CF91089582
:1003D00080E090E0FACF1F93CF93DF93282F30E097
:1003E000F901E255FF4F8491F901E656FF4FD49190
:1003F000F901EA57FF4FC491CC23A9F0162F8111C0
:100400000E949901EC2FF0E0EE0FFF1FEE58FF4F16
:10041000A591B4918FB7F894EC91111108C0D095C3
:10042000DE23DC938FBFDF91CF911F910895DE2BE8
:10043000F8CFCF93DF9390E0FC01E656FF4F249175
:100440008A579F4FFC0184918823C9F090E0880F60
:10045000991FFC01E859FF4FA591B491FC01EE589A
:10046000FF4FC591D49161110DC09FB7F8948C9145
:10047000209582238C938881282328839FBFDF9136
:10048000CF910895623051F49FB7F8943C91822F38
:10049000809583238C93E8812E2BEFCF8FB7F89430
:1004A000EC912E2B2C938FBFEACF3FB7F89480911D
:1004B000BB019091BC01A091BD01B091BE0126B5D8
:1004C000A89B05C02F3F19F00196A11DB11D3FBF8C
:1004D000BA2FA92F982F8827BC01CD01620F711D5B
:1004E000811D911D42E0660F771F881F991F4A9555
:1004F000D1F708958F929F92AF92BF92CF92DF92E1
:10050000EF92FF924B015C010E9455026B017C014E
:100510000E9455026C197D098E099F09683E73403F
:1005200081059105A8F321E0821A9108A108B1087C
:1005300088EEC80E83E0D81EE11CF11C81149104E2
:10054000A104B10429F7FF90EF90DF90CF90BF9006
:10055000AF909F908F900895089590E080E0089567
:10056000CF92DF92EF92FF92CF9361E08EE00E94F4
:10057000190261E08EE00E94EB0160E08FE00E94D2
:10058000EB0160E08EE00E9419028EE00E94C20141
:10059000892BD9F7C8E1C12CD12C760161E08FE01D
:1005A0000E94EB01CC0CDD1CEE1CFF1C60E08FE018
:1005B0000E94EB018EE00E94C201892B29F02FEFEF
:1005C000C21AD20AE20AF20AC15041F761E08FE092
:1005D0000E94EB0160E08FE00E94EB01C701B601D1
:1005E0008058CF91FF90EF90DF90CF900895CF93F8
:1005F000DF93EC0160E08E810E94EB0161E08E816F
:100600000E94EB0160E08E810E94EB018BE891E09B
:100610000197F1F7DF91CF910895CF92DF92EF929A
:10062000FF920F931F93CF93DF936C017C0187E0C0
:10063000E80EF11CD0E0C0E0062F10E0B8010C2E4F
:1006400002C0759567950A94E2F76170F701819190
:100650007F010E94EB012196C430D10579F7C601D4
:10066000DF91CF911F910F91FF90EF90DF90CF908E
:100670000C94F702CF92DF92EF92FF920F931F93A9
:10068000CF93DF93EC01F62E642F8C810E94EB0157
:100690008D818F3F19F060E00E94EB010F2D10E07B
:1006A0008F8584FF25C06E0187E0C80ED11CF12C18
:1006B000E12CB8010E2C02C0759567950A94E2F7FB
:1006C0006170F60181916F010E94EB01FFEFEF1A5B
:1006D000FF0A88E0E816F10461F7CE01DF91CF91BF
:1006E0001F910F91FF90EF90DF90CF900C94F70245
:1006F000B80184E0759567958A95E1F7CE010E946F
:100700000D036F2DCE01DF91CF911F910F91FF90BF
:10071000EF90DF90CF900C940D0340E0682F88E6B7
:1007200092E00C943A0381E00E948D038BE39FE1F9
:100730000197F1F70895CF93DF93823029F49091D8
:10074000770298609093770280937B0210927C02EC
:1007500080E480937D0280E180937E0280E5809337
:100760007F0261E080916C020E94190280916D020B
:100770008F3F19F061E00E94190261E080916E02E2
:100780000E941902C8E6D2E09E01285632408091AC
:10079000770284FD0BC084E090E02196281739078A
:1007A00044F461E08E810E941902EECF88E090E06F
:1007B000F4CF8BE39DE00197F1F760E080916C024C
:1007C0000E94EB0160E080916E020E94EB0180913B
:1007D0006D028F3F19F060E00E94EB01809177027B
:1007E00084FD34C063E088E692E00E940D03CBE410
:1007F000D6E4CE010197F1F763E088E692E00E942B
:100800000D032197F1F763E088E692E00E940D0363
:1008100083E592E00197F1F762E088E692E00E94BA
:100820000D038091770280620E948D0384E08093A3
:1008300078028CE00E948D030E94930382E08093F3
:10084000790286E0DF91CF910C948D0380620E9443
:100850008D038BE496E40197F1F780917702806233
:100860000E948D0383E592E00197F1F78091770272
:1008700080620E948D03D5CF90917B02891710F082
:100880008FEF890FE82FF0E0E859FD4F84898068E9
:100890000C948D0341E00E943A0381E090E00895BA
:1008A000FB0101900020E9F73197AF01461B570B80
:1008B000DC01ED91FC910280F381E02D09948F928F
:1008C0009F92AF92BF92EF92FF920F931F93CF939D
:1008D000DF93CDB7DEB7A1970FB6F894DEBF0FBE9A
:1008E000CDBF7C01FA01CB0119A2223008F42AE025
:1008F0008E010F5D1F4F822E912CB12CA12CBF01B8
:10090000A50194010E94230BF901CA016A300CF57C
:10091000605DD8016E938D01232B242B252B79F755
:1009200090E080E0109721F0BD01C7010E945004C3
:10093000A1960FB6F894DEBF0FBECDBFDF91CF9169
:100940001F910F91FF90EF90BF90AF909F908F906D
:100950000895695CDECFCF92DF92EF92FF920F9302
:100960001F93CF93DF9377FF21C06A017B01EC01D6
:10097000E881F9810190F081E02D6DE209958C010B
:1009800044275527BA014C195D096E097F092AE0F1
:10099000CE010E945F04800F911FDF91CF911F91C4
:1009A0000F91FF90EF90DF90CF9008952AE0DF91B4
:1009B000CF911F910F91FF90EF90DF90CF900C940B
:1009C0005F040C9450048F929F92AF92BF92CF928B
:1009D000DF92EF92FF92CF93DF930E9493036EE139
:1009E00071E088E692E00E94E10481E00E943C040C
:1009F0006DE271E088E692E00E94E104C4E6D0E096
:100A00000E94B002AB01BC014093C7015093C801E2
:100A10006093C9017093CA018091C3019091C40190
:100A2000A091C501B091C601840F951FA61FB71FE5
:100A30008093C3019093C401A093C501B093C601F4
:100A40008BEC91E00E94AB046CE371E08BEC91E0E5
:100A50000E9450042197A1F66091C3017091C401D6
:100A60008091C5019091C60124E630E040E050E05D
:100A70000E94450B2093C3013093C4014093C501EC
:100A80005093C6016FE371E088E692E00E94E104B2
:100A900081E00E943C044091C3015091C4016091E7
:100AA000C5017091C60188E692E00E94AB046CE338
:100AB00071E088E692E00E94500468EE73E080E006
:100AC00090E00E947A020E94930364E471E088E659
:100AD00092E00E94E1041092C7011092C8011092A6
:100AE000C9011092CA018091C7019091C801A091DB
:100AF000C901B091CA01883E9340A105B105DCF45B
:100B00000E94B002C090C301D090C401E090C50122
:100B1000F090C601A7019601261B370B480B590B15
:100B2000DA01C9018093C7019093C801A093C9015C
:100B3000B093CA01D8CF0E94930364E571E088E6C0
:100B400092E00E94E10460ED77E080E090E00E9496
:100B50007A02C4E6D0E00E94B0026093C7017093AD
:100B6000C8018093C9019093CA01C090C301D0907D
:100B7000C401E090C501F090C6016C197D098E0991
:100B80009F090E94FC092091BF013091C001409152
:100B9000C1015091C2010E94E1086093BF017093AE
:100BA000C0018093C1019093C2012197A1F620E07A
:100BB00030E048EC52E40E94520920E030E048EC7A
:100BC00052E40E9452096B017C0120E030E0A9014F
:100BD0000E944D09882309F459C0C092BF01D092E8
:100BE000C001E092C101F092C2016FE371E088E6BA
:100BF00092E00E94E10481E00E943C04C090BF01A9
:100C0000D090C001E090C101F090C201A70196010F
:100C1000C701B6010E941E0B64E671E081111AC083
:100C200046015701E894B7F82FEF3FEF4FE75FE732
:100C3000C501B4010E941E0B811135C02FEF3FEF9B
:100C40004FE75FE7C501B4010E944D0918165CF536
:100C500068E671E088E692E00E9450046CE371E07F
:100C600088E692E00E94500468EE73E080E090E035
:100C70000E947A02DF91CF91FF90EF90DF90CF90AA
:100C8000BF90AF909F908F900C94930380E090E082
:100C9000A0E8BFE38093BF019093C001A093C1017E
:100CA000B093C201A2CF2FEF3FEF4FE75FE4C70140
:100CB000B6010E94AC0A18161CF46CE671E0CACFAB
:100CC0002FEF3FEF4FE75FECC701B6010E944D09E0
:100CD00087FDF3CF20E030E0A901C701B6010E94F3
:100CE0004D0987FF0AC041E06DE288E692E00E946C
:100CF0003A03F7FAF094F7F8F0942AE037ED43EA74
:100D00005BE3C701B6010E94E1084B015C010E9450
:100D1000CB096B017C010E94FA099B01AC01C50162
:100D2000B4010E94E0084B015C012AE0B701A60172
:100D300088E692E00E945F0441E06EE288E692E07D
:100D40000E943A0320E030E040E251E4C501B401E2
:100D50000E94B10A4B015C010E94CB096B01F12C8E
:100D6000E12C2AE0B701A60188E692E00E945F0428
:100D7000C701B6010E94FA099B01AC01C501B4018B
:100D80000E94E00820E030E040E251E40E94B10A15
:100D90000E94CB09AB0170E060E02AE088E692E0B7
:100DA0000E945F045BCF1F920F920FB60F92112427
:100DB0002F933F934F935F936F937F938F939F9363
:100DC000AF93BF93EF93FF938BEC91E00E940A01E6
:100DD000FF91EF91BF91AF919F918F917F916F9113
:100DE0005F914F913F912F910F900FBE0F901F90E9
:100DF00018951F920F920FB60F9211242F938F9375
:100E00009F93EF93FF93E091DB01F091DC018081F0
:100E1000E091E101F091E20182FD1BC0908180919F
:100E2000E4018F5F8F732091E501821741F0E0911B
:100E3000E401F0E0E553FE4F958F8093E401FF91CC
:100E4000EF919F918F912F910F900FBE0F901F9058
:100E500018958081F4CF1F920F920FB60F92112434
:100E60002F933F938F939F93AF93BF938091B7013D
:100E70009091B801A091B901B091BA013091B60139
:100E800023E0230F2D3758F50196A11DB11D2093A6
:100E9000B6018093B7019093B801A093B901B093C4
:100EA000BA018091BB019091BC01A091BD01B091AC
:100EB000BE010196A11DB11D8093BB019093BC01A1
:100EC000A093BD01B093BE01BF91AF919F918F914F
:100ED0003F912F910F900FBE0F901F90189526E80D
:100EE000230F0296A11DB11DD2CFEBECF1E01382CE
:100EF000128288EE93E0A0E0B0E084839583A6831D
:100F0000B78384E091E09183808385EC90E09587BE
:100F1000848784EC90E09787868780EC90E0918BC3
:100F2000808B81EC90E0938B828B82EC90E0958BB0
:100F3000848B86EC90E0978B868B118E128E138EAD
:100F4000148EE8E6F2E01382128286E191E091834A
:100F5000808388E084838FEF858389E086838AE0BD
:100F600087838BE080878CE081878DE08287138682
:100F7000148615861686178681E00C949B03789458
:100F800084B5826084BD84B5816084BD85B582608E
:100F900085BD85B5816085BD80916E00816080933F
:100FA0006E001092810080918100826080938100A8
:100FB00080918100816080938100809180008160B8
:100FC000809380008091B10084608093B100809113
:100FD000B00081608093B00080917A00846080933B
:100FE0007A0080917A00826080937A0080917A0002
:100FF000816080937A0080917A00806880937A0083
:101000001092C100E091DB01F091DC0182E080836D
:10101000E091D701F091D8011082E091D901F091CF
:10102000DA018FEC80831092E301E091DF01F0910F
:10103000E00186E08083E091DD01F091DE018081B6
:1010400080618083E091DD01F091DE018081886024
:101050008083E091DD01F091DE01808180688083F2
:10106000E091DD01F091DE0180818F7D808361E080
:101070008FE00E94190262E082E00E94190282E081
:101080000E949B0360E771E088E692E00E94E10421
:1010900081E00E943C046CE771E088E692E00E94E7
:1010A000E10468EE73E080E090E00E947A020E9422
:1010B00093030E94E304C0E0D0E00E94B00260937A
:1010C000C7017093C8018093C9019093CA01C09071
:1010D000C301D090C401E090C501F090C6016C1925
:1010E0007D098E099F090E94FC092091BF01309162
:1010F000C0014091C1015091C2010E9452090E9459
:10110000C4096B016AE871E08BEC91E00E94E10494
:101110000D2C000CEE08FF08B701A6018BEC91E046
:101120000E94AB0462E971E08BEC91E00E945004F4
:101130006CE371E08BEC91E00E94500480E00E942F
:101140003C0464E971E088E692E00E94E10481E0F9
:101150000E943C04B701A60188E692E00E94AB041D
:1011600067EA71E088E692E00E94E10482E00E9472
:10117000C201892BD1F41092BF011092C0011092CC
:10118000C1011092C2011092C3011092C4011092C9
:10119000C5011092C6011092C7011092C8011092A9
:1011A000C9011092CA010E94E304209709F485CF77
:1011B0000E94F600882309F480CF0E9400007DCFB2
:1011C0005058BB27AA270E94F8080C94720A0E9464
:1011D000640A38F00E946B0A20F039F49F3F19F43A
:1011E00026F40C94610A0EF4E095E7FB0C945B0A7C
:1011F000E92F0E94830A58F3BA176207730784071E
:10120000950720F079F4A6F50C94A50A0EF4E09564
:101210000B2EBA2FA02D0B01B90190010C01CA01B0
:10122000A0011124FF27591B99F0593F50F4503E5B
:1012300068F11A16F040A22F232F342F4427585F4D
:10124000F3CF469537952795A795F0405395C9F765
:101250007EF41F16BA0B620B730B840BBAF091501D
:10126000A1F0FF0FBB1F661F771F881FC2F70EC0BC
:10127000BA0F621F731F841F48F48795779567958F
:10128000B795F7959E3F08F0B0CF9395880F08F07B
:101290009927EE0F9795879508950E94370A08F4CD
:1012A00081E008950E9466090C94720A0E946B0AFC
:1012B00058F00E94640A40F029F45F3F29F00C9432
:1012C0005B0A51110C94A60A0C94610A0E94830ACD
:1012D00068F39923B1F3552391F3951B550BBB2765
:1012E000AA2762177307840738F09F5F5F4F220FAA
:1012F000331F441FAA1FA9F335D00E2E3AF0E0E8A1
:1013000032D091505040E695001CCAF72BD0FE2FEA
:1013100029D0660F771F881FBB1F2617370748077E
:10132000AB07B0E809F0BB0B802DBF01FF27935836
:101330005F4F3AF09E3F510578F00C945B0A0C9495
:10134000A60A5F3FE4F3983ED4F3869577956795B8
:10135000B795F7959F5FC9F7880F911D969587956B
:1013600097F90895E1E0660F771F881FBB1F62178A
:1013700073078407BA0720F0621B730B840BBA0B48
:10138000EE1F88F7E09508950E94CB096894B1118B
:101390000C94A60A08950E948B0A88F09F5798F033
:1013A000B92F9927B751B0F0E1F0660F771F881F6A
:1013B000991F1AF0BA95C9F714C0B13091F00E9484
:1013C000A50AB1E008950C94A50A672F782F882705
:1013D000B85F39F0B93FCCF3869577956795B395AB
:1013E000D9F73EF490958095709561957F4F8F4F1A
:1013F0009F4F0895E89409C097FB3EF4909580951F
:10140000709561957F4F8F4F9F4F9923A9F0F92FCA
:1014100096E9BB279395F695879577956795B79548
:10142000F111F8CFFAF4BB0F11F460FF1BC06F5F2E
:101430007F4F8F4F9F4F16C0882311F096E911C040
:10144000772321F09EE8872F762F05C0662371F061
:1014500096E8862F70E060E02AF09A95660F771F75
:10146000881FDAF7880F9695879597F90895990F51
:101470000008550FAA0BE0E8FEEF16161706E8075E
:10148000F907C0F012161306E407F50798F0621B7F
:10149000730B840B950B39F40A2661F0232B242B54
:1014A000252B21F408950A2609F4A140A6958FEF73
:1014B000811D811D089597F99F6780E870E060E0C5
:1014C00008959FEF80EC089500240A9416161706DD
:1014D00018060906089500240A9412161306140625
:1014E00005060895092E0394000C11F4882352F088
:1014F000BB0F40F4BF2B11F460FF04C06F5F7F4F40
:101500008F4F9F4F089557FD9058440F551F59F026
:101510005F3F71F04795880F97FB991F61F09F3FE0
:1015200079F087950895121613061406551FF2CF09
:101530004695F1DF08C0161617061806991FF1CF59
:1015400086957105610508940895E894BB27662780
:101550007727CB0197F908950E94370A08F48FEF97
:1015600008950E94C40A0C94720A0E94640A38F01A
:101570000E946B0A20F0952311F00C945B0A0C94E6
:10158000610A11240C94A60A0E94830A70F3959FA5
:10159000C1F3950F50E0551F629FF001729FBB276A
:1015A000F00DB11D639FAA27F00DB11DAA1F649F06
:1015B0006627B00DA11D661F829F2227B00DA11DB9
:1015C000621F739FB00DA11D621F839FA00D611D3F
:1015D000221F749F3327A00D611D231F849F600D60
:1015E000211D822F762F6A2F11249F5750409AF089
:1015F000F1F088234AF0EE0FFF1FBB1F661F771F15
:10160000881F91505040A9F79E3F510580F00C94DF
:101610005B0A0C94A60A5F3FE4F3983ED4F38695E8
:1016200077956795B795F795E7959F5FC1F7FE2B7F
:10163000880F911D9695879597F908950E94370A0E
:10164000880B990B0895A1E21A2EAA1BBB1BFD0162
:101650000DC0AA1FBB1FEE1FFF1FA217B307E40791
:10166000F50720F0A21BB30BE40BF50B661F771FE9
:10167000881F991F1A9469F76095709580959095C9
:101680009B01AC01BD01CF010895052E97FB1EF40F
:1016900000940E945C0B57FD07D00E94230B07FCAF
:1016A00003D04EF40C945C0B5095409530952195E9
:1016B0003F4F4F4F5F4F089590958095709561957E
:1016C0007F4F8F4F9F4F0895EE0FFF1F0590F491AE
:1016D000E02D0994F894FFCF000000002C018C004D
:1016E000B9007901EA00C800DC00000000004A04EB
:1016F0008C00AD02AC0243616C6962726174696E08
:10170000672E2E2E00506C656173652057616974D9
:101710002E2E2E000D0A004176673A005075742077
:10172000313030672026207761697400506C656124
:10173000736520576169742E2E2E2E006E616E0027
:10174000696E66006F766600202020205765696705
:1017500068742000204D6561737572656D656E74E7
:1017600020007765696768743A00670057656967A4
:1017700068742020202020202020202020200067A6
:0E1780002020202020202020202020202000BB
:107E0000112484B714BE81FFF0D085E080938100F7
:107E100082E08093C00088E18093C10086E0809377
:107E2000C20080E18093C4008EE0C9D0259A86E02C
:107E300020E33CEF91E0309385002093840096BBD3
:107E4000B09BFECF1D9AA8958150A9F7CC24DD24C4
:107E500088248394B5E0AB2EA1E19A2EF3E0BF2EE7
:107E6000A2D0813461F49FD0082FAFD0023811F036
:107E7000013811F484E001C083E08DD089C08234E0
:107E800011F484E103C0853419F485E0A6D080C0E4
:107E9000853579F488D0E82EFF2485D0082F10E0AE
:107EA000102F00270E291F29000F111F8ED06801E7
:107EB0006FC0863521F484E090D080E0DECF843638
:107EC00009F040C070D06FD0082F6DD080E0C81688
:107ED00080E7D80618F4F601B7BEE895C0E0D1E017
:107EE00062D089930C17E1F7F0E0CF16F0E7DF06D8
:107EF00018F0F601B7BEE89568D007B600FCFDCFD4
:107F0000A601A0E0B1E02C9130E011968C91119780
:107F100090E0982F8827822B932B1296FA010C0160
:107F200087BEE89511244E5F5F4FF1E0A038BF0790
:107F300051F7F601A7BEE89507B600FCFDCF97BE46
:107F4000E89526C08437B1F42ED02DD0F82E2BD052
:107F50003CD0F601EF2C8F010F5F1F4F84911BD097
:107F6000EA94F801C1F70894C11CD11CFA94CF0C13
:107F7000D11C0EC0853739F428D08EE10CD085E9AC
:107F80000AD08FE07ACF813511F488E018D01DD067
:107F900080E101D065CF982F8091C00085FFFCCF94
:107FA0009093C60008958091C00087FFFCCF809118
:107FB000C00084FD01C0A8958091C6000895E0E648
:107FC000F0E098E1908380830895EDDF803219F02E
:107FD00088E0F5DFFFCF84E1DECF1F93182FE3DFCA
:107FE0001150E9F7F2DF1F91089580E0E8DFEE27F6
:047FF000FF270994CA
:027FFE00040479
:00000001FF
