:020000040000FA
:100000000C94C1030C94F2030C94F2030C94F203CD
:100010000C94F2030C94F2030C94F2030C94F2038C
:100020000C94F2030C94F2030C94F2030C94F2037C
:100030000C94F2030C94F2030C94F2030C94F2036C
:100040000C94F2030C94F2030C94F2030C94F2035C
:100050000C94F2030C94F2030C94F2030C9419190F
:100060000C94F2030C94E3180C94B9180C94F2035A
:100070000C94F2030C94F2030C94F2030C94F2032C
:100080000C94F2030C94F2030C94F2030C94F2031C
:100090000C9483180C9459180C94F2030C94F203EA
:1000A0000C94F2030C94F2030C94F2030C94F203FC
:1000B0000C94F2030C94F2030C94F2030C94F203EC
:1000C0000C94F2030C94F2030C94F2030C94F203DC
:1000D0000C94F2030C94F2030C94F2030C94F203CC
:1000E0000C94F203084AD73B3BCE016E84BCBFFDA3
:1000F000C12F3D6C74319ABD56833DDA3D00C77FF8
:1001000011BED9E4BB4C3E916BAAAABE0000008090
:100110003F05A84CCDB2D44EB93836A9020C50B91F
:10012000918688083CA6AAAA2ABE000000803F004B
:100130000C9486210C94CD060C94EB110C941B04AA
:100140000C94B6060C948D060C940A210C9425216F
:100150000C9456080C9471210C94A8060C94B011C0
:100160000C947B210C941C040C94BD110C94AC06D3
:100170000C946A210C94B8110C9436120C94DA2069
:100180000C9493060C942C120C9474080C94850512
:100190000C9497060C94D5050C94F5110C94A71F9C
:1001A0000C94FF110C949F060C94C0160C94F5202F
:1001B0000C94DB110C9409120C9440120C94EF2057
:1001C0000C944B210C94A2060C9475080C941812F4
:1001D0000C945D080C9463190C94D1110C94CE0608
:1001E0000C9435050C94BA060C94D2060C94620556
:1001F0000C94BD0C0C9456210C9422120C942206E3
:100200000C94C0060C94C4060C9430210C94E31199
:100210000C94C8060C9493050C944A120C94B206E4
:100220000C949B060C9415170C94C7110C94710533
:100230000C94BD204E414E494E495459494E46CD2D
:10024000CCCC3D0AD7233C17B7D13877CC2B32958D
:1002500095E6241FB14F0A000020410000C842006B
:10026000401C4620BCBE4CCA1B0E5AAEC59D740035
:10027000407A10F35A00A0724E18090010A5D4E875
:100280000000E87648170000E40B54020000CA9A08
:100290003B000000E1F5050000809698000000405A
:1002A000420F000000A0860100000010270000009F
:1002B00000E803000000006400000000000A0000E5
:1002C0000000000100000000002C76D888DC674F99
:1002D0000823DFC1DFAE59E1B1B796E5E3E453C6C9
:1002E0003AE651997696E8E6C28426EB898C9B62C1
:1002F000ED407C6FFCEFBC9C9F40F2BAA56FA5F46B
:1003000090055A2AF75C936B6CF9676DC11BFCE092
:10031000E40D47FEF520E6B500D0ED902E030094E5
:100320003577050080841E080000204E0A0000007A
:10033000C80C333333330F986E12831141EF8D2184
:1003400014893BE65516CFFEE6DB18D1844B381BEB
:10035000F77C1D901DA4BBE424203284725E2281B0
:1003600000C9F124ECA1E53D27626C6E6B696E66F5
:100370000076657200302E362E3100682D62656180
:100380007400313000627566662D696E003130325E
:1003900034006465760041726475696E6F204D6546
:1003A0006761006370750041546D65676132353671
:1003B0003000636F6E0053747265616D0062756921
:1003C0006C6400417072202039203230323120318B
:1003D000373A32363A30390000000000210024005C
:1003E00027002A002D003000330001010000040125
:1003F00007010A0100002200250028002B002E0022
:100400003100340002010000050108010B01000069
:1004100020002300260029002C002F0032000001BC
:100420000000030106010901050505050705080887
:100430000808020202020A0A08080404040401016E
:100440000101010101010303030303030303040783
:1004500007070C0C0C0C0C0C0C0C0202020206061A
:100460000606060606060B0B0B0B0B0B0B0B01020D
:1004700010202008081020401020408002010201B6
:10048000080402010102040810204080804020106E
:1004900008040201800402018040201008040201C7
:1004A000080402010102040810204080010204082F
:1004B00010204080456E74657220746865204C6120
:1004C000746974756465206F662044657374696E21
:1004D0006174696F6E203A2000456E7465722074F5
:1004E0006865204C6F6E676974756465206F66205F
:1004F00044657374696E6174696F6E203A200045BB
:100500006E74657220746865207765696768742009
:100510006F662073616D706C6520696E2067726113
:100520006D3A2000426C796E6B2044657669636594
:1005300020737461727465640000000A0B02090C78
:100540000D0E080703040100000000000000000079
:10055000000000000000000000000000000000009B
:100560000000000000121110000000000000000058
:100570000000000000000000000000000000001C5F
:10058000041C041C041C041C041C041C041C041C6B
:10059000041C041C041C041C041C041C041C041C5B
:1005A000041C041C041C041C041C041C041C041C4B
:1005B000041C041C041C041C041C041C041C041C3B
:1005C000041C041C041C041C041C041C041C041C2B
:1005D000041C041C041C041C041C041C041C041C1B
:1005E000041C041C041C041C041C041C041C041C0B
:1005F000041C041C041C041C041C041C041C041CFB
:10060000041C041C041C041C041C041C041C041CEA
:10061000041C041C041C041C041C041C041C041CDA
:10062000041C041C041C041C041C041C041C041CCA
:10063000041C041C041C041C041C041C041C041CBA
:10064000041C041C041C041C041C041C041C041CAA
:10065000041C041C041C041C041C041C041C041C9A
:10066000041C041C041C041C041C041C041C041C8A
:10067000041C041C041C041C041C041C041C041581
:10068000171B041B041B041B041B041B041B041B5F
:10069000041B041B041B041B041B041B041B041B62
:1006A000041B041B041B041B041B041B041B041B52
:1006B000041B041B041B041B041B041B041B041B42
:1006C000041B041B041B041B041B041B041B041B32
:1006D000041B041B041B041B041B041B041B041B22
:1006E000041B041B041B041B041B041B041B041B12
:1006F000041B041B041B041B041B041B041B041B02
:10070000041B041B041B041B041B041B041B041BF1
:10071000041B041B041B041B041B041B041B041BE1
:10072000041B041B041B041B041B041B041B041BD1
:10073000041B041B041B041B041B041B041B041BC1
:10074000041B041B041B041B041B041B041B041BB1
:10075000041B041B041B041B041B041B041B041BA1
:10076000041B041B041B041B041B041B041B041B91
:10077000041B041B041B041B041B041B041B04009C
:10078000631911241FBECFEFD1E2DEBFCDBF00E061
:100790000CBF14E0A0E0B2E0E6E0F9E500E00BBF3A
:1007A00002C007900D92AE31B107D9F726E0AEE155
:1007B000B4E001C01D92AA36B207E1F713E0C1EC24
:1007C000D3E000E006C021970109802FFE010E94BE
:1007D000682BC03CD10780E00807A9F70E94691A7E
:1007E0000C94812C0C940000FC01A089B18982E05A
:1007F0008C93A485B5851C92A685B7858FEC8C93C8
:10080000108EA489B58986E08C93A289B3898C91D6
:1008100080618C93A289B3898C9188608C93A28922
:10082000B3898C9180688C930288F389E02D808154
:100830008F7D80830895089508950F931F93CF931C
:10084000DF93C0911306E4E1F6E0CD3211F0E3E16D
:10085000F6E08F0120E030E0A901D801DD918D01A3
:1008600080ED8D0F8A3090F4AAE0B0E00E947E28DF
:100870002D2FDD0F330B440B550B260F371F481F51
:10088000591F2053310941095109E7CFA4E6B0E0CF
:100890000E947E28AB01BC01DF01819190ED980F91
:1008A0009A30D0F38E3259F511968C91119790EDC4
:1008B000980F9A3020F5082E000C990BC0972AE06B
:1008C000289F8001299F100D1124012E000C220B5E
:1008D000330B400F511F621F731F12968C9190EDC6
:1008E000980F9A3060F4082E000C990BC097092ECF
:1008F000000CAA0BBB0B480F591F6A1F7B1FCD3280
:1009000039F470956095509541955F4F6F4F7F4FCB
:10091000CB01BA01DF91CF911F910F9108954F92B2
:100920005F926F927F928F929F92AF92BF92CF927F
:10093000DF92EF92FF921F93CF93DF93C3E1D6E054
:10094000FE01C12CD12C7601119180ED810F8A30EE
:10095000A8F4AAE0B0E0A70196010E947E28C12E6B
:10096000110FDD08EE08FF08C60ED71EE81EF91E9F
:1009700080E3C81AD108E108F108E6CFC701B60143
:1009800024E630E040E050E00E94272B9B01AC01C0
:1009900060EA76E881E090E00E94172B4B015C0151
:1009A0009E01899190ED980F9A30D0F38E3221F507
:1009B000E901219680E1482E87E2582E612C712CA6
:1009C000A99180ED8A0F8A30B8F40A2E000CBB0B77
:1009D000D097A30192010E94702B860E971EA81E2D
:1009E000B91EC301B2012AE030E040E050E00E94AD
:1009F000272B29013A01E4CFC701B60124E630E0F4
:100A000040E050E00E94272B60E472E48FE090E029
:100A10000E94172B6B017C01C501B4016D5F7F4FF4
:100A20008F4F9F4F26E030E040E050E00E94272BA0
:100A3000C701B601620F731F841F951FDF91CF910D
:100A40001F91FF90EF90DF90CF90BF90AF909F905D
:100A50008F907F906F905F904F900895DC01ED91A3
:100A6000FC910190F081E02D1994AF92BF92CF924A
:100A7000DF92EF92FF920F931F93CF93DF936C015E
:100A80007B018B01040F151FEB015E01AE18BF083F
:100A9000C017D10759F06991D601ED91FC910190F1
:100AA000F081E02DC6011995892B79F7C501DF91F9
:100AB000CF911F910F91FF90EF90DF90CF90BF905B
:100AC000AF900895FC01538D448D252F30E0842F85
:100AD00090E0821B930B541710F0CF960895019766
:100AE0000895FC01918D828D981761F0A28DAE0F53
:100AF000BF2FB11D5D968C91928D9F5F9F73928FDA
:100B000090E008958FEF9FEF0895FC01918D828D05
:100B1000981731F0828DE80FF11D858D90E00895D2
:100B20008FEF9FEF0895FC01918D228D892F90E02A
:100B3000805C9F4F821B91098F739927089589E3E9
:100B400094E00E94930521E0892B09F420E0822F94
:100B5000089586ED94E00E94930521E0892B09F425
:100B600020E0822F0895FC01A48DA80FB92FB11D9C
:100B7000A35ABF4F2C91848D90E001968F739927D3
:100B8000848FA689B7892C93A089B1898C918370B1
:100B900080648C93938D848D981306C00288F389AA
:100BA000E02D80818F7D80830895EF92FF920F93D7
:100BB0001F93CF93DF93EC0181E0888F9B8D8C8D09
:100BC00098131AC0E889F989808185FF15C09FB7FD
:100BD000F894EE89FF896083E889F98980818370C0
:100BE000806480839FBF81E090E0DF91CF911F916F
:100BF0000F91FF90EF900895F62E0B8D10E00F5F90
:100C00001F4F0F731127E02E8C8D8E110CC00FB665
:100C100007FCFACFE889F989808185FFF5CFCE01FD
:100C20000E94B305F1CFEB8DEC0FFD2FF11DE35AC0
:100C3000FF4FF0829FB7F8940B8FEA89FB89808180
:100C40008062CFCFCF93DF93EC01888D8823B9F0FA
:100C5000AA89BB89E889F9898C9185FD03C08081C7
:100C600086FD0DC00FB607FCF7CF8C9185FFF2CF44
:100C7000808185FFEDCFCE010E94B305E9CFDF91E2
:100C8000CF91089580E090E0892B29F00E94A9057A
:100C900081110E94000080E090E0892B29F00E94E1
:100CA0009F0581110E94000080E090E0892B49F0AF
:100CB00080E090E0892B29F00E94000081110E94C1
:100CC000000080E090E0892B49F080E090E0892BE3
:100CD00029F00E94000081110C94000008958150B9
:100CE000823108F05AC0E82FF0E08827E558F94F24
:100CF0008F4F0C94682B9B069F068D0693069706D4
:100D0000CD06A206A806AC06B206B606BA06C0060E
:100D1000C406CD06C806CE06D206809180008F7725
:100D2000809380000895809180008F7DF9CF80911D
:100D30008000877FF5CF84B58F7784BD089584B513
:100D40008F7DFBCF8091B0008F778093B0000895A6
:100D50008091B0008F7DF9CF809190008F77809344
:100D600090000895809190008F7DF9CF8091900040
:100D7000877FF5CF8091A0008F778093A0000895A2
:100D80008091A0008F7DF9CF8091A000877FF5CF63
:100D9000809120018F778093200108958091200118
:100DA0008F7DF9CF80912001877FF5CFCF93DF939F
:100DB000282F30E0F901E75CFA4F8491F901E259FC
:100DC000FB4FD491F901E85DFB4FC491CC23A1F016
:100DD00081110E946F06EC2FF0E0EE0FFF1FE25F23
:100DE000FB4FA591B491EC91ED2381E090E009F4E3
:100DF00080E0DF91CF91089580E090E0FACF1F93DB
:100E0000CF93DF93282F30E0F901E75CFA4F84910C
:100E1000F901E259FB4FD491F901E85DFB4FC49110
:100E2000CC23A9F0162F81110E946F06EC2FF0E061
:100E3000EE0FFF1FEC50FC4FA591B4918FB7F894C3
:100E4000EC91111108C0D095DE23DC938FBFDF91A8
:100E5000CF911F910895DE2BF8CFCF93DF9390E0D1
:100E6000FC01E259FB4F2491885D9B4FFC0184916A
:100E70008823C9F090E0880F991FFC01E652FC4FCF
:100E8000A591B491FC01EC50FC4FC591D491611136
:100E90000DC09FB7F8948C91209582238C93888104
:100EA000282328839FBFDF91CF910895623051F4AA
:100EB0009FB7F8943C91822F809583238C93E8818F
:100EC0002E2BEFCF8FB7F894EC912E2B2C938FBF56
:100ED000EACF3FB7F8948091230490912404A09125
:100EE0002504B091260426B5A89B05C02F3F19F014
:100EF0000196A11DB11D3FBFBA2FA92F982F88279A
:100F0000BC01CD01620F711D811D911D42E0660F74
:100F1000771F881F991F4A95D1F708958F929F9246
:100F2000AF92BF92CF92DF92EF92FF926B017C0162
:100F30000E9469074B015C01C114D104E104F10472
:100F4000B9F00E946907681979098A099B09683E06
:100F500073408105910580F321E0C21AD108E108B0
:100F6000F10888EE880E83E0981EA11CB11CE4CF26
:100F7000FF90EF90DF90CF90BF90AF909F908F90B9
:100F800008952FB7F89460911F0470912004809108
:100F90002104909122042FBF08958F929F92AF92C7
:100FA000BF92CF92DF92EF92FF920F931F93CF9356
:100FB000DF936C017B018B01040F151F0E94C10799
:100FC0004B015C01E701C017D107C8F40E94C107BB
:100FD000681979098A099B09683B7B40810591055D
:100FE00070F4D6018D919C91DC01ED91FC9102840D
:100FF000F385E02D199597FDE6CF8993E4CFCE01D7
:101000008E199F09DF91CF911F910F91FF90EF9063
:10101000DF90CF90BF90AF909F908F900895CF9228
:10102000DF92EF92FF92CF9361E086E30E942D075B
:1010300061E086E30E94FF0660E087E30E94FF060E
:1010400060E086E30E942D0786E30E94D606892B86
:10105000D9F7C8E1C12CD12C760161E087E30E9469
:10106000FF06CC0CDD1CEE1CFF1C60E087E30E9439
:10107000FF0686E30E94D606892B29F02FEFC21ABD
:10108000D20AE20AF20AC15041F761E087E30E9406
:10109000FF0660E087E30E94FF06C701B6018058A3
:1010A000CF91FF90EF90DF90CF900895DC01ED910C
:1010B000FC910280F381E02D1994DC01AB5BBF4F02
:1010C000EC9121E02E0F2C93E80FF92FF11D658391
:1010D000203438F0DC01ED91FC910680F781E02DA1
:1010E000199581E090E00895089590E080E00895DA
:1010F000FB0101900020E9F73197AF01461B570B28
:10110000DC01ED91FC910280F381E02D19940F93A5
:101110001F93CF93DF938C01D0E0C0E0F801EC0F78
:10112000FD1F6491662341F083E795E00E945D080E
:10113000892B11F02196F2CF63E572E083E795E009
:101140000E9478088C0F9D1FDF91CF911F910F9106
:1011500008958F929F92AF92BF92EF92FF920F935A
:101160001F93CF93DF93CDB7DEB7A1970FB6F89457
:10117000DEBF0FBECDBF7C01FA01CB0119A2223028
:1011800008F42AE08E010F5D1F4F822E912CB12CA6
:10119000A12CBF01A50194010E94272BF901CA01CE
:1011A0006A300CF5605DD8016E938D01232B242BE2
:1011B000252B79F790E080E0109721F0BD01C70161
:1011C0000E947808A1960FB6F894DEBF0FBECDBF7F
:1011D000DF91CF911F910F91FF90EF90BF90AF9053
:1011E0009F908F900895695CDECF0F931F93CF93EC
:1011F000DF93EC010E9478088C0163E572E0CE0178
:101200000E947808800F911FDF91CF911F910F915D
:1012100008950F931F93CF93DF93EC01FB0144815B
:10122000558160817181E881F9810280F381E02D2F
:1012300019958C0163E572E0CE010E947808800F59
:10124000911FDF91CF911F910F9108950C94780811
:10125000DC01ED91FC911197309761F012962D9180
:101260003C911397E217F30728F401900020E9F767
:10127000ED93FC930895FC0180819181009739F0F2
:10128000228133818217930710F40C94232390E07A
:1012900080E00895CF92DF92EF92FF920F931F9319
:1012A000CF93DF936B01770FEE08FF08F7FE1BC0AB
:1012B000EC016DE20E942E058C0144275527BA01EE
:1012C0004C195D096E097F092AE0CE010E94A90828
:1012D000800F911FDF91CF911F910F91FF90EF90A1
:1012E000DF90CF9008952AE0B701A601DF91CF915A
:1012F0001F910F91FF90EF90DF90CF900C94A90871
:101300002F923F924F925F926F927F928F929F9215
:10131000AF92BF92CF92DF92EF92FF921F93CF9343
:10132000DF93EC016A017B01722EAB019601CB01C8
:10133000B6010E94E92A66E572E0811126C04601E5
:101340005701E894B7F82FEF3FEF4FE75FE7C5018C
:10135000B4010E94E92A81110CC02FEF3FEF4FE743
:101360005FE7C501B4010E9457276AE572E01816CD
:1013700064F02FEF3FEF4FE75FE4C701B6010E9433
:101380008A2A1816B4F46EE572E0CE01DF91CF918F
:101390001F91FF90EF90DF90CF90BF90AF909F9004
:1013A0008F907F906F905F904F903F902F900C9414
:1013B00078082FEF3FEF4FE75FECC701B6010E94BF
:1013C000572787FDE0CF20E030E0A901C701B60133
:1013D0000E945727312C212C87FF09C06DE2CE01D6
:1013E0000E942E051C01F7FAF094F7F8F09410E033
:1013F00060E070E080E09FE3711641F020E030E0B3
:1014000040E251E40E947C291F5FF6CFA7019601BC
:101410000E9499282B013C010E94F5294B015C0197
:101420002AE0BC01A401CE010E94A9087C01E20CC3
:10143000F31C1123C1F1C501B4010E945C279B017B
:10144000AC01C301B2010E9498284B015C016EE21D
:10145000CE010E942E05E80EF91E115020F120E069
:1014600030E040E251E4C501B4010E94BD272B01E8
:101470003C010E94F5294B01B12CA12C2AE0B501B9
:10148000A401CE010E94A908E80EF91EC501B4010D
:101490000E945C279B01AC01C301B2010E94982805
:1014A0004B015C01DACFC701DF91CF911F91FF9013
:1014B000EF90DF90CF90BF90AF909F908F907F90F4
:1014C0006F905F904F903F902F900895CF93DF9350
:1014D000EC0160E08E810E94FF0661E08E810E9437
:1014E000FF0660E08E810E94FF068BE891E0019785
:1014F000F1F7DF91CF910895CF92DF92EF92FF92B3
:101500000F931F93CF93DF936C017C0187E0E80E6C
:10151000F11CD0E0C0E0062F10E0B8010C2E02C094
:10152000759567950A94E2F76170F70181917F01E3
:101530000E94FF062196C430D10579F7C601DF91DC
:10154000CF911F910F91FF90EF90DF90CF900C946F
:10155000660ACF92DF92EF92FF920F931F93CF9381
:10156000DF93EC01F62E642F8C810E94FF068D81A3
:101570008F3F19F060E00E94FF060F2D10E08F856D
:1015800084FF25C06E0187E0C80ED11CF12CE12C30
:10159000B8010E2C02C0759567950A94E2F7617048
:1015A000F60181916F010E94FF06FFEFEF1AFF0A1B
:1015B00088E0E816F10461F7CE01DF91CF911F9129
:1015C0000F91FF90EF90DF90CF900C94660AB801D6
:1015D00084E0759567958A95E1F7CE010E947C0AB3
:1015E0006F2DCE01DF91CF911F910F91FF90EF9062
:1015F000DF90CF900C947C0A40E0682F80E396E067
:101600000C94A90A90914306891710F08FEF890F67
:10161000E82FF0E0E05DF94F848980680C94FC0AC3
:1016200081E00E94FC0A8BE39FE10197F1F70895A6
:10163000CF92DF92EF92FF92CF93DF930E94100B35
:1016400062E672E080E396E00E94260981E00E9453
:10165000020B61E772E080E396E00E942609C4E68F
:10166000D0E00E940F08C0903504D0903604E0907E
:101670003704F09038046C0D7D1D8E1D9F1D609306
:10168000350470933604809337049093380421977F
:1016900041F724E630E040E050E00E94492B2093DF
:1016A000350430933604409337045093380460E88F
:1016B00072E089E394E00E942609C0903504D0903E
:1016C0003604E0903704F09038042AE0B701A60110
:1016D000F7FE0DC06DE289E394E00E942E054427D9
:1016E0005527BA014C195D096E097F092AE089E383
:1016F00094E00E94A90863E572E089E394E00E9407
:10170000780868EE73E080E090E00E948E070E9407
:10171000100B80E00E94020B61EA72E080E396E029
:101720000E94260986E10E94D606892BD9F70E94DD
:10173000100B68EB72E080E396E00E94260960EDF2
:1017400077E080E090E00E948E07C4E6D0E00E943F
:101750000F08C0903504D0903604E0903704F09024
:1017600038046C197D098E099F090E945E2720911B
:1017700031043091320440913304509134040E947A
:1017800099286093310470933204809333049093CA
:1017900034042197E1F620E030E048EC52E40E9466
:1017A0007C2920E030E048EC52E40E947C296B0167
:1017B0007C0120E030E0A9010E945727882379F1BD
:1017C000C0923104D0923204E0923304F092340497
:1017D00068EC72E089E394E00E94260940913104AC
:1017E00050913204609133047091340422E089E313
:1017F00094E00E94800963E572E089E394E00E942E
:10180000780868EE73E080E090E00E948E07DF9138
:10181000CF91FF90EF90DF90CF900C94100B80E071
:1018200090E0A0E8BFE38093310490933204A0934A
:101830003304B0933404CCCFCF93DF93823029F4B8
:1018400090913F06986090933F06809343061092D4
:10185000440680E48093450680E18093460680E557
:101860008093470661E0809134060E942D078091A5
:1018700035068F3F19F061E00E942D0761E08091ED
:1018800036060E942D07C0E3D6E09E012053364065
:1018900080913F0684FD0BC084E090E021962817DC
:1018A000390744F461E08E810E942D07EECF88E075
:1018B00090E0F4CF8BE39DE00197F1F760E0809139
:1018C00034060E94FF0660E0809136060E94FF0603
:1018D000809135068F3F19F060E00E94FF068091ED
:1018E0003F0684FD34C063E080E396E00E947C0AFA
:1018F000CBE4D6E4CE010197F1F763E080E396E014
:101900000E947C0A2197F1F763E080E396E00E9451
:101910007C0A83E592E00197F1F762E080E396E0CC
:101920000E947C0A80913F0680620E94FC0A84E04B
:10193000809340068CE00E94FC0A0E94100B82E01B
:101940008093410686E0DF91CF910C94FC0A80627F
:101950000E94FC0A8BE496E40197F1F780913F0620
:1019600080620E94FC0A83E592E00197F1F7809182
:101970003F0680620E94FC0AD5CF41E00E94A90A7E
:1019800081E090E008950F931F93CF93DF93EC01D4
:1019900088819981009759F02A813B812617370762
:1019A00030F081E0DF91CF911F910F9108958B016D
:1019B0006F5F7F4F0E94782B009759F0998388833F
:1019C0001B830A832C813D81232B59F7FC01108254
:1019D000E8CF80E0E7CFEF92FF920F931F93CF9372
:1019E000DF936115710541F480E0DF91CF911F9184
:1019F0000F91FF90EF90089541155105B1F07B01D3
:101A0000EC010C811D81040F151FB8010E94C30C4D
:101A1000882351F3288139818C819D81B701820F00
:101A2000931F0E946B2C1D830C8381E0DECFCF932C
:101A3000DF93EC0188819981009711F00E94962232
:101A4000198218821D821C821B821A82DF91CF911B
:101A50000895CF93DF93EC01FB0101900020E9F79B
:101A60003197AF01461B570B0E94EB0C811103C04D
:101A7000CE010E94170DCE01DF91CF910895CF9333
:101A8000DF93EC01FB0144815581608171810E94EB
:101A9000EB0C811103C0CE010E94170DCE01DF9126
:101AA000CF910895EF92FF920F931F93CF93DF93FF
:101AB000EC017B018A01BA010E94C30C81110BC0A9
:101AC000CE010E94170DCE01DF91CF911F910F9192
:101AD000FF90EF9008951D830C83B7018881998151
:101AE0000E946B2CF0CFEF92FF920F931F93CF9336
:101AF000DF93CDB7DEB7A1970FB6F894DEBF0FBE68
:101B0000CDBF7C01CB01BA01F70111821082138293
:101B10001282158214828E010F5F1F4F22E044E073
:101B20000E94DC210097C9F0FC0101900020E9F738
:101B30003197AF01481B590BBC01C7010E94520DE0
:101B4000A1960FB6F894DEBF0FBECDBFDF91CF9147
:101B50001F910F91FF90EF900895C7010E94170DFC
:101B6000EFCFEF92FF920F931F93CF93DF93CDB7F9
:101B7000DEB762970FB6F894DEBF0FBECDBF8C0103
:101B8000CB01F80111821082138212821582148215
:101B90004AE09E012F5F3F4F7901B9010E944A231D
:101BA000F70101900020E9F73197AF014E195F0965
:101BB000B701C8010E94520D62960FB6F894DEBFBD
:101BC0000FBECDBFDF91CF911F910F91FF90EF908E
:101BD0000895FB01DC0111961C921E9213961C9233
:101BE0001E92129715961C921E92149786179707AD
:101BF00049F0608171816115710521F04481558141
:101C00000C94520D0895FC011182108213821282ED
:101C1000158214826115710551F0FB0101900020BD
:101C2000E9F73197AF01461B570B0C94520D0895FD
:101C3000FC0180819181009711F00C949622089507
:101C40000F931F93CF93DF93EC01FB0101900020D2
:101C5000E9F78F01061B170B8A819B81A801480FAA
:101C6000591F2C813D812417350768F0288139815F
:101C7000A801820F931F0E94592C4A815B81400F5B
:101C8000511F5B834A83DF91CF911F910F9108957C
:101C90000F931F93CF93DF93CDB7DEB762970FB645
:101CA000F894DEBF0FBECDBF8C01CB014AE0BE0170
:101CB0006F5F7F4F0E944A23BE016F5F7F4FC80155
:101CC0000E94200E62960FB6F894DEBF0FBECDBF05
:101CD000DF91CF911F910F910895AF92BF92CF9254
:101CE000DF92EF92FF920F931F93CF93DF93CDB7C5
:101CF000DEB7C75AD1090FB6F894DEBF0FBECDBF0D
:101D00005C0147E650E061E773E0CE0101960E9476
:101D10004123D12CC12CCE0188599F4F7C0107E66D
:101D200010E09E012F5F3F4F50E040E061E1C501B0
:101D30000E94C013C955DF4F0FB6F894DEBF0FBE27
:101D4000CDBFDF91CF911F910F91FF90EF90DF906A
:101D5000CF90BF90AF9008953F924F925F926F9255
:101D60007F928F929F92AF92BF92CF92DF92EF922B
:101D7000FF920F931F93CF93DF93CDB7DEB7A39757
:101D80000FB6F894DEBF0FBECDBF5C012DB73EB7D6
:101D90003BA32AA360E070E0CB010E948E07D5012F
:101DA00057968D919C915897912C029709F4F2C304
:101DB00056968C9156978F5F56968C93569754965D
:101DC0002D913C915597232B19F099249394DBC3C3
:101DD0008330D8F7ED91FC918281882309F4B8C350
:101DE000FE0131963F0140E1442E512CD501ED9189
:101DF000FC9180819181DC01ED91FC910084F18561
:101E0000E02D1995181619060CF0A2C345E050E014
:101E1000BE01695E7F4FF501808191810E94CD07EF
:101E2000009721F3059709F04AC0888D998D98276E
:101E300089279827998F888F0A8D1B8D1027012756
:101E400010271B8F0A8F892BD1F18F89811142C0F6
:101E50000E94C107D50116966D937D938D939C9337
:101E6000199757962D913C9158974A8D5B8D232B4E
:101E700061F5288D398D2130310539F5493051050D
:101E8000C1F0483C510519F044305105C1F4F50149
:101E900066877787808B918B21E030E0308F278BAE
:101EA000C5010E946D0E60E070E0CB010E948E07BC
:101EB0009DCF83E090E058969C938E935797D501E1
:101EC000ED91FC911282912C5EC34530510509F0D1
:101ED0008DCFF5CFF501808191810130F4E01F07AE
:101EE00040F0D50158961C921E925797FC01128221
:101EF0007DCF8DB69EB698012F5F3F4F4DB75EB731
:101F0000421B530B0FB6F8945EBF0FBE4DBFADB76B
:101F1000BEB711967D01A801BD010E94CD078017B3
:101F2000910709F06BC0EA8DFB8DEE0DFF1D10824D
:101F30000E94C107F50166837783808791878F8927
:101F4000813109F4F5C258F58630D1F08F3009F4AB
:101F500086C0823051F5D50157968D919C91589746
:101F6000892B71F4E1E0F0E05896FC93EE935797DB
:101F7000C5010E946D0E60E070E0CB010E948E07EB
:101F8000488D598DD12CC12CF12CE12C08EC10E09E
:101F900030E020E060E0C5010E94C01313C08D3125
:101FA000D1F260F4843109F45AC0D50158961C92DC
:101FB0001E925797ED91FC91128204C0893241F034
:101FC000873399F70FB6F8949EBE0FBE8DBE0ECF25
:101FD00084819581892B39F480E290E00E94FA2176
:101FE000F501958384838A8D9B8D8E0D9F1DFA82CA
:101FF000E9829C838B83E816F90630F00FB6F894DB
:102000009EBE0FBE8DBE5BCF40E250E0B701D50152
:1020100014968D919C910E94722CC3010E942809F4
:10202000D501ED91FC911197128258961C921E9247
:1020300057970E94C107DC01CB0188589341A10941
:10204000B109F50182879387A487B5878683978333
:10205000A087B18786879787A08BB18BB3CF888DF8
:10206000998DD50155969C938E935497EA8DFB8D4F
:10207000F9A3E8A36F01CE0CDF1CFD8EEC8EDF8E82
:10208000CE8EEC14FD0408F06FC1D7010D911C91A8
:10209000CE014C960E942809FC01808191818C150B
:1020A0009D0508F061C18C8D9D8DDC012C91213442
:1020B00009F047C001960E94232336E3332E380EE1
:1020C00040970CF443C00637B2E71B0709F4E7C199
:1020D00008F045C30136F2E71F0709F42BC30436A5
:1020E00022E7120709F041C033243A947A8A698AB8
:1020F0001C8A1B8A5E8A4D8A67EF72E0CE01419688
:102100000E94200E632D70E0CE0141960E94480E81
:10211000832D0E94D606BC01CE0141960E94480E36
:102120000B891C890150110929893A89D12CC12CAC
:10213000F12CE12C50E040E064E1C5010E94C013A5
:1021400013C1CE014C960E943B09382E0637B2E7E8
:102150001B0709F4A6C1D8F40136F2E71F0709F4FA
:10216000A9C0043622E7120709F200371D4609F418
:1021700066C0D50154964D915C91D12CC12CF12CA7
:10218000E12C02E010E030E020E060E0D6CF043641
:1021900047E7140709F473C0063757E7150709F432
:1021A0009AC10136174729F7CE014C960E9428099B
:1021B000DC018D919C918C159D0508F0D5C061E0E6
:1021C000832D0E942D07CE014C960E943B098C0165
:1021D00061E0832D0E942D070115110509F465C0EA
:1021E0000F3F110509F09AC061E060C0CE014C9626
:1021F0000E943B09F82ECE014C960E9428090C8DB6
:102200001D8D69EE72E0C8010E94622C60E0892B8E
:1022100079F06CEE72E0C8010E94622C892B39F0D3
:1022200060EF72E0C8010E94622C892BE9F461E042
:102230008F2D0E942D07CE014C960E9428098C8D6F
:102240009D8D8C159D0508F08FC0DC012C912134EB
:1022500069F601960E94232326E3F22EF80E40979A
:1022600054F2FF24FA94C7CF64EF72E0C8010E94D1
:10227000622C892B01F762E0DBCF33243A94CE0144
:102280004C960E942809FC01808191818C159D0546
:1022900008F06AC061E0832D0E942D07CE014C96A4
:1022A0000E943B0961E0892B09F460E0832D0E94C4
:1022B000FF065AC07A8A698A1C8A1B8A5E8A4D8AFE
:1022C0006AEF72E0CE0141960E94200E632D70E00D
:1022D000CE0141960E94480EF5E3F31510F42AEC66
:1022E000320E90917B00832D8870977F892B80938D
:1022F0007B00832D8770806480937C0080917A00BE
:10230000806480937A0080917A0086FDFCCF809172
:10231000780060917900762F682FFECEE32DF0E0F3
:10232000E75CFA4FE491E150E23108F0B3C0F0E02D
:102330008827E256FE4E8F4F0C94682BB011B811CF
:10234000BD11C711D1114A12DB11E311EB11F511C7
:10235000FF110912181222124A122C1236124012C0
:1023600084B5806884BD07BDF501158A148A2ACE1C
:1023700084B5806284BD08BDF7CF809180008068FD
:10238000809380001093890000938800EDCF8091A6
:10239000800080628093800010938B0000938A00FD
:1023A000E3CF8091800088608093800010938D003F
:1023B00000938C00D9CF8091B00080688093B000EA
:1023C0000093B300D1CF8091B00080628093B000C1
:1023D0000093B400C9CF80919000806880939000F2
:1023E0001093990000939800BFCF80919000806275
:1023F0008093900010939B0000939A00B5CF80913A
:10240000900088608093900010939D0000939C0042
:10241000ABCF8091A00080688093A0008091A00045
:102420008F7B8093A0001093A9000093A8009CCFFD
:102430008091A00080628093A0001093AB00009375
:10244000AA0092CF8091A00088608093A000109392
:10245000AD000093AC0088CF80912001806880930C
:10246000200110932901009328017ECF8091200143
:1024700080628093200110932B0100932A0174CF76
:102480008091200188608093200110932D0100939A
:102490002C016ACF003811050CF0A6CE06CF3324EC
:1024A0003A94398237FC60CFE32DF0E0EE0FFF1F46
:1024B000E158FA4F259134912115310509F454CF93
:1024C000B4E02C313B0709F44FCFC301F901199552
:1024D0004BCF33243A94CE014C960E9428092C8D80
:1024E0003D8DC9018E199F0948A159A1481B590B5F
:1024F0003A8329835C834B835E834D83398A37FC1F
:1025000033CFE32DF0E0EE0FFF1FE158F94F259197
:1025100034912115310509F427CF54E02B313507CB
:1025200009F422CFB301CE014196F90119951CCFD0
:102530008A8D9B8D8E0D9F1DFA82E9829C838B83F1
:10254000E816F90608F03ECDC3010E9428093ACDED
:102550000E94C1072B013C01F50100811181D801C6
:1025600012969C9012978789908D8130910509F081
:102570008AC091102FC046865786608A718A108E55
:10258000178A12961C92D50156968C9156978150B7
:1025900056968C93892DAAA1BBA10FB6F894BEBF05
:1025A0000FBEADBFA3960FB6F894DEBF0FBECDBF72
:1025B000DF91CF911F910F91FF90EF90DF90CF901F
:1025C000BF90AF909F908F907F906F905F904F9053
:1025D0003F90089586819781A085B185A3019201DE
:1025E000281B390B4A0B5B0BDA01C90189333AE42A
:1025F0009307A105B10530F0108E178AD801129605
:102600001C9261CC81319742A105B10598F4F50186
:1026100082859385A485B585A3019201281B390B7A
:102620004A0B5B0BDA01C90181319742A105B10563
:1026300008F4CBCBF50186859785A089B189A301E4
:102640009201281B390B4A0B5B0BDA01C901893B4C
:102650009B40A105B10508F4B8CBD12CC12CF12CBD
:10266000E12C10E000E030E020E050E040E066E0E7
:10267000C5010E94C013D5011E964D925D926D92C8
:102680007C92519780CF892B09F09FCB86859785C7
:10269000A089B189481A590A6A0A7B0A992079F0F7
:1026A000F9EB4F16FBE05F066104710408F48DCB73
:1026B000D80112961C92F501108E178A04CCF9E805
:1026C0004F16F3E15F066104710408F47ECBD80174
:1026D0008D919C91DC01ED91FC910680F781E02DBC
:1026E000199581E0F801828381E090E0D50153964D
:1026F0009C938E93529712962D913C91F9010190E3
:102700000020E9F731978F01021B130BD12CC12C4C
:10271000F12CE12C41E050E06DE1C5010E94C013B5
:10272000F50182859385A485B58586879787A08BDB
:10273000B18B4BCB7A8A698A1C8A1B8A5E8A4D8A46
:102740006AEF72E0CE0141960E94200E6FEF70E0BA
:10275000CE0141960E94480E33243A94C0CD0436EF
:1027600047E7140709F489CD063757E7150709F439
:10277000B0CE0136174709F0FCCC33243A9414CD7F
:102780002F923F924F925F926F927F928F929F9281
:10279000AF92BF92CF92DF92EF92FF920F931F936F
:1027A000CF93DF9300D000D0CDB7DEB75C016E834E
:1027B0004A013901DC01ED91FC918281882309F401
:1027C000D2C0862F8D7F09F406C1663009F403C19B
:1027D0006D3109F400C1F5018789908D019709F0E9
:1027E000C2C0452BB9F4D50154968D909C90559755
:1027F0008114910479F452968D919C91539701968E
:1028000009F4CAC053969C938E935297D501529661
:102810008D909C908E818C50893090F5F501828549
:102820009385A485B5854681578160857185481754
:1028300059076A077B0710F4AC01BD011A012B018F
:10284000F2E42F0E311C411C511C0E94C107A20151
:102850009101261B370B480B590BDA01C901B7FD53
:10286000A1C0C5010E94AC0E0E94C107A201910146
:10287000261B370B480B590BDA01C901B7FFF1CF03
:10288000C80105966114710411F485E090E0512CA3
:10289000412CE114F10409F02601480E591EBE81B5
:1028A000B9839824892498249B828A82C8018C0D3C
:1028B0009D1D9827892798279D838C83D501ED91AD
:1028C000FC9180819181DC01ED91FC910280F3818A
:1028D000E02D45E050E0BE016F5F7F4F199560E04D
:1028E00070E0CB010E948E07BE81BB2309F466C055
:1028F0000115110509F45FC0D501ED91FC918081AE
:102900009181DC01ED91FC910280F381E02DA80121
:10291000B30119950B5F1F4F60E070E0CB010E947F
:102920008E07C114D104A9F0D501ED91FC918081ED
:102930009181DC01ED91FC910280F381E02DA601F3
:10294000B70119950C0D1D1D60E070E0CB010E94D0
:102950008E0704151505A9F1F501108E178A01904F
:10296000F081E02D128226960FB6F894DEBF0FBEDE
:10297000CDBFDF91CF911F910F91FF90EF90DF902E
:10298000CF90BF90AF909F908F907F906F905F900F
:102990004F903F902F90089581E090E0F501938B48
:1029A000828B34CFD50156968C91811169CFC501A8
:1029B0000E94AC0E65CF05E010E0B3CF05E010E05B
:1029C000C8CF0E94C107D5011A966D937D938D9350
:1029D0009C931D97C8CF8114910409F051CF03CF68
:1029E000CF92DF92EF92FF920F931F93CF93DF93DB
:1029F000CDB7DEB7C650D4400FB6F894DEBF0FBED9
:102A0000CDBF8C01CE010196CF5FDB4F99838883C8
:102A1000C150D440CD5FDB4F19821882C350D440DF
:102A200080E094E0CB5FDB4F99838883C550D4402E
:102A30006DEF72E0CE018F5F9B4F0E94200EB801B8
:102A4000CE018F5F9B4F0E94480E60E073E0CE0185
:102A50008F5F9B4F0E94200ECD5FDB4F0881198155
:102A6000C350D44001501109CF5FDB4F2881398119
:102A7000C150D440D12CC12CF12CE12C50E040E0CD
:102A800064E188E496E00E94C013CA5FDB4F0FB692
:102A9000F894DEBF0FBECDBFDF91CF911F910F9194
:102AA000FF90EF90DF90CF900895CF92DF92EF925A
:102AB000FF920F931F93CF93DF93CDB7DEB7C6502E
:102AC000D4400FB6F894DEBF0FBECDBF7C01162FE9
:102AD000CE010196CF5FDB4F99838883C150D440EC
:102AE000CD5FDB4F19821882C350D44080E094E060
:102AF000CB5FDB4F99838883C550D4406DEF72E084
:102B0000CE018F5F9B4F0E94200EB701CE018F5FD9
:102B10009B4F0E94480E612F70E0CE018F5F9B4F4C
:102B20000E94480ECD5FDB4F08811981C350D4400D
:102B300001501109CF5FDB4F28813981C150D4404A
:102B4000D12CC12CF12CE12C50E040E064E188E470
:102B500096E00E94C013CA5FDB4F0FB6F894DEBF49
:102B60000FBECDBFDF91CF911F910F91FF90EF90DE
:102B7000DF90CF900895FC011182808160E090E0A9
:102B80000C945515CF92DF92EF92FF920F931F9303
:102B9000CF93DF93CDB7DEB7C650D4400FB6F894CD
:102BA000DEBF0FBECDBF8B019E012F5F3F4FCF5FBA
:102BB000DB4F39832883C150D440CD5FDB4F19826E
:102BC0001882C350D44020E034E0CB5FDB4F398320
:102BD0002883C550D440BC01CE018F5F9B4F0E941B
:102BE000200EF801608171816115710509F041C005
:102BF000CF5FDB4FE881F981C150D440CD5FDB4F1F
:102C000088819981C350D4409C012F5F3F4FCD5F95
:102C1000DB4F39832883C350D440E80FF91F10825B
:102C2000CD5FDB4F08811981C350D4400150110999
:102C3000CF5FDB4F28813981C150D440D12CC12CCA
:102C4000F12CE12C50E040E06DE088E496E00E9439
:102C5000C013CA5FDB4F0FB6F894DEBF0FBECDBF07
:102C6000DF91CF911F910F91FF90EF90DF90CF9068
:102C70000895CE018F5F9B4F0E94200ED1CF4F92BF
:102C80005F926F927F92AF92BF92CF92DF92EF925C
:102C9000FF920F931F93CF93DF93CDB7DEB76E975D
:102CA0000FB6F894DEBF0FBECDBF6C015B01BA0159
:102CB000A901CE0143960E94730DB801A701CE0170
:102CC0000D960E94730DB501CE0107960E94B10DBD
:102CD00064E073E0CE0101960E94030EBE01695FBD
:102CE0007F4FCE0101960E943F0D64E173E00E9488
:102CF000290DBE01635F7F4F0E943F0D62E273E0CA
:102D00000E94290DBE016D5E7F4F0E943F0DBC01E8
:102D1000CE0149960E94E90DCE0101960E94180E3F
:102D2000CE0107960E94180ECE010D960E94180E35
:102D3000CE0143960E94180EBE01675E7F4F8DE262
:102D400093E0CD2811F082E493E00E94C215CE01F9
:102D500049960E94180E6E960FB6F894DEBF0FBE0D
:102D6000CDBFDF91CF911F910F91FF90EF90DF903A
:102D7000CF90BF90AF907F906F905F904F900895ED
:102D8000AF92BF92CF92DF92EF92FF920F931F9379
:102D9000CF93DF93CDB7DEB72E970FB6F894DEBF93
:102DA0000FBECDBF5C0125E4A20EB11CF501C080B1
:102DB000CC2051F17C01FC01048110E0CE01019690
:102DC0009A8789871C861B8688E090E09E878D877E
:102DD0006DEF72E0CE0109960E94200EB801CE017F
:102DE00009960E94480ED12CF5E0EF0EF11C0B85E0
:102DF0001C8529853A8550E040E064E188E496E04E
:102E00000E94C013F50110822E960FB6F894DEBF13
:102E10000FBECDBFDF91CF911F910F91FF90EF902B
:102E2000DF90CF90BF90AF9008950F931F93CF93F3
:102E3000DF9300D000D0CDB7DEB7FB010081118158
:102E400080912F0490913004892B91F4C8010E9445
:102E500023239093300480932F0426960FB6F89482
:102E6000DEBF0FBECDBFDF91CF911F910F910895AF
:102E700020E030E0A901609127047091280480913E
:102E8000290490912A040E945727B80181111BC080
:102E9000CE0101960E94030E89819A81009779F0F4
:102EA0000E941F23609327047093280480932904B1
:102EB00090932A04CE0101960E94180ECECF60E0B6
:102EC00070E0CB01EFCFCE0101960E94030E898105
:102ED0009A81009759F00E941F2360932B047093EE
:102EE0002C0480932D0490932E04E4CF60E070E0D6
:102EF000CB01F3CF4F925F926F927F928F929F920E
:102F0000AF92BF92CF92DF92EF92FF920F931F93F7
:102F1000CF93DF93CDB7DEB72C970FB6F894DEBF13
:102F20000FBECDBF2B013C0129873A874B875C87B9
:102F3000E982FA820B831C83AC019B01C801B701B3
:102F40000E94982825E33AEF4EE85CE30E94BD27F3
:102F500020E030E040E05FE30E94BD270E94972A16
:102F60006D837E838F83988725E33AEF4EE85CE399
:102F7000C301B2010E94BD270E9477292B013C01A9
:102F800025E33AEF4EE85CE3C801B7010E94BD2794
:102F90000E94772969837A838B839C8329853A856C
:102FA0004B855C85C601B5010E94982825E33AEF60
:102FB0004EE85CE30E94BD2720E030E040E05FE3A4
:102FC0000E94BD270E94972A4B015C0129813A810A
:102FD0004B815C81C301B2010E94BD27A501940110
:102FE0000E94BD27A50194010E94BD274B015C01F1
:102FF0002D813E814F815885CA01B9010E94BD27AC
:103000009B01AC01C501B4010E9499286B017C01B0
:10301000AC019B0160E070E080E89FE30E9498288B
:103020000E94A52A4B015C01C701B6010E94A52A96
:10303000A50194010E9418299B01AC010E949928C6
:1030400020E038E147EC55E40E94BD276B017C018C
:103050000E94100B81E00E94020B6AE473E080E39F
:1030600096E00E94260922E0B701A60180E396E0DF
:103070000E94800964E670E080E090E00E948E0784
:10308000C701B6012C960FB6F894DEBF0FBECDBFB8
:10309000DF91CF911F910F91FF90EF90DF90CF9034
:1030A000BF90AF909F908F907F906F905F904F9068
:1030B00008951F920F920FB60F9211240BB60F9224
:1030C0002F933F934F935F936F937F938F939F9330
:1030D000AF93BF93EF93FF9389E394E00E94B3050E
:1030E000FF91EF91BF91AF919F918F917F916F91E0
:1030F0005F914F913F912F910F900BBE0F900FBE9C
:103100000F901F9018951F920F920FB60F921124D7
:103110000BB60F922F938F939F93EF93FF93E091B2
:103120004904F0914A048081E0914F04F0915004E9
:1031300082FD1DC09081809152048F5F8F7320911A
:103140005304821741F0E0915204F0E0E75CFB4F3A
:10315000958F80935204FF91EF919F918F912F91C2
:103160000F900BBE0F900FBE0F901F90189580818F
:10317000F2CF1F920F920FB60F9211240BB60F923F
:103180002F933F934F935F936F937F938F939F936F
:10319000AF93BF93EF93FF9386ED94E00E94B30546
:1031A000FF91EF91BF91AF919F918F917F916F911F
:1031B0005F914F913F912F910F900BBE0F900FBEDB
:1031C0000F901F9018951F920F920FB60F92112417
:1031D0000BB60F922F938F939F93EF93FF93E091F2
:1031E000E604F091E7048081E091EC04F091ED04B5
:1031F00082FD1DC090818091EF048F5F8F732091BD
:10320000F004821741F0E091EF04F0E0EA52FB4F46
:10321000958F8093EF04FF91EF919F918F912F9164
:103220000F900BBE0F900FBE0F901F9018958081CE
:10323000F2CF1F920F920FB60F9211242F933F934C
:103240008F939F93AF93BF9380911F04909120041D
:10325000A0912104B091220430911E0423E0230F99
:103260002D3758F50196A11DB11D20931E048093A2
:103270001F0490932004A0932104B0932204809112
:10328000230490912404A0912504B0912604019672
:10329000A11DB11D8093230490932404A0932504C1
:1032A000B0932604BF91AF919F918F913F912F9141
:1032B0000F900FBE0F901F90189526E8230F0296CF
:1032C000A11DB11DD2CFE9E3F4E01382128248EED2
:1032D00053E060E070E044835583668377838BE23C
:1032E00092E0918380832DEC30E0358724872CECAD
:1032F00030E03787268728EC30E0318B208B29ECB3
:1033000030E0338B228B2AEC30E0358B248B2EEC93
:1033100030E0378B268B118E128E138E148EE6EDD5
:10332000F4E013821282448355836683778391830A
:10333000808385EC90E09587848784EC90E0978784
:10334000868780EC90E0918B808B81EC90E0938B72
:10335000828B82EC90E0958B848B86EC90E0978B4F
:10336000868B118E128E138E148EA1E6B6E0119606
:103370001C921E9212961C921297E8E4F6E0B1831A
:10338000A0831382128215821482168217821086FD
:103390001186128613861486158616861786108A5D
:1033A000118A138A128A158A148A168A108E178A2D
:1033B000E0E3F6E0138212828DE392E09183808352
:1033C00088E184838FEF858389E186838AE187831F
:1033D0008BE180878CE181878DE18287138614865B
:1033E00015861686178681E00E941C0CEDEBF5E031
:1033F0004FEF5FEFBA01408351836283738310867E
:103400001186128613868FEF99ECAAE9BBE3808BB5
:10341000918BA28BB38B808F918FA28FB38F80A360
:1034200091A3A2A3B3A380A791A7A2A7B3A780ABA0
:1034300091ABA2ABB3AB40AF51AF62AF73AF8FEF05
:1034400090E09093FE058093FD0540930106509314
:103450000206609303067093040640930906509396
:103460000A0660930B0670930C06109211061092D8
:10347000120682E080932206109223061092240600
:103480001092250610922606109227061092280602
:103490001092290610922B0610922A0610922D06E1
:1034A00010922C0610921306EBEBF5E091E090835E
:1034B0001182E9EBF5E080831182E3E7F5E0148205
:1034C0001382128289E492E0918380831092B8057E
:1034D0000895CF93DF93CDB7DEB7AC970FB6F894CE
:1034E000DEBF0FBECDBF789484B5826084BD84B545
:1034F000816084BD85B5826085BD85B5816085BDEF
:1035000080916E00816080936E00109281008091A6
:10351000810082608093810080918100816080932E
:103520008100809180008160809380008091B10053
:1035300084608093B1008091B00081608093B0007E
:1035400080919100826080939100809191008160D0
:103550008093910080919000816080939000809191
:10356000A10082608093A1008091A100816080937E
:10357000A1008091A00081608093A0008091210132
:1035800082608093210180912101816080932101DB
:103590008091200181608093200180917A00846075
:1035A00080937A0080917A00826080937A00809183
:1035B0007A00816080937A0080917A00806880939D
:1035C0007A001092C10086ED94E00E94F40389E332
:1035D00094E00E94F40360E086E30E942D0761E01E
:1035E00087E30E942D0762E086E10E942D0782E0BA
:1035F0000E941C0C80E00E94020B64E573E080E3F3
:1036000096E00E94260981E00E94020B60E673E0CA
:1036100080E396E00E94260968EE73E080E090E087
:103620000E948E070E94100B0E94180B80E092E00F
:1036300090934B0680934A060E94C107DC01CB01A0
:1036400088589341A109B10980935206909353067B
:10365000A0935406B093550680934E0690934F0660
:10366000A0935006B0935106809356069093570648
:10367000A0935806B0935906E0914806F091490688
:1036800086ED94E091838083E0914806F0914906AD
:1036900012821092600610925F060E94C1076B01B1
:1036A0007C0180915F0690916006019781F00E94F5
:1036B000C1076C197D098E099F0968327342810523
:1036C000910528F488E496E00E94AC0EEACF809140
:1036D0005F06909160060197B9F661E087E10E946C
:1036E0002D0760E087E10E94FF0683E795E00E94D6
:1036F000C0168091770590E00E94F0148BEB95E066
:103700000E94BB1589EB95E00E94BB1584E295E011
:103710000E948708FF24F39411E001E088E496E01A
:103720000E94AC0E002341F08FEF94E00E948708C6
:1037300083E795E00E94C01680912F049091300499
:10374000892B09F435C3112341F089ED94E00E94DF
:10375000870883E795E00E94C01620E030E0A901C9
:1037600060912704709128048091290490912A0483
:103770000E945727882309F41AC3FF2041F084EBE5
:1037800094E00E94870883E795E00E94C01680902D
:103790002B0490902C04A0902D04B0902E0420E0D7
:1037A00030E0A901C501B4010E945727882309F41C
:1037B000FDC2B501A401CE01019698A38F8F0E948E
:1037C000730D409127045091280460912904709151
:1037D0002A041E0197E0290E311CC1010E94730DBD
:1037E00060912F0470913004CE010D960E94B10DAE
:1037F0007E01E3E1EE0EF11C6EE673E0C7010E946C
:10380000030EBE01635F7F4FC7010E943F0D67E853
:1038100073E00E94290DB1010E943F0D62E273E046
:103820000E94290DBE016F5F7F4F0E943F0D8E01E8
:10383000075E1F4FBC01C8010E94E90DC7010E942D
:10384000180ECE010D960E94180EC1010E94180E8E
:10385000CE0101960E94180EB80183E795E00E9400
:10386000090983E795E00E94C016C8010E94180E5E
:10387000EBA6FCA609A71AA7FF8DFBA328A12CA3E2
:103880002DA23EA20E940F0800913504109136042B
:103890002091370430913804601B710B820B930B1D
:1038A0000E945E272091310430913204409133040C
:1038B000509134040E947C290E94EE294B0178A784
:1038C0006FA36CE073E089E394E00E942609B401E1
:1038D00089E394E00E944A0964E973E089E394E093
:1038E0000E94F50880E00E94020B67E973E080E324
:1038F00096E00E942609B40180E396E00E944A09FE
:1039000064E973E080E396E00E94260986E10E9464
:10391000D606892BA1F41092310410923204109231
:10392000330410923404109235041092360410922D
:103930003704109238040E94180B18A61FA20E9488
:10394000C1072B013C01812C0E94C1076419750934
:1039500086099709683E73408105910508F406C3FE
:10396000882009F40DC58090CD059090CE05A090DB
:10397000CF05B090D0054090D5055090D605609009
:10398000D7057090D8058091090690910A06A091FC
:103990000B06B0910C068F3F9F4FAF4FBF4F11F0FA
:1039A0000E94C107FFEF8F16F9EC9F06FAE9AF06F8
:1039B000FBE3BF0609F4D7C4C501B4010E945E272A
:1039C00020E034E244E759E40E947C294B0189A3BA
:1039D0009AA3C301B2010E945E2720E034E244E7CB
:1039E00059E40E947C292B013C016CE271E080E0EB
:1039F00090E00E948E076DEA73E089E394E00E94F4
:103A0000260920E030E04AE754E4B40189A19AA1F4
:103A10000E945727E0E030E090E0882321F0E82D75
:103A2000392D99A18AA126E04E2F532F692F782F87
:103A300089E394E00E94800969EB73E089E394E0F4
:103A40000E94260920E030E04AE754E4B201C301B5
:103A50000E945727E0E030E090E0882321F0E42D39
:103A6000352D962D872D26E04E2F532F692F782F39
:103A700089E394E00E94800968EC70E080E090E0C7
:103A80000E948E076AE189E394E00E942E0563E5B7
:103A900072E089E394E00E94780868EC70E080E0CE
:103AA00090E00E948E0764E670E080E090E00E9463
:103AB0008E0788E496E00E94AC0E80912F049091CE
:103AC0003004EFA1F8A5E81BF90BCF01F7FF03C005
:103AD0009195819591090B970CF45BC47201830158
:103AE000940149A15AA16FA178A590E080E00E94BD
:103AF0003F168FEF8093BC058091BB056FEF90E080
:103B00000E94551540912B0450912C0460912D0476
:103B100070912E04CE0101960E94730D40912704EE
:103B2000509128046091290470912A04C1010E94D7
:103B3000730D60912F0470913004CE010D960E9498
:103B4000B10D64E073E08BA59CA50E94030EBE013D
:103B5000635F7F4F8BA59CA50E943F0D67E873E0D4
:103B60000E94290DB1010E943F0D62E273E00E94A4
:103B7000290DBE016F5F7F4F0E943F0DBC0189A5DB
:103B80009AA50E94E90D8BA59CA50E94180ECE0156
:103B90000D960E94180EC1010E94180ECE010196CA
:103BA0000E94180E69A57AA583E795E00E9409098D
:103BB00087E10E94D606892B61F469A57AA583E77F
:103BC00095E00E94090967EC73E083E795E00E94A5
:103BD000F50883E795E00E94C01689A59AA50E9482
:103BE000180EA0902704B0902804C0902904D0900B
:103BF0002A04E0902B04F0902C0400912D041091E5
:103C00002E049201A301B40189A19AA10E947A17FE
:103C1000AB01BC018BA19CA10E94730D6BEE73E004
:103C20008DA19EA10E94030E6BA17CA18DA19EA1DE
:103C30000E943F0DBC0189E394E00E9409098DA117
:103C40009EA10E94180E8BA19CA10E94180EA0900C
:103C50002704B0902804C0902904D0902A04E09052
:103C60002B04F0902C0400912D0410912E0492014D
:103C7000A301B40189A19AA10E947A1720E030E043
:103C800040E85FE30E94572787FF88C320E030E0C9
:103C9000A901B40189A19AA10E945727882309F498
:103CA0007DC320E030E0A901B201C3010E94572783
:103CB000882309F473C372018301940149A15AA1B5
:103CC0006FA178A581E090E00E943F168FEF80936E
:103CD000BA058091B9056FEF90E00E9455154091AB
:103CE0002B0450912C0460912D0470912E048BA113
:103CF0009CA10E94730D409127045091280460916B
:103D0000290470912A048DA19EA10E94730D6091D7
:103D10002F0470913004CE010D960E94B10D64E025
:103D200073E0CE0143960E94030EBE01635F7F4F96
:103D3000CE0143960E943F0D67E873E00E94290D73
:103D40006DA17EA10E943F0D62E273E00E94290DE9
:103D50006BA17CA10E943F0DBC01CE0149960E943F
:103D6000E90DCE0143960E94180ECE010D960E94D9
:103D7000180E8DA19EA10E94180E8BA19CA10E94DD
:103D8000180EBE01675E7F4F83E795E00E94090928
:103D900065E074E083E795E00E94F50883E795E02D
:103DA0000E94C01690E080E00E94812CF12C10E06F
:103DB00000E0B4CC1A3209F405C11C3209F0BFC2CC
:103DC00080911106812780931106FCC08091230603
:103DD000F0E0ED5EF94F108290901206992009F400
:103DE0006AC120911306822F022E000C990B3FEB23
:103DF000320F363008F0EBC0C7978295807F9091E4
:103E00001406292F092E000C330B4FEB490F4630B7
:103E100008F0E5C027533109820F909111068913EC
:103E200040C190902506992009F4CFC080912A06C0
:103E300090912B06019690932B0680932A068091F1
:103E4000050690910606A0910706B091080680939A
:103E5000010690930206A0930306B0930406809196
:103E60000D0690910E06A0910F06B091100680935A
:103E7000090690930A06A0930B06B0930C06809156
:103E80002206882309F4B4C0813009F060C0809113
:103E9000C1059091C205A091C305B091C40580935E
:103EA000BD059093BE05A093BF05B093C00580915A
:103EB000C9059091CA05A091CB05B091CC0580931E
:103EC000C5059093C605A093C705B093C80580911A
:103ED000D1059091D205A091D305B091D4058093DE
:103EE000CD059093CE05A093CF05B093D0058091DA
:103EF000D9059091DA05A091DB05B091DC0580939E
:103F0000D5059093D605A093D705B093D805809199
:103F1000E9059091EA05A091EB05B091EC0580933D
:103F2000E5059093E605A093E705B093E805809139
:103F3000F1059091F205A091F305B091F4058093FD
:103F4000ED059093EE05A093EF05B093F0058091F9
:103F500023068F5F809323061092240681E01A3295
:103F600009F080E0809312069110892C89E394E097
:103F70000E949305892B09F4E7CC89E394E00E9421
:103F80007105182F8091260690912706A09128068A
:103F9000B09129060196A11DB11D8093260690932C
:103FA0002706A0932806B0932906143209F4B9C154
:103FB000E091240615320CF0FDCE1A3019F01D30B8
:103FC00009F0BDC1EF3008F401CF912CC0CF2156CC
:103FD000263018F48755910910CFC0970ECF91560F
:103FE000963018F42755310917CF2053310914CFD3
:103FF0008091E1059091E205A091E305B091E4057F
:104000008093DD059093DE05A093DF05B093E00576
:104010008091C1059091C205A091C305B091C405DE
:104020008093BD059093BE05A093BF05B093C005D6
:104030008091D1059091D205A091D305B091D4057E
:104040008093CD059093CE05A093CF05B093D00576
:104050008091D9059091DA05A091DB05B091DC053E
:104060008093D5059093D605A093D705B093D80536
:104070008091FF05909100069093FE058093FD05C9
:104080008091F9059091FA05A091FB05B091FC058E
:104090008093F5059093F605A093F705B093F80586
:1040A00056CF80912C0690912D06019690932D0667
:1040B00080932C068ACF81111DC043E156E0A1EA0E
:1040C000B3E0CA01FC012191CF01222309F46DC1A3
:1040D0003D912317B9F3A7EAB3E0FA018191AF014B
:1040E000882309F466C19D918917B9F322E02093D2
:1040F00022062DCFE0912206E23009F466CF90919E
:104100001306992309F461CF20E2E29FF001112404
:10411000E82B3197E932F10508F019CF8827EC56E2
:10412000FF4D8F4F0C94682BDA20F5200A212521B2
:1041300030216A2171217B218621A71FA71FA71F7C
:10414000A71FA71FA71FA71FA71FA71FA71FA71F3F
:10415000A71FA71FA71FA71FA71FA71FA71FA71F2F
:10416000A71FA71FA71FA71FDA20EF20F5200A21EE
:10417000252130214B215621BD20E3E1F6E020E04E
:1041800030E0A901019180ED800F8A3008F099C0DC
:10419000AAE0B0E00E947E28202F000F330B440BD2
:1041A000550B260F371F481F591F2053310941094E
:1041B0005109E8CF0E941D046093C1057093C205A8
:1041C0008093C3059093C4050E94C10760930506C0
:1041D000709306068093070690930806B8CE81E098
:1041E000913409F47BC080E079C00E948F04609311
:1041F000D1057093D2058093D3059093D4050E9486
:10420000C10760930D0670930E0680930F0690937E
:1042100010069DCE933509F0D8CE8091D1059091AE
:10422000D205A091D305B091D405B095A0959095F5
:1042300081959F4FAF4FBF4F8093D1059093D2058B
:10424000A093D305B093D40582CE0E948F046093CF
:10425000D9057093DA058093DB059093DC0577CE62
:10426000973509F0B2CE8091D9059091DA05A091E9
:10427000DB05B091DC05B095A095909581959F4F99
:10428000AF4FBF4F8093D9059093DA05A093DB051C
:10429000B093DC055CCE0E941D046093E905709329
:1042A000EA058093EB059093EC0551CE0E941D0426
:1042B0006093F1057093F2058093F3059093F405F4
:1042C00046CE2093C9053093CA054093CB05509341
:1042D000CC053DCE81E091330CF485CF809325064B
:1042E00036CE83E196E00E9423239927909300061F
:1042F0008093FF052CCE0E941D046093F9057093F6
:10430000FA058093FB059093FC0521CE0E941D04C5
:104310006093E1057093E2058093E3059093E405D3
:1043200016CE10922406109223061092110632E047
:1043300030932206109212061092250617CEEE3008
:1043400040F481E08E0F80932406F0E0ED5EF94F9B
:10435000108380911206811109CE809111061827D1
:104360001093110603CE812C912C2AE729A334E463
:104370003AA3412C512C8AE7682E94E4792E35CB50
:10438000412C512C612C712C812C912C19A21AA238
:1043900090CB8BEB95E00E94BB1523CC89EB95E08D
:1043A0000E94BB150E9442066DCAF1E0F0932206FE
:1043B000CECD10922206CBCDEF920F931F93CF93C9
:1043C000DF93E80134E047FD34E1042E000C550B87
:1043D00057FF03C0519541955109E32E022F242F19
:1043E000AE010E947723CE01DF91CF911F910F91F3
:1043F000EF9008950F931F93CF93DF938230910531
:1044000010F482E090E0E0916606F091670630E0FB
:1044100020E0B0E0A0E0309799F42115310509F4CF
:104420004AC0281B390B24303105D8F58A819B817D
:104430006115710589F1FB0193838283FE0111C02F
:10444000408151810281138148175907E0F04817D4
:10445000590799F4109761F012960C9312971396DE
:104460001C933296CF01DF91CF911F910F91089548
:104470000093660610936706F4CF2115310551F0BD
:104480004217530738F0A901DB019A01BD01DF0192
:10449000F801C1CFEF01F9CF9093670680936606CC
:1044A000CDCFFE01E20FF31F81939193225031098A
:1044B00039832883D7CF2091640630916506232B5A
:1044C00041F4209123023091240230936506209319
:1044D000640620912102309122022115310541F418
:1044E0002DB73EB74091250250912602241B350B73
:1044F000E0916406F0916506E217F307A0F42E1B25
:104500003F0B2817390778F0AC014E5F5F4F241737
:10451000350748F04E0F5F1F5093650640936406C1
:10452000819391939FCFF0E0E0E09CCFCF93DF9316
:104530000097E9F0FC01329713821282A09166067F
:10454000B0916706ED0130E020E01097A1F42081E2
:104550003181820F931F20916406309165062817E0
:10456000390709F061C0F0936506E0936406DF91B6
:10457000CF910895EA01CE17DF07E8F54A815B8104
:104580009E0141155105B1F7E901FB83EA83499189
:104590005991C40FD51FEC17FD0761F480819181FB
:1045A0000296840F951FE901998388838281938104
:1045B0009B838A83F0E0E0E012968D919C911397A3
:1045C0000097B9F52D913C911197CD010296820F7C
:1045D000931F20916406309165062817390739F634
:1045E000309751F51092670610926606B0936506F3
:1045F000A0936406BCCFD383C28340815181840FD2
:10460000951FC817D90761F44E5F5F4F8881998164
:10461000480F591F518340838A819B8193838283F2
:104620002115310509F0B0CFF0936706E0936606D7
:104630009ECFFD01DC01C0CF13821282D7CF662747
:1046400077270C94F024FC0188279927E89421917E
:104650002032E9F3293010F02E30C8F32B3241F02C
:104660002D3239F4689404C00E945523820F911DA5
:10467000219120532A30C0F31EF4909581959F4FCD
:104680000895FB01DC0102C005900D92415050409D
:10469000D8F70895BB274A3031F4992322F4BDE2BC
:1046A000909581959F4F0C945E237AE0979F902D73
:1046B000879F802D910D11240895BB27FB0155275D
:1046C000AA27880F991FAA1FA41710F0A41B83956F
:1046D0005051B9F7A05DAA3308F0A95DA1930097E6
:1046E00079F7B111B1931192CB010C9447278F92B6
:1046F0009F92AF92BF92CF92DF92EF92FF920F9371
:104700001F93CF93DF9300D000D000D0CDB7DEB79A
:104710006A01F22EB02E102FFBE3AF2EA01608F484
:104720001BE31F5F012F27E0AE014F5F5F4F0E9429
:104730004E26BC018981982F9970913009F44EC0A2
:104740009BE2E1FC04C09E2D9170E0FC49C05E2D0F
:104750005071E82FE87083FF55C084E0911101C0CB
:1047600083E0EF2DE81B8F1508F0E0E0D6018E2FD7
:1047700020E25523C9F1992329F0D6019C93C60163
:1047800001966C0196012D5F3F4FE2FE33C08EE42F
:10479000D6018C9391E411969C93119712968C9369
:1047A000D9018E2F90E281112AC0E20FF32FF11D63
:1047B00010828EEF9FEF29960FB6F894DEBF0FBEE2
:1047C000CDBFDF91CF911F910F91FF90EF90DF90C0
:1047D000CF90BF90AF909F908F9008959DE2B7CFFC
:1047E00090E2B5CF2D9381508111FCCFCE0ED11C1C
:1047F000E0E0C1CF8EE6D6018C9391E6CCCF9D93BD
:104800008150D1CF482F447082FF3DC084E0911188
:1048100001C083E08F1510F4EF2DE81BD6018E2F19
:1048200020E2552309F1992329F0D6019C93C60172
:1048300001966C0196012D5F3F4FE2FE1BC089E49B
:10484000D6018C938EE411968C93119786E4129680
:104850008C93D9018E2F90E2882309F4A6CF9D93E3
:104860008150FACF2D9381508111FCCFCE0ED11CF7
:10487000E0E0D9CF89E6D6018C938EE611968C9331
:10488000119786E6E4CF9B0177FF02C030E020E07D
:10489000A1E0B0E0911102C0B0E0A0E0F9013196D2
:1048A000AE0FBF1F8B2C912CBB2009F461C05401AB
:1048B000EFEFAE1ABE0AAA0DBB1DFA161B0619F0C1
:1048C00014F04F2D4A1B511188C0E3FC59C07601EA
:1048D000A42FB0E2A1114FC0C40ED11C992309F43A
:1048E0005BC040E0D6011196F60190836D0155231F
:1048F00009F448C0012F060F9A81582F507184FF88
:1049000003C0913309F4015010160CF047C0093070
:1049100008F008E0EEE2FE2E5B01A01AB108850166
:104920009194819491082F3F320729F4D601FC928B
:10493000F60131966F016217730794F1021713079E
:104940007CF5DB01A21BB30BAA24A394B12CAC0E03
:10495000BD1EAA0DBB1D11968C9121503109D601A7
:10496000119628153905F4F0F60180836D01DBCF2F
:10497000B12CA12CA0CFF701B1937F01A150AACFF8
:104980009111B0CFD601942F50E302C05D939150A6
:104990009111FCCFC40ED11C40E0ACCF01E0BACFE6
:1049A00080E3DBCF6217730731F4963388F49533D5
:1049B00011F4552369F0F6018083FD01842F90E204
:1049C000811108C0A40FB11D1C9290E080E0F3CECD
:1049D00081E3F1CF91938150F3CF911183CF8ACFAF
:1049E0008F929F92AF92BF92CF92DF92EF92FF92FF
:1049F0000F931F93CF93DF935C017B0161157105CA
:104A000019F0DB018D939C9385010F5F1F4FF5011A
:104A1000D0818D2F90E00E9426276C01892BB9F55B
:104A2000DD32B9F50F5F1F4FD5011196DC91C1E062
:104A30005801F1E0AF1AB10843E050E06CE372E0D6
:104A4000C5010E942F27892B69F5680182E0C80EF5
:104A5000D11C45E050E067E372E0C6010E942F27B9
:104A6000892B21F4680197E0C90ED11CE114F104EF
:104A700019F0D701CD92DC9260E070E080E89FEF02
:104A8000C111FFC060E070E080E89FE7FAC0580104
:104A9000BBCFDB3229F485010E5F1F4FF501D181B9
:104AA000C0E0C6CF43E050E064E372E0C5010E947D
:104AB0002F27892BE9F0F80110E000E020E030E03A
:104AC000A9015F01B0ED8B2E8D0E89E08815C8F12C
:104AD0009C2E689491F88C2F8870C2FF16C08111AB
:104AE00002C00F5F1F4F3196D501DC91C92DE9CF70
:104AF000E114F10429F00E5F1F4FF70111830083C9
:104B000060E070E080EC9FE7BCC0882311F00150AA
:104B10001109A5E0B0E00E947E289B01AC01220FA4
:104B2000331F441F551F280D311D411D511D2839AC
:104B300099E93907490799E15907A8F2C6609C2EFF
:104B4000D2CFAEEF8A1206C0C3FD3CC09C2E689443
:104B500093F8C9CFDF7DD534A9F580818D3239F442
:104B6000C061DF011296818162E070E006C0DF0162
:104B70008B32C1F3119661E070E080535D01A61A9B
:104B8000B70A8A30F8F4E0E8CE16ECE0DE065CF412
:104B9000B601660F771F660F771FC60ED71ECC0CA7
:104BA000DD1CC80ED11C5D01FFEFAF1ABF0A8C914E
:104BB00080538A30A8F1C4FF03C0D194C194D108B6
:104BC0000C0D1D1DC1FF09C0E114F10431F081E09D
:104BD000A81AB108D701AD92BC92CA01B9010E94CE
:104BE0005C27C370C33009F490584B015C0120E08E
:104BF00030E0A9010E945727882309F440C0CBE682
:104C0000D2E017FF05C0119501951109C3E5D2E067
:104C10006E01B8E1CB1AD10880E2E82EF12C0FC06A
:104C2000D501B1CFFE0125913591459154910E19D1
:104C30001F09C501B4010E94BD274B015C01D501CC
:104C4000C4010E151F0574F72497F594E794CC164C
:104C5000DD06A9F78A2F880F8B2F881F8F3F49F019
:104C600020E030E0A901C501B4010E94572781115D
:104C700006C082E290E09093690680936806C501C1
:104C8000B401DF91CF911F910F91FF90EF90DF90D2
:104C9000CF90BF90AF909F908F900895283008F0EC
:104CA00027E03327DA01990F311D87FD91600096C7
:104CB0006105710539F432602E5F3D9330E32A952A
:104CC000E1F708959F3F30F080387105610509F0E4
:104CD0003C5F3C5F3D93913008F08068911DDF930D
:104CE000CF931F930F93FF92EF92192F987F969572
:104CF000E92F96959695E90FFF27E753FD4F9927E2
:104D00003327EE24FF24A701E701059008940794B8
:104D100028F4360FE71EF81E491F511D660F771F36
:104D2000881F991F0694A1F70590079428F4E70EB1
:104D3000F81E491F561FC11D770F881F991F661F38
:104D40000694A1F70590079428F4F80E491F561F02
:104D5000C71FD11D880F991F661F771F0694A1F7E3
:104D60000590079420F4490F561FC71FD81F990FAD
:104D7000661F771F881F0694A9F7849110951770F6
:104D800041F0D695C79557954795F794E7941A95AE
:104D9000C1F7EFE6F2E068941590159135916591B1
:104DA000959105907FE27395E118F10A430B560B3C
:104DB000C90BD009C0F7E10CF11E431F561FC91FD4
:104DC000D01D7EF4703311F48A95E6CFE89401503B
:104DD00030F0080F0AF40027021708F4202F23955B
:104DE000022F7A3328F079E37D932A95E9F710C0F2
:104DF0007D932A9589F6069497956795379517952B
:104E00001794E118F10A430B560BC90BD00998F01F
:104E100023957E9173957A3308F070E37C93201389
:104E2000B8F77E9170617D9330F0839571E37D9347
:104E300070E32A95E1F71124EF90FF900F911F91F5
:104E4000CF91DF91992787FD9095089591110C944A
:104E50002A28803219F089508550C8F70895FB013F
:104E6000DC014150504088F08D9181341CF08B352D
:104E70000CF4805E659161341CF06B350CF4605E5F
:104E8000861B611171F3990B0895881BFCCFDC011F
:104E9000FC01672F71917723E1F7329704C07C9171
:104EA0006D9370836291AE17BF07C8F308950E9497
:104EB000992708F481E00895E89409C097FB3EF42F
:104EC00090958095709561957F4F8F4F9F4F992357
:104ED000A9F0F92F96E9BB279395F69587957795D5
:104EE0006795B795F111F8CFFAF4BB0F11F460FF95
:104EF0001BC06F5F7F4F8F4F9F4F16C0882311F0ED
:104F000096E911C0772321F09EE8872F762F05C000
:104F1000662371F096E8862F70E060E02AF09A959B
:104F2000660F771F881FDAF7880F9695879597F990
:104F30000895990F0008550FAA0BE0E8FEEF16162A
:104F40001706E807F907C0F012161306E407F5077D
:104F500098F0621B730B840B950B39F40A2661F0F1
:104F6000232B242B252B21F408950A2609F4A14094
:104F7000A6958FEF811D811D08950E94D0270C9466
:104F800044280E94362838F00E943D2820F09523BE
:104F900011F00C942D280C94332811240C947828AB
:104FA0000E94552870F3959FC1F3950F50E0551F4F
:104FB000629FF001729FBB27F00DB11D639FAA276E
:104FC000F00DB11DAA1F649F6627B00DA11D661FBD
:104FD000829F2227B00DA11D621F739FB00DA11DDE
:104FE000621F839FA00D611D221F749F3327A00D98
:104FF000611D231F849F600D211D822F762F6A2F34
:1050000011249F5750409AF0F1F088234AF0EE0F98
:10501000FF1FBB1F661F771F881F91505040A9F7C5
:105020009E3F510580F00C942D280C9478285F3F0A
:10503000E4F3983ED4F3869577956795B795F79501
:10504000E7959F5FC1F7FE2B880F911D9695879579
:1050500097F9089599278827089597F99F6780E819
:1050600070E060E008959FEF80EC089500240A94BA
:105070001616170618060906089500240A94121633
:105080001306140605060895092E0394000C11F466
:10509000882352F0BB0F40F4BF2B11F460FF04C013
:1050A0006F5F7F4F8F4F9F4F089557FD9058440F6C
:1050B000551F59F05F3F71F04795880F97FB991F77
:1050C00061F09F3F79F08795089512161306140634
:1050D000551FF2CF4695F1DF08C0161617061806C1
:1050E000991FF1CF86957105610508940895E8949C
:1050F000BB2766277727CB0197F908950E94892857
:10510000A59F900DB49F900DA49F800D911D11241B
:105110000895A29FB001B39FC001A39F700D811D90
:105120001124911DB29F700D811D1124911D0895B0
:105130005058BB27AA270E94B0280C9444280E94EC
:10514000362838F00E943D2820F039F49F3F19F4AA
:1051500026F40C9433280EF4E095E7FB0C942D28EC
:10516000E92F0E94552858F3BA176207730784077E
:10517000950720F079F4A6F50C9477280EF4E095C5
:105180000B2EBA2FA02D0B01B90190010C01CA0101
:10519000A0011124FF27591B99F0593F50F4503EAC
:1051A00068F11A16F040A22F232F342F4427585F9E
:1051B000F3CF469537952795A795F0405395C9F7B6
:1051C0007EF41F16BA0B620B730B840BBAF091506E
:1051D000A1F0FF0FBB1F661F771F881FC2F70EC00D
:1051E000BA0F621F731F841F48F4879577956795E0
:1051F000B795F7959E3F08F0B0CF9395880F08F0CC
:105200009927EE0F9795879508950E94362860F0AC
:1052100080E891E009F49EEF0E943D2828F040E8E4
:1052200051E071F45EEF0CC00C9433280C94772895
:10523000E92FE0780E94552840F3092E052AB1F3A2
:10524000261737074807590738F00E2E07F8E025CC
:1052500069F0E025E0640AC0EF6307F8009407FAFC
:10526000DB01B9019D01DC01CA01AD01EF930E9490
:1052700093290E9444280E9448295F91552339F0C0
:105280002BED3FE049E450FD49EC0C94992808953A
:10529000DF93DD27B92FBF7740E85FE316161706C7
:1052A00048075B0718F4D92F0E948F2A9F938F938A
:1052B0007F936F930E94E52AE4EEF0E00E94242A97
:1052C0000E9444282F913F914F915F910E94D027D7
:1052D000DD2351F09058A2EA2AED3FE049EC5FE36C
:1052E000D0785D270E94B028DF910C9444280E945A
:1052F0004D2AE3950C94762A0E9490290C94442818
:105300000E943D2858F00E94362840F029F45F3F63
:1053100029F00C942D2851110C9478280C943328E2
:105320000E94552868F39923B1F3552391F3951BF7
:10533000550BBB27AA2762177307840738F09F5FB6
:105340005F4F220F331F441FAA1FA9F335D00E2E23
:105350003AF0E0E832D091505040E695001CCAF790
:105360002BD0FE2F29D0660F771F881FBB1F261753
:1053700037074807AB07B0E809F0BB0B802DBF012A
:10538000FF2793585F4F3AF09E3F510578F00C94F9
:105390002D280C9478285F3FE4F3983ED4F386954B
:1053A00077956795B795F7959F5FC9F7880F911D1A
:1053B0009695879597F90895E1E0660F771F881F06
:1053C000BB1F621773078407BA0720F0621B730BB9
:1053D000840BBA0BEE1F88F7E09508950E94F5291B
:1053E0006894B1110C94782808950E945D2888F083
:1053F0009F5798F0B92F9927B751B0F0E1F0660F99
:10540000771F881F991F1AF0BA95C9F714C0B130D9
:1054100091F00E947728B1E008950C947728672FC7
:10542000782F8827B85F39F0B93FCCF38695779508
:105430006795B395D9F73EF49095809570956195F1
:105440007F4F8F4F9F4F0895DF93CF931F930F93FD
:10545000FF92EF92DF927B018C01689406C0DA2EF6
:10546000EF010E94D027FE01E894A5912591359186
:1054700045915591A6F3EF010E94B028FE019701D6
:10548000A801DA9469F7DF90EF90FF900F911F91D8
:10549000CF91DF9108950C9433280E945D28D8F3B2
:1054A000E894E0E0BB279F57F0F02AED3FE049EC9D
:1054B00006C0EE0FBB0F661F771F881F28F0B23A99
:1054C00062077307840728F0B25A620B730B840BD0
:1054D000E3959A9572F7803830F49A95BB0F661F62
:1054E000771F881FD2F790480C94F02AEF93E0FFC3
:1054F00007C0A2EA2AED3FE049EC5FEB0E94B0282A
:105500000E9444280F90039401FC9058E1E1F1E0DF
:105510000C94032B0E94992708F48FEF08959B01A8
:10552000AC0160E070E080E89FE30C947C299F93DD
:105530000E944D2A0F9007FCEE5F0C94762A19F416
:1055400016F40C9433280C94EE2A0E945D28B8F3CC
:105550009923C9F3B6F39F57550B87FF0E94FC2A86
:105560000024A0E640EA900180585695979528F4CB
:10557000805C660F771F881F20F0261737074807C3
:1055800030F4621B730B840B202931294A2BA6951A
:1055900017940794202531254A2758F7660F771F5F
:1055A000881F20F026173707480730F4620B730B6B
:1055B000840B200D311D411DA09581F7B901842F69
:1055C0009158880F9695879508959B01AC010C948E
:1055D000BD270E949927880B990B08959F3F31F0B2
:1055E000915020F4879577956795B795880F911D11
:1055F0009695879597F9089591505040660F771FBB
:10560000881FD2F708959F938F937F936F93FF9393
:10561000EF939B01AC010E94BD27EF91FF910E9487
:10562000242A2F913F914F915F910C94BD27DB016C
:105630008F939F930E947E28BF91AF91A29F800D70
:10564000911DA39F900DB29F900D11240895A1E28A
:105650001A2EAA1BBB1BFD010DC0AA1FBB1FEE1FEC
:10566000FF1FA217B307E407F50720F0A21BB30B37
:10567000E40BF50B661F771F881F991F1A9469F7B3
:1056800060957095809590959B01AC01BD01CF010F
:105690000895052E97FB1EF400940E94602B57FD81
:1056A00007D00E94272B07FC03D04EF40C94602BEC
:1056B00050954095309521953F4F4F4F5F4F08953E
:1056C00090958095709561957F4F8F4F9F4F08956E
:1056D000EE0FFF1F881F8BBF0790F691E02D1994E6
:1056E000B7FF0C947E280E947E28821B930B08959E
:1056F0004F925F926F927F928F929F92AF92BF92E2
:10570000CF92DF92EF92FF920F931F93CF93DF938D
:105710008C01009799F4CB01DF91CF911F910F91EC
:10572000FF90EF90DF90CF90BF90AF909F908F90C1
:105730007F906F905F904F900C94FA21FC01E60FE0
:10574000F71F9C0122503109E217F30708F4AEC09D
:10575000D901CD91DC911197C617D70720F1C5303B
:10576000D10578F0CE0104978617970750F0C61B35
:10577000D70B2297C193D1936D937C93CF010E9455
:105780009622C801DF91CF911F910F91FF90EF906A
:10579000DF90CF90BF90AF909F908F907F906F9051
:1057A0005F904F9008955B01AC1ABD0A4C018C0EBE
:1057B0009D1EA0916606B0916706512C412CF12CDC
:1057C000E12C109731F5809164069091650688155B
:1057D000990509F05CC04616570608F058C080913C
:1057E000210290912202009741F48DB79EB740911B
:1057F000250250912602841B950BE817F90708F043
:1058000055C0F0936506E0936406F90171836083E7
:10581000B8CF8D919C91119712966C901297139618
:105820007C901397A815B90559F56C0142E0C40E98
:10583000D11CCA14DB0420F1AC014A195B09DA015E
:105840001296159780F06282738251834083D9014A
:105850006D937C93E114F10471F0D7011396FC93DE
:10586000EE9312978ECF22968C0F9D1FF901918394
:105870008083F301EFCFF0936706E093660681CF54
:105880004816590608F42C017D01D3019ACFCB01AB
:105890000E94FA217C01009749F0AE01B8010E94F4
:1058A000592CC8010E94962287016BCF10E000E0BE
:1058B00068CFFB01DC0102C001900D9241505040C5
:1058C000D8F70895FB01DC018D910190801901103A
:1058D000D9F3990B0895FB01DC0101900D92002092
:1058E000E1F70895FB01DC014150504048F0019080
:1058F0000D920020C9F701C01D9241505040E0F7C1
:105900000895F894FFCF424E4443634A4B614B5392
:10591000666E54724564666971344F6E586C567A7F
:1059200070526C5F7A430000006A0680000000003D
:1059300000D505350562052206930571058505002C
:10594000000000BD0C350575087408000000005DFE
:105950000835057508C01656080D0A006E616E0000
:10596000696E66006F76660043616C69627261748D
:10597000696E672E2E2E00506C656173652057612D
:1059800069742E2E2E004176672072656164696EFF
:105990006720776974686F757420616E7920776508
:1059A00069676874203A0050757420313030672080
:1059B00026207075736820627574746F6E00506C69
:1059C0006561736520576169742E2E2E2E00417615
:1059D00067206F662076616C7565206F6620766F34
:1059E0006C746167652070657220676D203A00698C
:1059F0006E006F75740070776D00707500647700CD
:105A0000617700767700636C720043757272656E21
:105A100074207765696768743A000A204C6F6E6776
:105A200069747564653A2000204C6174697475640A
:105A3000653A005761726E696E67204E6F746966D1
:105A400069636174696F6E00537563636573730096
:105A500044697374616E63653A00202020205765A5
:105A6000696768742000204D6561737572656D65A6
:105A70006E7420005265717569726564207765697E
:105A8000676874206F6620676F6C643A000A4C6F19
:105A90006E6769747564653A200020670057656910
:105AA000676874203A20004750524D4300475047E2
:105AB0004741004C61746974756465203D20002085
:105AC0004C6F6E676974756465203D200050726587
:105AD0007373206F6E206C6F636B20746F20696E20
