:100000000C94DE000C9406010C9406010C94460C32
:100010000C94460C0C94460C0C9406010C940601AE
:100020000C9406010C9406010C9406010C94060134
:100030000C9406010C9406010C9406010C94060124
:100040000C94FC0B0C9406010C94CA0B0C94A40B9E
:100050000C9406010C9406010C9406010C94060104
:100060000C9406010C940601626C6E6B696E66005E
:1000700076657200312E302E302D626574612E331C
:1000800000682D6265617400343500627566662D06
:10009000696E0032353600646576004172647569B8
:1000A0006E6F20556E6F006370750041546D65670B
:1000B000613332385000636F6E0053747265616D46
:1000C000006275696C640041707220203520323006
:1000D00032312031313A30343A34390000000000F6
:1000E0000000240027002A00000000080002010090
:1000F00000030407000000000000000009010901DE
:10010000090109010901090109010901090109019F
:10011000090109010901090109010901090109018F
:10012000090109010901090109010901090109017F
:100130000901090109010901090109010801080171
:100140000801080108010801080108010801080167
:100150000801080108010801080108010801080157
:100160000801080108010801080108010801080147
:100170000801080108010801080108010000000049
:1001800023002600290000000000250028002B0085
:10019000040404040404040402020202020203032D
:1001A0000303030301020408102040800102040835
:1001B0001020010204081020BE0C0F1011241FBED5
:1001C000CFEFD8E0DEBFCDBF11E0A0E0B1E0E0E2CC
:1001D000F4E202C005900D92A638B107D9F723E0EA
:1001E000A6E8B1E001C01D92AA33B207E1F710E022
:1001F000CDEDD0E004C02197FE010E94DC11CC3D82
:10020000D107C9F70E94550E0C9403120C940000FC
:1002100008950895AF92BF92CF92DF92EF92FF922E
:100220000F931F93CF93DF936C017B018B01040F1E
:10023000151FEB015E01AE18BF08C017D10759F0BA
:100240006991D601ED91FC910190F081E02DC601FC
:100250000995892B79F7C501DF91CF911F910F91F6
:10026000FF90EF90DF90CF90BF90AF900895FC018A
:10027000538D448D252F30E0842F90E0821B930B0B
:10028000541710F0CF96089501970895FC01918DB1
:10029000828D981761F0A28DAE0FBF2FB11D5D96B4
:1002A0008C91928D9F5F9F73928F90E008958FEF56
:1002B0009FEF0895FC01918D828D981731F0828D0A
:1002C000E80FF11D858D90E008958FEF9FEF089561
:1002D000FC01918D228D892F90E0805C9F4F821BC5
:1002E00091098F739927089583ED91E00E94680129
:1002F00021E0892B09F420E0822F089580E090E02E
:10030000892B29F00E94740181110C94000008953A
:10031000FC01A48DA80FB92FB11DA35ABF4F2C917A
:10032000848D90E001968F739927848FA689B78971
:100330002C93A089B1898C91837080648C93938D68
:10034000848D981306C00288F389E02D80818F7D0B
:1003500080830895EF92FF920F931F93CF93DF93C3
:10036000EC0181E0888F9B8D8C8D98131AC0E889F1
:10037000F989808185FF15C09FB7F894EE89FF89C0
:100380006083E889F98980818370806480839FBF5E
:1003900081E090E0DF91CF911F910F91FF90EF905E
:1003A0000895F62E0B8D10E00F5F1F4F0F7311276E
:1003B000E02E8C8D8E110CC00FB607FCFACFE889A9
:1003C000F989808185FFF5CFCE010E948801F1CFA8
:1003D000EB8DEC0FFD2FF11DE35AFF4FF0829FB71D
:1003E000F8940B8FEA89FB8980818062CFCFCF930D
:1003F000DF93EC01888D8823B9F0AA89BB89E8894D
:10040000F9898C9185FD03C0808186FD0DC00FB6F2
:1004100007FCF7CF8C9185FFF2CF808185FFEDCF70
:10042000CE010E948801E9CFDF91CF9108958330FA
:1004300081F028F4813099F08230A9F00895873056
:10044000A9F08830C9F08430B1F4809180008F7DAC
:1004500003C0809180008F7780938000089584B5D9
:100460008F7784BD089584B58F7DFBCF8091B000D8
:100470008F778093B00008958091B0008F7DF9CF81
:100480001F93CF93DF93282F30E0F901E851FF4FFE
:100490008491F901EC55FE4FD491F901E057FE4FDC
:1004A000C491CC23A9F0162F81110E941702EC2FC2
:1004B000F0E0EE0FFF1FEA57FE4FA591B4918FB702
:1004C000F894EC91111108C0D095DE23DC938FBF16
:1004D000DF91CF911F910895DE2BF8CFCF93DF935B
:1004E00090E0FC01EC55FE4F249180579E4FFC019B
:1004F00084918823C9F090E0880F991FFC01E25293
:10050000FF4FA591B491FC01EA57FE4FC591D491DC
:1005100061110DC09FB7F8948C91209582238C9324
:100520008881282328839FBFDF91CF91089562306F
:1005300051F49FB7F8943C91822F809583238C933C
:10054000E8812E2BEFCF8FB7F894EC912E2B2C93C4
:100550008FBFEACF3FB7F8948091CB019091CC0147
:10056000A091CD01B091CE0126B5A89B05C02F3F2B
:1005700019F00196A11DB11D3FBFBA2FA92F982FC9
:100580008827BC01CD01620F711D811D911D42E0C4
:10059000660F771F881F991F4A95D1F708958F928C
:1005A0009F92AF92BF92CF92DF92EF92FF926B0138
:1005B0007C010E94AA024B015C01C114D104E10438
:1005C000F104B9F00E94AA02681979098A099B0905
:1005D000683E73408105910580F321E0C21AD1087D
:1005E000E108F10888EE880E83E0981EA11CB11C7A
:1005F000E4CFFF90EF90DF90CF90BF90AF909F90AF
:100600008F9008952FB7F8946091C7017091C80139
:100610008091C9019091CA012FBF08952091D10105
:100620003091D2012817390771F49091CF01809150
:10063000D001981741F0E091CF01F0E0EA57FE4F6A
:10064000808190E008958FEF9FEF0895EF92FF92E1
:100650000F931F93CF93DF93DC015C96ED90FC909A
:100660005D97E114F10479F481E090E013969C9396
:100670008E93129790E080E0DF91CF911F910F91C0
:10068000FF90EF9008955196ED91FC9152975096FE
:100690008C915097982F90950FB75E962C915E97FE
:1006A000122F127021FD6095F8942081112319F109
:1006B000282B2083E7012197F1F728E0462F50E00F
:1006C000308160FF1AC0382B3083E7012197F1F7A2
:1006D000BA0175956795215089F7112381F08081C2
:1006E000892380830FBF5C968D919C910197F1F7D0
:1006F00081E090E0C1CF2923DCCF3923E5CF908181
:10070000892BEFCF2091D1013091D20128173907E1
:1007100071F48091D0012091CF0190E0805C9F4FD7
:10072000821B910960E470E00E94B411089590E08A
:1007300080E008952091D1013091D2012817390726
:10074000B9F49091CF018091D001981789F0E09190
:10075000CF01F0E0EA57FE4F80812091CF0130E0D9
:100760002F5F3F4F2F7333272093CF0190E00895E1
:100770008FEF9FEF089590E080E008958F929F9211
:10078000AF92BF92CF92DF92EF92FF920F931F939F
:10079000CF93DF936C017B018B01040F151F0E9427
:1007A00002034B015C01E701C017D107C8F40E94A6
:1007B0000203681979098A099B0960377741810525
:1007C000910570F4D6018D919C91DC01ED91FC9125
:1007D0000284F385E02D099597FDE6CF8993E4CF58
:1007E000CE018E199F09DF91CF911F910F91FF903C
:1007F000EF90DF90CF90BF90AF909F908F90089533
:100800000895CF93DF93EC0160E08E810E94400257
:1008100061E08E810E94400260E08E810E94400271
:100820008BE891E00197F1F7DF91CF910895CF9296
:10083000DF92EF92FF920F931F93CF93DF936C01A0
:100840007C0187E0E80EF11CD0E0C0E0062F10E04C
:10085000B8010C2E02C0759567950A94E2F7617095
:10086000F70181917F010E9440022196C430D10599
:1008700079F7C601DF91CF911F910F91FF90EF9013
:10088000DF90CF900C940104CF92DF92EF92FF9211
:100890000F931F93CF93DF93EC01F62E642F8C817F
:1008A0000E9440028D818F3F19F060E00E9440025B
:1008B0000F2D10E08F8584FF25C06E0187E0C80EE4
:1008C000D11CF12CE12CB8010E2C02C07595679556
:1008D0000A94E2F76170F60181916F010E94400273
:1008E000FFEFEF1AFF0A88E0E816F10461F7CE0186
:1008F000DF91CF911F910F91FF90EF90DF90CF90FC
:100900000C940104B80184E0759567958A95E1F728
:10091000CE010E9417046F2DCE01DF91CF911F9160
:100920000F91FF90EF90DF90CF900C94170440E070
:10093000682F82E093E00C944404CF93DF938230DD
:1009400029F49091110398609093110380931503FB
:100950001092160380E48093170380E180931803BC
:1009600080E58093190361E0809106030E946E0286
:10097000809107038F3F19F061E00E946E0261E0F1
:10098000809108030E946E02C2E0D3E09E012250D3
:1009900033408091110384FD0BC084E090E02196E8
:1009A0002817390744F461E08E810E946E02EECF71
:1009B00088E090E0F4CF8BE39DE00197F1F760E0F1
:1009C000809106030E94400260E0809108030E942B
:1009D0004002809107038F3F19F060E00E944002BF
:1009E0008091110384FD39C063E082E093E00E94AE
:1009F0001704CBE4D6E4CE010197F1F763E082E07F
:100A000093E00E9417042197F1F763E082E093E0FE
:100A10000E94170483E592E00197F1F762E082E01B
:100A200093E00E9417048091110380620E94970452
:100A300084E0809312038CE00E94970481E00E947E
:100A400097048BE39FE10197F1F782E08093130312
:100A500086E0DF91CF910C94970480620E94970406
:100A60008BE496E40197F1F78091110380620E9474
:100A7000970483E592E00197F1F78091110380627A
:100A80000E949704D0CF41E00E94440481E090E0AE
:100A90000895DC01ED91FC911197309761F0129669
:100AA0002D913C911397E217F30728F40190002051
:100AB000E9F7ED93FC930895FC0180819181009703
:100AC00039F0228133818217930710F40C9450116E
:100AD00090E080E008950F931F93CF93DF93EC0194
:100AE000FB0101900020E9F78F01061B170B8A819B
:100AF0009B81A801480F591F2C813D812417350780
:100B000068F028813981A801820F931F0E94E211A9
:100B10004A815B81400F511F5B834A83DF91CF91F4
:100B20001F910F9108950F931F93CF93DF93CDB72C
:100B3000DEB762970FB6F894DEBF0FBECDBF8C0153
:100B4000CB014AE0BE016F5F7F4F0E947711BE016B
:100B50006F5F7F4FC8010E946B0562960FB6F894D5
:100B6000DEBF0FBECDBFDF91CF911F910F910895D2
:100B70003F924F925F926F927F928F929F92AF922D
:100B8000BF92CF92DF92EF92FF920F931F93CF937A
:100B9000DF93CDB7DEB7A3970FB6F894DEBF0FBED5
:100BA000CDBF6C012DB73EB73BA32AA360E070E038
:100BB000CB010E94CF02D60157968D919C915897F8
:100BC000B12C029709F48EC356968C9156978F5F7D
:100BD00056968C93569754962D913C915597232B6E
:100BE00019F0BB24B39477C38330D8F7ED91FC910F
:100BF0008281882309F454C3FE0131964F0150E1EC
:100C0000452E512CD601ED91FC9180819181DC0122
:100C1000ED91FC910084F185E02D099518161906D7
:100C20000CF03EC345E050E0BE01695E7F4FF60127
:100C3000808191810E94BE03009721F3059709F0FE
:100C40004AC0888D998D982789279827998F888FF2
:100C50000A8D1B8D1027012710271B8F0A8F892BC8
:100C6000D1F18F89811142C00E940203D6011696EC
:100C70006D937D938D939C93199757962D913C91ED
:100C800058974A8D5B8D232B61F5288D398D213046
:100C9000310539F549305105C1F0483C510519F08D
:100CA00044305105C1F4F60166877787808B918BBC
:100CB00021E030E0308F278BC6010E946B0B60E093
:100CC00070E0CB010E94CF029DCF83E090E0589668
:100CD0009C938E935797D601ED91FC911282B12C83
:100CE000FAC24530510509F08DCFF5CFF60180816C
:100CF00091810130F1E01F0740F0D60158961C9217
:100D00001E925797FC0112827DCFADB6BEB69801F8
:100D10002F5F3F4F4DB75EB7421B530B0FB6F89492
:100D20005EBF0FBE4DBFADB7BEB711967D01A80126
:100D3000BD010E94BE038017910709F069C0EA8DCA
:100D4000FB8DEE0DFF1D10820E940203F6016683EB
:100D50007783808791878F89813109F491C248F523
:100D60008630D1F08F3009F489C0823041F5D60148
:100D700057968D919C915897892B71F4E1E0F0E0A2
:100D80005896FC93EE935797C6010E946B0B60E058
:100D900070E0CB010E94CF02488D598DF12CE12CDF
:100DA00008EC10E030E020E060E0C6010E94640A38
:100DB00013C08D31E1F260F4843109F45FC0D601D3
:100DC00058961C921E925797ED91FC91128204C086
:100DD000893241F0873399F70FB6F894BEBE0FBE43
:100DE000ADBE10CF84819581892B39F480E290E0EB
:100DF0000E942B10F601958384838A8D9B8D8E0D26
:100E00009F1DFA82E9829C838B83E816F90630F0F5
:100E10000FB6F894BEBE0FBEADBE5DCF40E250E04F
:100E2000B701D60114968D919C910E94F411D601C0
:100E30001496ED91FC91178EC4010E944905D601CC
:100E4000ED91FC911197128258961C921E92579721
:100E50000E940203DC01CB0188589341A109B1092A
:100E6000F60182879387A487B58786839783A087B7
:100E7000B18786879787A08BB18BAECF888D998DF0
:100E8000D60155969C938E935497EA8DFB8DF9A3CA
:100E9000E8A33F016E0C7F1CFD8EEC8E7F8E6E8E64
:100EA000E614F70408F081C1D7010D911C91CE0121
:100EB0004C960E944905FC01808191818615970519
:100EC00008F073C18C8D9D8DDC012C91213409F0CB
:100ED00063C001960E9450114EE0342E380E0697E2
:100EE0000CF45FC00637B2E71B0709F45EC108F0D7
:100EF000DAC20136F2E71F0709F4C0C2043622E75E
:100F0000120709F05EC033243A949A8A898A1C8AAF
:100F10001B8A5E8A4D8A65E671E0CE0141960E9489
:100F20006B05032D10E0B801CE0141960E94930598
:100F3000F801E851FF4F8491F801EC55FE4FF49011
:100F400000571E4FF801049160E070E0002389F023
:100F500081110E941702E02FF0E0EE0FFF1FE4580E
:100F6000FE4FA591B491EC91FE2261E070E009F48E
:100F700060E0CE0141960E9493050B891C890150C7
:100F8000110929893A89F12CE12C50E040E064E113
:100F9000C6010E94640A09C1CE014C960E945C05FC
:100FA000382E0637B2E71B0709F422C1D0F4013608
:100FB000F2E71F0709F4A8C0043622E7120709F474
:100FC000A4CF00371D4609F464C0D60154964D9154
:100FD0005C91F12CE12C02E010E030E020E060E0D8
:100FE000D7CF043647E7140709F473C0063757E72D
:100FF000150709F416C10136174739F7CE014C968B
:101000000E944905DC018D919C918615970508F099
:10101000CCC061E0832D0E946E02CE014C960E94EE
:101020005C058C0161E0832D0E946E0201151105A3
:1010300009F465C00F3F110509F092C061E060C07E
:10104000CE014C960E945C05F82ECE014C960E9473
:1010500049050C8D1D8D67E571E0C8010E94EB11FB
:1010600060E0892B79F06AE571E0C8010E94EB111C
:10107000892B39F06EE571E0C8010E94EB11892BD4
:10108000E9F461E08F2D0E946E02CE014C960E9421
:1010900049058C8D9D8D8615970508F086C0DC016D
:1010A0002C91213469F601960E9450113EE0F32EF6
:1010B000F80E069754F2FF24FA94C7CF62E671E067
:1010C000C8010E94EB11892B01F762E0DBCF3324CA
:1010D0003A94CE014C960E944905DC018D919C9179
:1010E0008615970508F061C061E0832D0E946E02AD
:1010F000CE014C960E945C0561E0892B09F460E00A
:10110000832D0E94400251C09A8A898A1C8A1B8AB8
:101110005E8A4D8A68E671E0CE0141960E946B05B9
:10112000632D70E0CE0141960E949305BDE0B3159A
:1011300010F4E2EF3E0E832D8770806480937C0074
:1011400080917A00806480937A0080917A0086FD95
:10115000FCCF8091780060917900762F682F09CFBD
:10116000E32DF0E0E851FF4FE491E33039F148F42A
:10117000E130B9F0E230E9F0003811050CF05ECF53
:10118000BECFE73029F1E83059F1E430A9F780917A
:10119000800080628093800010938B0000938A000F
:1011A00004C084B5806884BD07BDF601158A148A21
:1011B00013CE84B5806284BD08BDF7CF80918000D6
:1011C0008068809380001093890000938800EDCFA1
:1011D0008091B00080688093B0000093B300E5CFA9
:1011E0008091B00080628093B0000093B400DDCFA6
:1011F0003982BFE1B315C8F2E32DF0E0EE0FFF1F17
:10120000E450FF4F259134912115310571F2E1E051
:1012100029303E0751F2C401F9010995C6CF3324A4
:101220003A94CE014C960E9449052C8D3D8DC90102
:101230008E199F0948A159A1481B590B3A8329834C
:101240005C834B835E834D83398A5FE1531508F4D9
:10125000ACCFE32DF0E0EE0FFF1FE45CFE4F2591D5
:1012600034912115310509F4A0CF81E028303807E9
:1012700009F49BCFB401CE014196F901099595CFB0
:101280008A8D9B8D8E0D9F1DFA82E9829C838B83B4
:10129000E816F90608F0A0CDC4010E9449059CCDCE
:1012A0000E9402032B013C01F60100811181D8014B
:1012B0001296BC9012978789908D8130910509F024
:1012C00088C0B1102FC046865786608A718A108EFA
:1012D000178A12961C92D60156968C915697815079
:1012E00056968C938B2DAAA1BBA10FB6F894BEBFC6
:1012F0000FBEADBFA3960FB6F894DEBF0FBECDBF35
:10130000DF91CF911F910F91FF90EF90DF90CF90E1
:10131000BF90AF909F908F907F906F905F904F9015
:101320003F90089586819781A085B185A3019201A0
:10133000281B390B4A0B5B0BDA01C901893136EFE7
:101340009307A105B10530F0108E178AD8011296C7
:101350001C92C5CC893C9F4AA105B10598F4F601C1
:1013600082859385A485B585A3019201281B390B3D
:101370004A0B5B0BDA01C901893C9F4AA105B10503
:1013800008F42FCCF60186859785A089B189A30141
:101390009201281B390B4A0B5B0BDA01C90181371B
:1013A0009741A105B10508F41CCCF12CE12C10E00B
:1013B00000E030E020E050E040E066E0C6010E943E
:1013C000640AD6011E964D925D926D927C92519761
:1013D00082CF892B09F005CC86859785A089B189B4
:1013E000481A590A6A0A7B0ABB2079F0F1E74F16BE
:1013F000F7E15F066104710408F4F3CBD80112969B
:101400001C92F601108E178A6ACCF9E84F16F3E1A8
:101410005F066104710408F4E4CBD8018D919C91BE
:10142000DC01ED91FC910680F781E02D099581E0CA
:10143000F801828381E090E0D60153969C938E93CD
:10144000529712962D913C91F90101900020E9F7F5
:1014500031978F01021B130BF12CE12C41E050E07E
:101460006DE1C6010E94640AF60182859385A48518
:10147000B58586879787A08BB18BB3CB9A8A898AEB
:101480001C8A1B8A5E8A4D8A68E671E0CE0141960D
:101490000E946B056FEF70E0CE0141960E949305AC
:1014A00033243A9446CE043647E7140709F40FCEA6
:1014B000063757E7150709F4B2CE0136174709F08A
:1014C00084CD33243A949ACD2F923F924F925F92DB
:1014D0007F928F929F92AF92BF92CF92DF92EF92C4
:1014E000FF920F931F93CF93DF9300D000D01F92F2
:1014F000CDB7DEB77C01762E6A015901DC01ED9192
:10150000FC918281882309F4AFC0862F8D7F09F476
:10151000DDC0B6E06B1709F4D9C0EDE16E1709F430
:10152000D5C0D70157968D919C91019709F09CC029
:10153000452B81F4F701C488D588C114D10451F436
:1015400082899389019609F4A6C0938B828BF70157
:10155000C288D38881EF870D8630B0F5D7011A96FF
:101560004D915D916D917C911D9716968D919D91F8
:101570000D90BC91A02D84179507A607B70710F40E
:10158000DB01CA011C012D01E2E42E0E311C411CBD
:10159000511C0E940203A2019101261B370B480B2C
:1015A000590BDA01C901B7FD7BC0C7010E94B8051C
:1015B0000E940203A2019101261B370B480B590B15
:1015C000DA01C901B7FFF1CF4801B5E08B0E911CDC
:1015D000A114B10419F485E0882E912C7982DC24C1
:1015E000CD24DC24DB82CA82902F812F9D838C83C3
:1015F000D701ED91FC9180819181DC01ED91FC910D
:101600000280F381E02D45E050E0BE016F5F7F4F27
:10161000099560E070E0CB010E94CF02772009F4C9
:1016200048C00115110509F444C0D701ED91FC91A2
:1016300080819181DC01ED91FC910280F381E02DAC
:10164000A801B50109950B5F1F4F60E070E0CB0169
:101650000E94CF028016910679F1F701108E178A49
:101660000190F081E02D12820F900F900F900F905B
:101670000F90DF91CF911F910F91FF90EF90DF902E
:10168000CF90BF90AF909F908F907F905F904F9042
:101690003F902F90089581E090E0938B828B57CFFD
:1016A000D70156968C9181118FCFC7010E94B80542
:1016B0008BCF05E010E0CECF0E940203D7011A962F
:1016C0006D937D938D939C931D97CECFC114D104C0
:1016D00009F07ACF2FCFCF92DF92EF92FF920F9344
:1016E0001F93CF93DF93CDB7DEB7CC5AD1090FB696
:1016F000F894DEBF0FBECDBF6C014CE650E060E752
:1017000070E0CE0101960E946E11CE0183599F4F69
:101710007C010CE610E09E012F5F3F4F50E040E05F
:1017200061E1C6010E94640AC455DF4F0FB6F89408
:10173000DEBF0FBECDBFDF91CF911F910F91FF9004
:10174000EF90DF90CF9008951F920F920FB60F92F7
:1017500011242F933F934F935F936F937F938F93B6
:101760009F93AF93BF93EF93FF9383ED91E00E941C
:101770008801FF91EF91BF91AF919F918F917F91E0
:101780006F915F914F913F912F910F900FBE0F90EE
:101790001F9018951F920F920FB60F9211242F933E
:1017A0008F939F93EF93FF93E091E301F091E40116
:1017B0008081E091E901F091EA0182FD1BC09081F6
:1017C0008091EC018F5F8F732091ED01821741F0C2
:1017D000E091EC01F0E0ED52FE4F958F8093EC012B
:1017E000FF91EF919F918F912F910F900FBE0F90CE
:1017F0001F9018958081F4CF1F920F920FB60F9211
:1018000011242F933F938F939F93AF93BF93809116
:10181000C7019091C801A091C901B091CA0130914E
:10182000C60123E0230F2D3758F50196A11DB11DE8
:101830002093C6018093C7019093C801A093C9016A
:10184000B093CA018091CB019091CC01A091CD01C0
:10185000B091CE010196A11DB11D8093CB01909353
:10186000CC01A093CD01B093CE01BF91AF919F91D8
:101870008F913F912F910F900FBE0F901F90189551
:1018800026E8230F0296A11DB11DD2CF1F920F9201
:101890000FB60F9211242F933F934F935F936F9343
:1018A0007F938F939F93AF93BF93EF93FF93E091B9
:1018B000D101F091D201309749F0A685B785858591
:1018C000968D91FF14C09C918923A1F4FF91EF9113
:1018D000BF91AF919F918F917F916F915F914F9148
:1018E0003F912F910F900FBE0F901F9018959C91D4
:1018F000892361F7A389B4899C918589809589237F
:101900008C93868997890197F1F7608D718DA685F3
:10191000B785558538E020E0CB010197F1F7822F9C
:1019200090E095958795282F4C91452309F02068E4
:10193000315091F7868D81FD20958091D00190E006
:1019400001968F7399273091CF01381799F0A091A4
:10195000D001B0E0AA57BE4F2C938093D001828D66
:10196000938D0197F1F7A389B4898C919589892B7F
:101970008C93ACCF868D8160868FF1CFCF92DF9232
:10198000EF92FF921092D6011092D50198EEC92ED7
:1019900093E0D92EE12CF12CC092D701D092D8013E
:1019A000E092D901F092DA018BE291E09093D401B8
:1019B0008093D30185EC90E09093E0018093DF0168
:1019C00084EC90E09093E2018093E10180EC90E060
:1019D0009093E4018093E30181EC90E09093E60121
:1019E0008093E50182EC90E09093E8018093E70119
:1019F00086EC90E09093EA018093E9011092EC016B
:101A00001092ED011092EE011092EF01109234034A
:101A1000109233031092350383E393E090931B03FA
:101A200080931A0310921D0310921C0310921F033F
:101A300010921E0310922003109221031092220391
:101A40001092230310922403109225031092260370
:101A500010922703109228031092290310922A0350
:101A600010922B0310922D0310922C0310922F032F
:101A700010922E0310923003109232031092310311
:101A800010920503109204038FE491E090930303F6
:101A90008093020388E0809306038FEF809307030F
:101AA00087E08093080386E08093090385E08093B4
:101AB0000A0384E080930B0383E080930C0310926D
:101AC0000D0310920E0310920F0310921003109248
:101AD000110381E00E949D044FEF5FEFBA01409334
:101AE0008F02509390026093910270939202109231
:101AF0009702109298021092990210929A028FEF18
:101B000099ECAAE9BBE380939F029093A002A09373
:101B1000A102B093A2028093A7029093A802A0937F
:101B2000A902B093AA028093AF029093B002A0934F
:101B3000B102B093B2028093B7029093B802A0931F
:101B4000B902B093BA028093BF029093C002A093EF
:101B5000C102B093C2024093C7025093C80260937F
:101B6000C9027093CA028FEF90E09093D0028093E5
:101B7000CF024093D3025093D4026093D502709366
:101B8000D6024093DB025093DC026093DD02709337
:101B9000DE021092E3021092E40282E08093F402EB
:101BA0001092F5021092F6021092F7021092F802CB
:101BB0001092F9021092FA021092FB021092FD02AA
:101BC0001092FC021092FF021092FE021092E502A7
:101BD0001092730210927202C0927402D092750237
:101BE000E0927602F09277028DE391E09093710299
:101BF00080937002109287021092860210928902DE
:101C00001092880210928B0210928A0210928D021A
:101C100010928C0260918E026E7F6D7F60938E02B7
:101C20006695617081E0682789E00E94400261E06A
:101C300089E00E946E02EDEAF1E0E491E093800217
:101C4000E9E9F1E0E491F0E0EE0FFF1FEA57FE4F03
:101C500085919491909382028093810260E08AE062
:101C60000E946E0280918E0281FD04C061E08AE0D4
:101C70000E9440028AE080937C02EEEAF1E0E49167
:101C8000E0937D02EAE9F1E0E491F0E0EE0FFF1F5E
:101C9000E458FE4F8591949190937F0280937E0249
:101CA000FF90EF90DF90CF900895789484B5826094
:101CB00084BD84B5816084BD85B5826085BD85B5F0
:101CC000816085BD80916E00816080936E0010926E
:101CD00081008091810082608093810080918100E9
:101CE000816080938100809180008160809380007A
:101CF0008091B10084608093B1008091B0008160D8
:101D00008093B00080917A00846080937A00809103
:101D10007A00826080937A0080917A00816080935B
:101D20007A0080917A00806880937A001092C100D6
:101D3000E091E301F091E40182E08083E091DF0132
:101D4000F091E0011082E091E101F091E2018FEC6D
:101D500080831092EB01E091E701F091E80186E0C9
:101D60008083E091E501F091E601808180618083CC
:101D7000E091E501F091E601808188608083E09147
:101D8000E501F091E601808180688083E091E501C2
:101D9000F091E60180818F7D808310928B021092FA
:101DA0008A02109289021092880210928702109281
:101DB00086028DE991E090938D0280938C02909140
:101DC0007C02963108F047C02DEB30E0309387025B
:101DD000209386022BE931E0309389022093880218
:101DE0002CE231E030938B0220938A02209168002C
:101DF00084E0983048F031E09E3008F430E081E033
:101E000001C0880F3A95EAF7822B809368002DE68F
:101E100030E0983050F02BE630E09E3030F02CE689
:101E200030E0963110F030E020E0309384022093CF
:101E30008302292F30E0983008F08DC081E001C086
:101E4000880F9A95EAF78093850280918C02909191
:101E50008D020197F1F780918A0290918B02892B74
:101E600049F1E091D101F091D20122E0E037F2078F
:101E700009F1309739F0A389B4899C9185898095BF
:101E800089238C9380918E028E7F80938E02109294
:101E9000D0011092CF0180E792E09093D20180931D
:101EA000D101E0918302F0918402808190918502BA
:101EB000892B808380E091E090931D0380931C0325
:101EC0000E940203DC01CB0188589341A109B109AA
:101ED0008093240390932503A0932603B0932703B4
:101EE0008093200390932103A0932203B0932303B4
:101EF0008093280390932903A0932A03B0932B0384
:101F0000E0911A03F0911B0380E792E091838083B4
:101F1000E0911A03F0911B03128210923203109287
:101F200031030E9402036B017C0180913103909187
:101F300032030197E9F00E9402036C197D098E09B2
:101F40009F09603576448105910590F48AE193E01C
:101F50000E94B805EACF9E3040F42850310981E054
:101F600001C0880F2A95EAF76ECF2E503109F7CFBE
:101F70008091310390913203019751F661E08BE03B
:101F80000E946E0260E08AE00E94400260E089E008
:101F90000E94400261E08FE00E946E0262E082E0F7
:101FA0000E946E0282E00E949D044BE050E06BE6CE
:101FB00071E082E093E00E940A01E0911503E230B3
:101FC00060F5E150F0E0EE5FFC4F848980680E948C
:101FD00097044DE050E067E771E082E093E00E94F3
:101FE0000A0168EE73E080E090E00E94CF0281E099
:101FF0000E9497048BE39FE10197F1F7C0E0D0E0E6
:102000008AE193E00E94B8052097D1F30E94740101
:102010008823B1F30E940000F3CFE1E0D3CF8DE33A
:1020200091E090937102809370028091D101909120
:10203000D2018057924071F4E0918302F0918402C2
:102040009081809185028095892380831092D201AE
:102050001092D10108950F931F93CF93DF93823095
:10206000910510F482E090E0E0913803F09139039B
:1020700030E020E0B0E0A0E0309799F42115310580
:1020800009F44AC0281B390B24303105D8F58A8160
:102090009B816115710589F1FB0193838283FE01A8
:1020A00011C0408151810281138148175907E0F026
:1020B0004817590799F4109761F012960C931297EC
:1020C00013961C933296CF01DF91CF911F910F9100
:1020D00008950093380310933903F4CF2115310587
:1020E00051F04217530738F0A901DB019A01BD01F5
:1020F000DF01F801C1CFEF01F9CF9093390380934D
:102100003803CDCFFE01E20FF31F8193919322504C
:10211000310939832883D7CF209136033091370393
:10212000232B41F420912301309124013093370374
:102130002093360320912101309122012115310590
:1021400041F42DB73EB74091250150912601241B43
:10215000350BE0913603F0913703E217F307A0F453
:102160002E1B3F0B2817390778F0AC014E5F5F4FED
:102170002417350748F04E0F5F1F509337034093E5
:102180003603819391939FCFF0E0E0E09CCFCF9313
:10219000DF930097E9F0FC01329713821282A0913D
:1021A0003803B0913903ED0130E020E01097A1F43D
:1021B00020813181820F931F2091360330913703A4
:1021C0002817390709F061C0F0933703E09336030D
:1021D000DF91CF910895EA01CE17DF07E8F54A8134
:1021E0005B819E0141155105B1F7E901FB83EA834B
:1021F00049915991C40FD51FEC17FD0761F48081F7
:1022000091810296840F951FE901998388838281C9
:1022100093819B838A83F0E0E0E012968D919C91FC
:1022200013970097B9F52D913C911197CD01029626
:10223000820F931F209136033091370328173907F7
:1022400039F6309751F51092390310923803B09354
:102250003703A0933603BCCFD383C283408151811F
:10226000840F951FC817D90761F44E5F5F4F8881AF
:102270009981480F591F518340838A819B819383A1
:1022800082832115310509F0B0CFF0933903E09333
:1022900038039ECFFD01DC01C0CF13821282D7CF5D
:1022A000FC0188279927E89421912032E9F329300D
:1022B00010F02E30C8F32B3241F02D3239F46894EF
:1022C00004C00E948211820F911D219120532A3057
:1022D000C0F31EF4909581959F4F0895FB01DC019A
:1022E00002C005900D9241505040D8F70895BB2789
:1022F0004A3031F4992322F4BDE2909581959F4FA5
:102300000C948B117AE0979F902D879F802D910DD3
:1023100011240895BB27FB015527AA27880F991F71
:10232000AA1FA41710F0A41B83955051B9F7A05D04
:10233000AA3308F0A95DA193009779F7B111B19381
:102340001192CB010C94A411DC01FC01672F719157
:102350007723E1F7329704C07C916D93708362918B
:10236000AE17BF07C8F3089597FB072E16F4009425
:1023700007D077FD09D00E94C81107FC05D03EF4B4
:10238000909581959F4F0895709561957F4F089521
:10239000AA1BBB1B51E107C0AA1FBB1FA617B7078B
:1023A00010F0A61BB70B881F991F5A95A9F78095A7
:1023B0009095BC01CD010895EE0FFF1F0590F4919B
:1023C000E02D0994FB01DC0102C001900D92415007
:1023D0005040D8F70895FB01DC018D9101908019E0
:1023E0000110D9F3990B0895FB01DC0141505040D5
:1023F00048F001900D920020C9F701C01D92415094
:102400005040E0F7089510E0CDEDD0E004C0FE01AB
:102410000E94DC112196CE3DD107C9F7F894FFCF79
:102420006835467338467A744578694D767A7842CD
:102430005A636C31776354694C64466B344351463C
:102440000000003A03800000000000AA010A0137E2
:1024500001F701680146015A010000000026030A45
:1024600001BB03090182039A030E0300000000432D
:10247000050A01BB030004696E006F757400707774
:102480006D00707500647700617700202020205770
:1024900065696768742000204D6561737572656DAC
:0624A000656E74200000CF
:00000001FF
