:100000000C9427030C9458030C9458030C94580335
:100010000C9458030C9458030C9458030C945803F4
:100020000C9458030C9458030C9458030C945803E4
:100030000C9458030C9458030C9458030C945803D4
:100040000C9458030C9458030C9458030C945803C4
:100050000C9458030C9458030C9458030C946A2085
:100060000C9458030C9434200C940A200C945803DC
:100070000C9458030C9458030C9458030C94580394
:100080000C9458030C9458030C9458030C94580384
:100090000C9458030C9458030C9458030C94580374
:1000A0000C9458030C9458030C9458030C94580364
:1000B0000C9458030C9458030C9458030C94580354
:1000C0000C9458030C9458030C9458030C94580344
:1000D0000C9458030C9458030C9458030C94580334
:1000E0000C9458030C94CF1B0C94CD040C9414085E
:1000F0000C94C70A0C9459080C94E7130C940B0445
:100100000C94F50C0C94B11B0C945A030C94FC0742
:100110000C94DD090C9415210C94101C0C940D15F5
:100120000C94F0100C94FC1B0C94971B0C94C507BA
:100130000C94D00B0C947E1B0C94E81B0C94FE0CBE
:100140000C9407050C94FA040C94B9100C94761BCB
:100150000C94FB0D0C94F40F0C9412100C94D50419
:100160000C94B1030C949C1F0C94F21B0C945A1425
:100170000C94AE070C94DC040C94A2030C941E0F98
:100180000C9474080C94C4090C94380F0C94E00C73
:100190000C945D080C94F0040C94E2040C94420856
:1001A0000C9458040C9408050C9400080C94E60474
:1001B0000C94D1040C94D50E0C9475030C94C704C4
:1001C0000C94A11B0C9402050C94831B0C945B03F0
:1001D0000C94BB1B0C94A3070C94D9040C94FF093A
:1001E0000C94FE040C9467080C94471F0C940C05A7
:1001F0000C942B110C94F40E0C94D3030C94F40473
:100200000C94C51B0C94A91B0C9404080C946C084A
:100210000C9471030C9469080C94380D0C943B08F1
:100220000C94061C0C948D1B0C94B80A0C94C503FA
:100230000C94DE1B0C948D070C948E100C94EC0423
:100240000C94380A626C6E6B696E6600766572009B
:10025000302E362E3100682D626561740031300019
:10026000627566662D696E003130323400646576E1
:100270000041726475696E6F204D6567610063703F
:10028000750041546D6567613235363000636F6EBD
:10029000005735313030006275696C64004170720E
:1002A00020203620323032312031323A33383A3061
:1002B0003800000000002200250028002B002E003E
:1002C0003100340002010000050108010B010000AB
:1002D0002100240027002A002D00300033000101F6
:1002E0000000040107010A01616E797468696E6794
:1002F00020656C736520616E642067657420697485
:10030000207072696E746564206261636B2E0054A4
:1003100079706520274D6172636F2720616E6420BC
:100320006765742061207265706C792C206F722073
:1003300074797065002D2D2D2D2D2D2D2D2D2D2D0C
:100340002D2D00426C796E6B2076302E362E313A90
:100350002044657669636520737461727465640016
:10036000000020002300260029002C002F0032006E
:100370000001000003010601090105050505070547
:1003800008080808020202020A0A08080404040411
:10039000010101010101010103030303030303033D
:1003A000040707070C0C0C0C0C0C0C0C02020202CC
:1003B00006060606060606060B0B0B0B0B0B0B0BB5
:1003C0000102102020080810204010204080020167
:1003D000020108040201010204081020408080404C
:1003E000201008040201800402018040201008044B
:1003F00002010804020101020408102040800102E9
:1004000004081020408000000A0B02090C0D0E08A1
:1004100007030401000000000000000000000000CD
:1004200000000000000000000000000000000000CC
:100430000000121110000000000000000000000089
:100440000000000000000000000000005B035B03F0
:100450005B035B035B035B035B035B035B035B03AC
:100460005B035B035B035B035B035B035B035B039C
:100470005B035B035B035B035B035B035B035B038C
:100480005B035B035B035B035B035B035B035B037C
:100490005B035B035B035B035B035B035B035B036C
:1004A0005B035B035B035B035B035B035B035B035C
:1004B0005B035B035B035B035B035B035B035B034C
:1004C0005B035B035B035B035B035B035B035B033C
:1004D0005B035B035B035B035B035B035B035B032C
:1004E0005B035B035B035B035B035B035B035B031C
:1004F0005B035B035B035B035B035B035B035B030C
:100500005B035B035B035B035B035B035B035B03FB
:100510005B035B035B035B035B035B035B035B03EB
:100520005B035B035B035B035B035B035B035B03DB
:100530005B035B035B035B035B035B035B035B03CB
:100540005B035B035B035B035B035B039C1F5A035F
:100550005A035A035A035A035A035A035A035A03B3
:100560005A035A035A035A035A035A035A035A03A3
:100570005A035A035A035A035A035A035A035A0393
:100580005A035A035A035A035A035A035A035A0383
:100590005A035A035A035A035A035A035A035A0373
:1005A0005A035A035A035A035A035A035A035A0363
:1005B0005A035A035A035A035A035A035A035A0353
:1005C0005A035A035A035A035A035A035A035A0343
:1005D0005A035A035A035A035A035A035A035A0333
:1005E0005A035A035A035A035A035A035A035A0323
:1005F0005A035A035A035A035A035A035A035A0313
:100600005A035A035A035A035A035A035A035A0302
:100610005A035A035A035A035A035A035A035A03F2
:100620005A035A035A035A035A035A035A035A03E2
:100630005A035A035A035A035A035A035A035A03D2
:100640005A035A035A035A035A035A031521112411
:100650001FBECFEFD1E2DEBFCDBF00E00CBF13E085
:10066000A0E0B2E0EEE5F5E500E00BBF02C00790C8
:100670000D92A831B107D9F725E0A8E1B3E001C098
:100680001D92A632B207E1F713E0C7E2D3E000E023
:1006900006C021970109802FFE010E948129C632E0
:1006A000D10780E00807A9F70E94EA210C94AD2A3F
:1006B0000C940000089508958CBD9DBD089520E31D
:1006C000FC0120833296862F82958F706F706A307E
:1006D00030F4605D6293682F8111F5CF0895695CF5
:1006E000F9CFFC01818D928D0895AF92BF92CF9288
:1006F000DF92EF92FF920F931F93CF93DF936C01E2
:100700007B018B01040F151FEB015E01AE18BF08C2
:10071000C017D10759F06991D601ED91FC91019074
:10072000F081E02DC6011995892B79F7C501DF917C
:10073000CF911F910F91FF90EF90DF90CF90BF90DE
:10074000AF900895FC01538D448D252F30E0842F08
:1007500090E0821B930B541710F0CF9608950197E9
:100760000895FC01918D828D981761F0A28DAE0FD6
:10077000BF2FB11D5D968C91928D9F5F9F73928F5D
:1007800090E008958FEF9FEF0895FC01918D828D89
:10079000981731F0828DE80FF11D858D90E0089556
:1007A0008FEF9FEF0895FC01918D228D892F90E0AE
:1007B000805C9F4F821B91098F739927089588EC65
:1007C00093E00E94D30321E0892B09F420E0822FDB
:1007D0000895FC01A48DA80FB92FB11DA35ABF4FD6
:1007E0002C91848D90E001968F739927848FA68930
:1007F000B7892C93A089B1898C91837080648C9384
:10080000938D848D981306C00288F389E02D808132
:100810008F7D80830895EF92FF920F931F93CF9364
:10082000DF93EC0181E0888F9B8D8C8D98131AC02B
:10083000E889F989808185FF15C09FB7F894EE8912
:10084000FF896083E889F98980818370806480836F
:100850009FBF81E090E0DF91CF911F910F91FF90BA
:10086000EF900895F62E0B8D10E00F5F1F4F0F7362
:100870001127E02E8C8D8E110CC00FB607FCFACF1D
:10088000E889F989808185FFF5CFCE010E94E903CF
:10089000F1CFEB8DEC0FFD2FF11DE35AFF4FF082EE
:1008A0009FB7F8940B8FEA89FB8980818062CFCF54
:1008B000CF93DF93EC01888D8823B9F0AA89BB8997
:1008C000E889F9898C9185FD03C0808186FD0DC082
:1008D0000FB607FCF7CF8C9185FFF2CF808185FFA3
:1008E000EDCFCE010E94E903E9CFDF91CF910895CA
:1008F00080E090E0892B29F00E94DF0381110E94A3
:10090000000080E090E0892B49F080E090E0892BA6
:1009100029F00E94000081110E94000080E090E018
:10092000892B49F080E090E0892B29F00E9400009B
:1009300081110E94000080E090E0892B49F080E066
:1009400090E0892B29F00E94000081110C94000096
:1009500008958150823108F05AC0E82FF0E08827CE
:10096000EB54FB4F8F4F0C948129D504D904C70455
:10097000CD04D1040705DC04E204E604EC04F00431
:10098000F404FA04FE040705020508050C0580912D
:1009900080008F77809380000895809180008F7D04
:1009A000F9CF80918000877FF5CF84B58F7784BDA4
:1009B000089584B58F7DFBCF8091B0008F778093B1
:1009C000B00008958091B0008F7DF9CF80919000A4
:1009D0008F77809390000895809190008F7DF9CF5C
:1009E00080919000877FF5CF8091A0008F778093D2
:1009F000A00008958091A0008F7DF9CF8091A00084
:100A0000877FF5CF809120018F7780932001089513
:100A1000809120018F7DF9CF80912001877FF5CFD4
:100A20001F93CF93DF93282F30E0F901EA5FFB4F4C
:100A30008491F901E054FC4FD491F901E658FC4F40
:100A4000C491CC23A9F0162F81110E94A904EC2F88
:100A5000F0E0EE0FFF1FEC54FD4FA591B4918FB75E
:100A6000F894EC91111108C0D095DE23DC938FBF70
:100A7000DF91CF911F910895DE2BF8CFCF93DF93B5
:100A800090E0FC01E054FC4F249186589C4FFC01FF
:100A900084918823C9F090E0880F991FFC01E253EC
:100AA000FD4FA591B491FC01EC54FD4FC591D4913B
:100AB00061110DC09FB7F8948C91209582238C937F
:100AC0008881282328839FBFDF91CF9108956230CA
:100AD00051F49FB7F8943C91822F809583238C9397
:100AE000E8812E2BEFCF8FB7F894EC912E2B2C931F
:100AF0008FBFEACF3FB7F89480911D0390911E03FA
:100B0000A0911F03B091200326B5A89B05C02F3FDD
:100B100019F00196A11DB11D3FBFBA2FA92F982F23
:100B20008827BC01CD01620F711D811D911D42E01E
:100B3000660F771F881F991F4A95D1F708958F92E6
:100B40009F92AF92BF92CF92DF92EF92FF926B0192
:100B50007C010E947A054B015C01C114D104E104BF
:100B6000F104B9F00E947A05681979098A099B098C
:100B7000683E73408105910580F321E0C21AD108D7
:100B8000E108F10888EE880E83E0981EA11CB11CD4
:100B9000E4CFFF90EF90DF90CF90BF90AF909F9009
:100BA0008F9008952FB7F8946091190370911A03EC
:100BB00080911B0390911C032FBF08954F925F9269
:100BC0006F927F92AF92BF92CF92DF92EF92FF929D
:100BD0000F931F93CF93DF93EC016B017B01E40E26
:100BE000F51E8B015801AC18BD080E151F0511F13B
:100BF0000E94D205688779878A879B87E881F98177
:100C00000284F385E02DCE01199597FF23C00E9441
:100C1000D205488459846A847B84641975098609DD
:100C200097094C805D806E807F8064157505860510
:100C3000970520F3C501DF91CF911F910F91FF9090
:100C4000EF90DF90CF90BF90AF907F906F905F90CC
:100C50004F900895F80181938F01C4CFFC0120814A
:100C60002EBD9B012150310941F051810DB407FE89
:100C7000FDCF4EB55EBD4193F5CF61507109860F32
:100C8000971F0DB407FEFDCF2EB5FC0120830895FC
:100C9000E0912203F0912303808190912103892B1D
:100CA00080830895E0912203F09123039081809145
:100CB000210380958923808308958EBD00000DB4A3
:100CC00007FEFDCF8EB50895AF92BF92CF92DF920F
:100CD000EF92FF920F931F93CF93DF9300D000D03A
:100CE0001F921F92CDB7DEB78C017B016A01809104
:100CF000C7038333E1F45801A40EB51EA016B10654
:100D000009F46FC00E94520680EF0E945D06812F99
:100D10000E945D06802F0E945D060F5F1F4FF70146
:100D200081917F010E945D060E944806E7CF5B012A
:100D3000A40EB51E8433C1F40E94520619830A839F
:100D40008D2D80688B83CC8264E070E0CE010196AB
:100D50000E942E06AE14BF0409F441C0F701819130
:100D60007F010E945D06F6CF0E9452060F3F1105DB
:100D700009F028F419820A8384E08B830CC017FDE4
:100D800017C019820A8333E0169507953A95E1F763
:100D9000007E0C600B8386E0C816D104A0F5F70135
:100DA000DE011496EA15FB0599F081918D93FACF37
:100DB000C80126E0969587952A95E1F7807E1983EC
:100DC0000A830115104C10F48461D7CF8C61D5CF04
:100DD000B6016D5F7F4FCE0101960E942E060E94E4
:100DE0004806C60128960FB6F894DEBF0FBECDBFE9
:100DF000DF91CF911F910F91FF90EF90DF90CF90F7
:100E0000BF90AF90089563E070E0CE0101960E941C
:100E10002E06F70181917F010E945D06AE14BF048A
:100E2000C1F7DDCFCF93DF931F92CDB7DEB78983B4
:100E300041E050E0BE016F5F7F4F90E080E00E9494
:100E400064060F90DF91CF91089590E02091C70341
:100E5000233339F40C96982F990F990F990F80E04E
:100E600008954896F8CFDA01E0912503F0E0FE2FCF
:100E7000EE27E60FF71F90E0982F8827A901BD0104
:100E80008E0F9F1F0C946406CF93DF931F921F92C7
:100E9000CDB7DEB779836A8322E030E0AE014F5FE1
:100EA0005F4F60E170E00E9433070F900F90DF9179
:100EB000CF910895CF93DF931F921F92CDB7DEB7E6
:100EC00079836A8322E030E0AE014F5F5F4F64E0D8
:100ED00070E00E9433070F900F90DF91CF9108953B
:100EE000CF93DF931F92CDB7DEB72091250330E07B
:100EF000322F2227260F371F90E0982F882749830B
:100F000041E050E0BE016F5F7F4F820F931F0E9450
:100F100064060F90DF91CF910895CF93DF931F92D6
:100F2000CDB7DEB76983DC01ED91FC910280F381DE
:100F3000E02D41E050E0BE016F5F7F4F19950F90AB
:100F4000DF91CF910895FC019485FB01848598136E
:100F500003C081E0983008F080E00895CF93DF93DC
:100F60001F92CDB7DEB76983DC01ED91FC91028061
:100F7000F381E02D41E050E0BE016F5F7F4F199596
:100F80000F90DF91CF9108950895FF920F931F93D3
:100F9000CF93DF93EB01FC01178A168A2A81211176
:100FA00009C02B81211106C02C81211103C02D8184
:100FB000222301F141155105E9F08A01FC01F08C71
:100FC00080E591E00E945C03AE014E5F5F4F24E03C
:100FD00030E06CE070E08F2D0E943307B8018F2D58
:100FE0000E94440781E090E0DF91CF911F910F9123
:100FF000FF90089580E0F7CFFC01848595850895E2
:10100000FC0184899589089521EA32E0FC0131834D
:101010002083FB014089518962897389FC014283E5
:101020005383648375830895DC01ED91FC91048CF6
:10103000F58DE02D1994FC019485992369F0808148
:101040009181DC01ED91FC910688F789E02D1995DD
:1010500091E0811101C090E0892F0895DC011C9678
:101060001C921C978D919C91DC01ED91FC91048860
:10107000F589E02D1994DC01ED91FC910280F3815A
:10108000E02D1994DC01AB5BBF4FEC9121E02E0FFA
:101090002C93E80FF92FF11D6583203438F0DC0123
:1010A000ED91FC910680F781E02D199581E090E0AB
:1010B0000895FC01768765870895DC01ED91FC9128
:1010C000068CF78DE02D199591E089270895862FDC
:1010D000089581E08627089521E0FC018485883009
:1010E00008F020E0822F089590E080E00895FB0151
:1010F00001900020E9F73197AF01461B570BDC0147
:10110000ED91FC910280F381E02D19940F931F93D0
:10111000CF93DF938C01D0E0C0E0F801EC0FFD1F0E
:101120006491662341F08BE994E00E944208892B88
:1011300011F02196F2CF61EB72E08BE994E00E940E
:1011400077088C0F9D1FDF91CF911F910F9108950C
:101150008F929F92AF92BF92EF92FF920F931F9345
:10116000CF93DF93CDB7DEB7A1970FB6F894DEBF6C
:101170000FBECDBF7C01FA01CB0119A2223008F4C9
:101180002AE08E010F5D1F4F822E912CB12CA12CD5
:10119000BF01A50194010E945029F901CA016A30DA
:1011A0000CF5605DD8016E938D01232B242B252B2C
:1011B00079F790E080E0109721F0BD01C7010E940F
:1011C0007708A1960FB6F894DEBF0FBECDBFDF91B2
:1011D000CF911F910F91FF90EF90BF90AF909F9094
:1011E0008F900895695CDECFAF92BF92CF92DF926D
:1011F000EF92FF920F931F93CF93DF9300D01F9234
:10120000CDB7DEB78C016B017A018091C7038333C0
:10121000E9F45B016801C40ED51EC016D106A9F120
:101220000E9452068FE00E945D06812F0E945D069B
:10123000802F0E945D060F5F1F4F80E00E945D06B9
:10124000F50181935F010E944806E7CF843369F579
:101250000E94520619830A838F2D8F778B83EC822D
:1012600064E070E0CE0101960E942E06A70170E0B6
:1012700060E0C6010E94872AE114F10421F0B70161
:10128000C6010E942E060E944806C7010F900F90CB
:101290000F900F90DF91CF911F910F91FF90EF90E2
:1012A000DF90CF90BF90AF9008950E9452060F3FFD
:1012B000110509F030F419820A831B8263E070E0A3
:1012C000D1CF17FD0BC019820A8333E0169507951D
:1012D0003A95E1F7007E08600B83F0CFC80126E065
:1012E000969587952A95E1F7807E19830A830115E3
:1012F000104C18F480618B83E1CF8861FCCFCF93D1
:10130000DF931F92CDB7DEB72091250330E0322F57
:101310002227260F371F90E0982F882741E050E0C2
:10132000BE016F5F7F4F820F931F0E94F408898177
:101330000F90DF91CF910895CF93C82F462F61E092
:1013400070E00E94700761E070E08C2F0E947F09BE
:101350008111F9CFCF910895CF93C82F80E591E007
:101360000E945C0368E070E08C2FCF910C949C0984
:10137000CF93C82F80E591E00E945C0360E170E0AC
:101380008C2FCF910C949C09CF93DF93EC01888D27
:10139000883020F40E94B80988E0888FDF91CF91CF
:1013A0000895CF93C82F80E591E00E945C0363E02D
:1013B00070E08C2FCF910C947F09CF93DF93EC01D9
:1013C0008C858830D0F40E94D109843189F088233B
:1013D00079F0883169F021E08C3159F4E881F981A4
:1013E0000084F185E02DCE01199521E0892B09F4C7
:1013F00020E0822FDF91CF91089580E0FBCFCF9244
:10140000DF92EF92FF92CF93DF93EC018C858830CF
:1014100068F40E94AC090E94D2056B017C018C85A6
:101420000E94D109811109C088E08C87DF91CF919A
:10143000FF90EF90DF90CF90089561E070E080E042
:1014400090E00E949F050E94D205AB01BC014C199F
:101450005D096E097F098D859E85B0E0A0E0481783
:1014600059076A077B07D8F28C850E94B809DCCF40
:10147000CF93FC01C08D80E591E00E945C0360E2A7
:1014800070E08C2F0E949C0962E070E08C2F0E941B
:101490007F0984FD16C062E070E08C2F0E947F09F6
:1014A00083FF0AC048E162E070E08C2F0E94700761
:1014B00080E090E0CF91089580E591E00E945C0388
:1014C000E3CF40E162E070E08C2F0E94700781E082
:1014D000F0CFCF93DF931F92CDB7DEB741E050E05E
:1014E000BE016F5F7F4F90E080E00E94F408898129
:1014F0000F90DF91CF910895CF93DF93C4E1D0E0B7
:101500000E94690A882361F061E070E080E090E069
:101510000E949F052197A1F780E0DF91CF91089568
:1015200081E0FBCF1F93CF93DF931F92CDB7DEB740
:10153000182F80E591E00E945C03812F0E9425070F
:1015400027E0129FF0011124E157FC4F22813381E3
:10155000377041E050E0BE016F5F7F4F820F931FF5
:101560000E94F40889810F90DF91CF911F91089517
:10157000FC01808D883040F4218D328D232B21F0A9
:101580000E94920A90E008958FEF9FEF0895CF9305
:10159000DF93FC012485283028F08FEF9FEFDF9147
:1015A000CF910895EC010190F081E02D0084F18548
:1015B000E02D1995892B89F38C850E94920A90E081
:1015C000EECFDA01E0912503F0E0FE2FEE27E60FE3
:1015D000F71F90E0982F8827A901BD018E0F9F1F4C
:1015E0000C94F4088F929F92AF92BF92CF92DF92A9
:1015F000EF92FF920F931F93CF93DF93CDB7DEB798
:1016000060970FB6F894DEBF0FBECDBF7C019091FE
:10161000C703911115C018E0812F60960FB6F8949A
:10162000DEBF0FBECDBFDF91CF911F910F91FF9015
:10163000EF90DF90CF90BF90AF909F908F900895E4
:1016400008E0933309F404E06B0180E591E00E9427
:101650005C039E012F5F3F4F5901490110E063E099
:1016600070E0812F0E947F09F40181934F0188234C
:10167000C1F01F5F0113F3CF00E0F50181915F011D
:101680008D3149F0883139F08A51823020F00F5F76
:101690001013F3CFC0CF60E170E0802F0E949C094F
:1016A000102FA12EB12C83EE93E00197F1F742E8C1
:1016B00070E060E0812F0E9470074FEF62E070E001
:1016C000812F0E947007B601C114D10491F480915A
:1016D00021029091220201968115F0EC9F0708F4F7
:1016E0005CC090932202809321026091210270914C
:1016F0002202812F0E945A0786E0EDE2F2E0DE012D
:10170000199601900D928A95E1F7F70183818F7701
:101710008C8784818D8785818E87A7014E5F5F4F7F
:1017200024E030E06CE070E0812F0E943307B601C6
:10173000812F0E94440726E030E0AE01475F5F4FF3
:1017400066E070E0812F0E94330761E070E0812F36
:101750000E949C0927E02A9DC0012B9D900D112419
:101760009C0121573C4F7901F9011182108222E03E
:1017700030E0AE01415F5F4F68E270E0812F0E9470
:10178000E10A8F859889982789279827F7019383FD
:1017900082831682158214823FCF80E090ECA1CF25
:1017A000CF92DF92EF92FF920F931F93CF93DF932D
:1017B00000D000D0CDB7DEB78C016B017A01FC01FF
:1017C000808D883010F40E94B80981EA92E09A83F3
:1017D0008983F60182819381A481B5818B839C8367
:1017E000AD83BE83B701CE0101960E94F20AF801D3
:1017F000808F8830A0F4F586E486128E118E81E009
:1018000026960FB6F894DEBF0FBECDBFDF91CF9105
:101810001F910F91FF90EF90DF90CF90089580E09F
:10182000EFCF7F928F929F92AF92BF92CF92DF9233
:10183000EF92FF920F931F93CF93DF931F921F920C
:10184000CDB7DEB7782E8B014A01590122E030E096
:10185000AE014F5F5F4F64E270E00E94E10AE980F1
:10186000FA80FE24EF24FE24E00EF11E970137706B
:101870004091C703072D10E0433309F042C0085FD1
:101880001F4F102F0027110F110F110FC901800FCB
:10189000911F4733C9F1A9014A0D5B1D41305840E2
:1018A00098F160E078E06B01C21AD30AA601B40196
:1018B0000E946406A5014C195D09B4016C0D7D1DE3
:1018C000C8010E946406EA0CFB1CF982EA8222E04D
:1018D00030E0AE014F5F5F4F64E270E0872D0E9401
:1018E00033070F900F90DF91CF911F910F91FF90D1
:1018F000EF90DF90CF90BF90AF909F908F907F90B0
:101900000895005F1F4FBDCFA501B401DACFEF925C
:10191000FF921F93CF93DF931F921F92CDB7DEB735
:10192000182F22E030E0AE014F5F5F4F60E270E0C1
:101930000E94E10AE980FA80FE24EF24FE2422E0DE
:1019400030E0AE014F5F5F4F60E270E0812F0E9498
:10195000E10A89819A81982789279827E816F9064C
:1019600089F487E0189FF0011124E157FC4FF582BC
:10197000E482C7010F900F90DF91CF911F91FF90EC
:10198000EF9008957C01DBCF1F93CF93DF93182F47
:1019900080E591E00E945C03812F0E94870CEC019E
:1019A00063E070E0812F0E947F09873121F08C3144
:1019B00011F0D0E0C0E0CE01DF91CF911F910895EA
:1019C000CF93DF93EC018C85883060F40E94D109BD
:1019D000873111F08C3131F48C850E94C40C811553
:1019E000984088F3DF91CF910895FC018485883079
:1019F00010F40C94C40C90E080E008959F92AF9294
:101A0000BF92CF92DF92EF92FF920F931F93CF93EB
:101A1000DF938C015B01942EE52EFC01C688D788EC
:101A2000F08C80E591E00E945C038F2D0E94870C72
:101A3000C92DDE2D8C179D0708F4EC019E01A50130
:101A4000B6018F2D0E94110CF801868997898C0FA1
:101A50009D1F978B868BCE01DF91CF911F910F91A8
:101A6000FF90EF90DF90CF90BF90AF909F90089540
:101A70008F929F92AF92BF92CF92DF92EF92FF929E
:101A80000F931F93CF936C015B018A01FC01C48506
:101A9000C830F0F57A014130584018F0E12C88E068
:101AA000F82E80E591E00E945C038C2F0E94870C49
:101AB0004C0163E070E08C2F0E947F09873111F0A8
:101AC0008C3149F58E149F0460F380E591E00E940B
:101AD0005C039701A50170E060E08C2F0E94110C5F
:101AE00060E270E08C2F0E949C0962E070E08C2F15
:101AF0000E947F0984FD17C063E070E08C2F0E9474
:101B00007F0981110BC081E090E0F601938382830D
:101B100010E000E010C0F12CE12CD7CF80E591E07F
:101B20000E945C03E2CF40E162E070E08C2F0E94F3
:101B30007007EF2841F3C801CF911F910F91FF90DB
:101B4000EF90DF90CF90BF90AF909F908F900895CF
:101B5000FF920F931F93CF93DF931F921F92CDB7E6
:101B6000DEB7F82E22E030E0AE014F5F5F4F66E255
:101B700070E00E94E10A09811A81102701271027CD
:101B800022E030E0AE014F5F5F4F66E270E08F2DE4
:101B90000E94E10A89819A81982789279827081746
:101BA000190749F4C8010F900F90DF91CF911F9151
:101BB0000F91FF9008958C01E3CF1F93CF93DF9394
:101BC000182F87E0189FE0011124C157DC4F88814E
:101BD0009981009761F480E591E00E945C03812F78
:101BE0000E94A80D2E81821B910999838883DF9121
:101BF000CF911F910895FC018485883010F40C94D6
:101C0000DD0D90E080E008954F925F927F928F9279
:101C10009F92AF92BF92CF92DF92EF92FF920F937B
:101C20001F93CF93DF931F921F92CDB7DEB7782E0D
:101C30006B014A01A82EB12C27E0829FC00111241C
:101C4000FC01E157FC4F7F010081118180E591E0AB
:101C50000E945C030815190554F4872D0E94A80DF5
:101C6000F70126818C01021B1109118300830115E4
:101C7000110529F563E070E0872D0E947F0984310A
:101C800059F0882349F001E010E08C3111F410E0A4
:101C900000E0119501951109C8010F900F90DF9197
:101CA000CF911F910F91FF90EF90DF90CF90BF9059
:101CB000AF909F908F907F905F904F900895801687
:101CC00091060CF4840187E08A9DF0018B9DF00D54
:101CD0001124E157FC4FE280F380C114D10451F18B
:101CE0002701F7E05F22872D0E942507840D951DAF
:101CF0002091C703273309F453C09801240D351DE3
:101D00002130384008F44CC020E038E04901841804
:101D10009508A401B6010E94F4082601480C591C3C
:101D20006801C818D908872D0E942507A601B201AD
:101D30000E94F408E00EF11E87E08A9DF0018B9D61
:101D4000F00D1124E157FC4FF382E28220813181B2
:101D5000201B310B318320838681800F912F911DB1
:101D60008A3F910510F4232BF1F487E08A9DF0015E
:101D70008B9DF00D1124E157FC4F1682F982EA8207
:101D800022E030E0AE014F5F5F4F68E270E0872DE8
:101D90000E94330760E470E0872D0E949C097CCF8D
:101DA000A801B601C5CF868377CFCF93DF93FC011F
:101DB000218D328D2115310529F48FEF9FEFDF91B1
:101DC000CF910895EC01808D4217530708F0A901C7
:101DD0000E94040E1816190684F7298D3A8D281BC7
:101DE000390B3A8F298FEBCF0F931F93CF93DF934C
:101DF0001F92CDB7DEB7FC01218D328D232B41F42C
:101E00008FEF9FEF0F90DF91CF911F910F9108956A
:101E10008C0141E050E0BE016F5F7F4FFC01808D7F
:101E20000E94040E181619065CF7F801818D928D38
:101E30000197928F818F898190E0E4CFCF93DF93D8
:101E40001F92CDB7DEB741E050E0BE016F5F7F4F1C
:101E5000FC0184850E94040E1816190634F4898149
:101E600090E00F90DF91CF9108958FEF9FEFF9CF22
:101E7000FC018485883010F40C94040E90E080E01E
:101E800008958F929F92AF92BF92CF92DF92EF927E
:101E9000FF920F931F93CF93DF9300D000D000D019
:101EA0001F92CDB7DEB79091C703911115C018E00E
:101EB000812F2A960FB6F894DEBF0FBECDBFDF91FB
:101EC000CF911F910F91FF90EF90DF90CF90BF9037
:101ED000AF909F908F90089528E0F22E933311F4E5
:101EE00094E0F92E6B01082F80E591E00E945C03DD
:101EF0009E012F5F3F4F5901490110E063E070E000
:101F0000812F0E947F09F40181934F018823C1F042
:101F10001F5FF112F3CFF12CF50191915F019D311B
:101F200049F0983139F09A51923020F0F3941F1112
:101F3000F3CFBDCF60E170E08F2D0E949C091F2D73
:101F4000E12EF12C83EE93E00197F1F7402F70E042
:101F500060E0812F0E9470074FEF62E070E0812FF8
:101F60000E947007B601CD2889F4809121029091DA
:101F7000220201968115F0EC9F0798F190932202BE
:101F8000809321026091210270912202812F0E9490
:101F90005A0761E070E0812F0E949C0927E02E9D86
:101FA000C0012F9D900D11249C0121573C4F7901B8
:101FB000F9011182108222E030E0AE01475F5F4FED
:101FC00068E270E0812F0E94E10A89859A8598274E
:101FD00089279827F70193838283168215821482BA
:101FE00067CF80E090ECCACF0F931F93CF93DF931E
:101FF000EC018B01888D883010F40E94B809B8017B
:1020000082E00E94410F888F883050F41D870C8732
:102010001A8E198E81E0DF91CF911F910F91089553
:1020200080E0F9CFCF92DF92EF92FF921F93CF9390
:10203000DF93EC017B016A018C85883048F40E94B3
:10204000D109882319F08C850E94AC0988E08C871F
:10205000F70182819381A481B5810097A105B10523
:1020600051F490E080E0DF91CF911F91FF90EF90CD
:10207000DF90CF9008958F3F9F4FAF4FBF4F89F3B1
:1020800070E060E081E20E94410F182F8C87883059
:1020900040F780E591E00E945C03A7014E5F5F4F2F
:1020A00024E030E06CE070E0812F0E943307B6013D
:1020B000812F0E94440764E070E0812F0E949C09F8
:1020C0000E94D2056B017C018C850E94D109873169
:1020D00011F18C3101F1882321F20E94D205AB016C
:1020E000BC014C195D096E097F098D859E85B0E0A4
:1020F000A0E084179507A607B70738F061E070E005
:1021000080E090E00E949F05DFCF8C850E94B80997
:1021100088E08C87A6CF81E090E0A5CF0F931F9336
:10212000CF93DF931F921F92CDB7DEB7FC012485BA
:102130002830E0F48C0180E591E00E945C0322E00D
:1021400030E0AE014F5F5F4F60E170E0F8018485E1
:102150000E94E10A89819A819827892798270F9000
:102160000F90DF91CF911F910F91089590E080E043
:10217000F6CF0F931F93CF93DF931F921F92CDB78C
:10218000DEB7FC0124852830E0F48C0180E591E085
:102190000E945C0322E030E0AE014F5F5F4F64E0DD
:1021A00070E0F80184850E94E10A89819A8198276C
:1021B000892798270F900F90DF91CF911F910F9152
:1021C000089590E080E0F6CFDC0181EA92E08D9303
:1021D0009D9384E0FB0101900D928A95E1F70895AB
:1021E000EF92FF920F931F93CF93DF9300D01F9234
:1021F000CDB7DEB78C017B01FB0184858830A8F068
:1022000081EA92E0F8019183808312821382148222
:102210001582C8010F900F900F900F90DF91CF9112
:102220001F910F91FF90EF90089580E591E00E943B
:102230005C0324E030E0AE014F5F5F4F6CE070E084
:10224000F70184850E94E10ABE016F5F7F4FC801DC
:102250000E94E410DECF0F931F93CF93DF9300D043
:1022600000D01F921F92CDB7DEB78C01D8015996CE
:102270004D915C915A974115510551F0ED91FC91AA
:10228000048CF58DE02D70E060E0C8011995EECF6B
:10229000F801808D0E94DD0D892BB1F148E050E0FE
:1022A000BE016F5F7F4FD80158968C910E94040E3B
:1022B00018161906F4F4D801509684E0FE01319600
:1022C00001900D928A95E1F78D8190E0982F8827F3
:1022D0002E81820F911DF801958B848B8F81282F81
:1022E00030E0322F22278885820F932F911D928F05
:1022F000818F28960FB6F894DEBF0FBECDBFDF9159
:10230000CF911F910F91089590E080E0F2CF4F920E
:102310005F926F927F928F929F92AF92BF92CF9275
:10232000DF92EF92FF920F931F93CF93DF93CDB77E
:10233000DEB763970FB6F894DEBF0FBECDBF7C014A
:102340006B013A01FB0120E090E080E06AE031910E
:10235000332309F461C040ED430F4A3008F04DC00B
:10236000689FA001699F500D1124CA01C097830F77
:10237000911D37FD9A958F3F910549F340F3F70181
:10238000428153816481758180919104909192047E
:10239000A0919304B0919404481759076A077B07EA
:1023A00009F40DC28701085F1F4F0E94D2056F70AC
:1023B00077277C5FC8010E94F40F813009F004C2C6
:1023C00081EA92E09A838983F70182819381A481D3
:1023D000B5818B839C83AD83BE8345E350E0BE0112
:1023E0006F5F7F4FC8010E94C507892BA9F5D12CCB
:1023F000C12CC8010E94C40917C03E3209F0BFCFEA
:10240000233009F4BCCFD301A20FB11D12968C93D7
:102410002F5F90E080E09BCF233009F0B0CFF30135
:102420008583CC24C394D12CC60163960FB6F8944F
:10243000DEBF0FBECDBFDF91CF911F910F91FF90F7
:10244000EF90DF90CF90BF90AF909F908F907F9054
:102450006F905F904F9008950E94D205F7017783A7
:10246000668342E050E0B7016A5F7F4FC8010E9477
:10247000FE0C81E090E09A83898342E050E0BE0147
:102480006F5F7F4FC8010E94FE0C80E091E09A834D
:10249000898342E050E0BE016F5F7F4FC8010E9418
:1024A000FE0C1A82198242E050E0BE016F5F7F4F3E
:1024B000C8010E94FE0C42E050E0BE016F5F7F4FFA
:1024C000C8010E94FE0C42E050E0BE016F5F7F4FEA
:1024D000C8010E94FE0C5601F6018081882301F19B
:1024E0006501F60181912F01882311F08E32B1F43C
:1024F00046018A189B081814190474F48D8641E06B
:1025000050E0BE01635F7F4FC8010E94FE0CA40132
:10251000B501C8010E94FE0C5201DECF6201E1CF7D
:102520001D8641E050E0BE01635F7F4FC8010E94FD
:10253000FE0CC12CDD24D394DA82C98242E050E043
:10254000BE016F5F7F4FC8010E94FE0CDA82C98214
:1025500042E050E0BE016F5F7F4FC8010E94FE0C59
:10256000C8010E94380A892B09F441CFF3E0AF2E4D
:10257000B12C230122E0420E511CD4C0F70142814C
:10258000538164817581808D918DA28DB38D4817A3
:1025900059076A077B0709F008C1848D958DC59797
:1025A00009F003C181A192A15DEFC52EDD24DA946B
:1025B0000C970CF4ADC04CE050E0BE016F5F7F4F54
:1025C000C8010E94D50E8B819C8198278927982766
:1025D0009A8B898BF7014681578129813A8142176D
:1025E000530709F0E7C097FFE5C08F7092703BEF8B
:1025F000C32EDD24DA94892B09F08AC06F80788499
:102600007624672476242AEFC22EDD24DA9461141E
:10261000710409F47DC0D12CC12C8D819E81982735
:1026200089279827C816D906F8F441E050E0BE0182
:10263000635F7F4FC8010E94D50E4D85442331F062
:1026400050E070E060E0C8010E94D50E8D858111D8
:10265000ECCF44E050E070E060E0C8010E94D50E8D
:10266000FFEFCF1ADF0AD9CF912C812C41E050E047
:10267000BE016D5E7F4FC8010E94D50E4B89842F2D
:10268000807C09F06CC0442331F050E070E060E0E1
:10269000C8010E94D50E8B898111E8CF42E050E03D
:1026A000BE01615F7F4FC8010E94D50E42E050E03D
:1026B000BE01635F7F4FC8010E94D50E44E050E029
:1026C00070E060E0C8010E94D50E42E050E0BE011B
:1026D0006F5E7F4FC8010E94D50E8F85988949890A
:1026E0005A898115914009F043C0CD84DE84DC24F1
:1026F000CD24DC2481E0C816D104D1F54115544025
:1027000009F04AC044E050E0B201C8010E94D50E71
:1027100021E0A21AB10809F46CCEFFEFCF16DF0654
:1027200009F067CE0E94D2053B014C01C8010E940E
:102730002B11181619060CF421CF0E94D205661928
:10274000770988099909693873418105910548F528
:1027500062E370E080E090E00E949F05E7CF41E0F7
:1027600050E070E060E0C8010E94D50E1B8A93CF54
:1027700054274527542770E060E0C8010E94D50E19
:10278000FFEF8F1A9F0A6814790409F06FCF96EF54
:10279000C92EDD24DA94BCCFE7EFCE2EDD24DA9407
:1027A000B7CFCC24CA94DC2CB3CF6EEFC62EDD2479
:1027B000DA94AECF4CEFC42EDD24DA94A9CF8EEF9D
:1027C000C82EDD24DA9430CED12CC12C2DCECF9260
:1027D000DF92EF92FF920F931F93CF93DF93CDB7CA
:1027E000DEB7AF970FB6F894DEBF0FBECDBF7C014A
:1027F0006A0101EA12E01A8309831C861B8688EEAF
:1028000093E0A0E0B0E08D879E87AF87B88B87E329
:1028100092E09A878987188F0F8B198E1A8E1B8EDC
:102820001C8E88E089A31BA70AA71CA61DA61EA6AE
:102830001FA68091850490918604A0918704B09191
:1028400088048EA39FA3A8A7B9A78B839C83AD837D
:10285000BE8318861F82AE01465D5F4FCE01019692
:102860000E94871181309105B1F4D701ED91FC915F
:102870000488F589E02D1DA30CA38CA59DA5AEA50C
:10288000BFA58EA39FA3A8A7B9A7A601BE016C5D93
:102890007F4FC7011995AF960FB6F894DEBF0FBEF4
:1028A000CDBFDF91CF911F910F91FF90EF90DF90FF
:1028B000CF900895CF92DF92EF92FF920F931F93E4
:1028C000CF93DF93CDB7DEB7AF970FB6F894DEBFE7
:1028D0000FBECDBF8C016B017A0181EA92E09A8331
:1028E00089831B821C821D821E821C861B8648EEE9
:1028F00053E060E070E04D875E876F87788B27E359
:1029000032E03A872987988F8F8B198E1A8E1B8E0B
:102910001C8E28E029A39BA78AA71CA61DA61EA67D
:102920001FA6D8011C968C91883060F40E94D109B2
:10293000882321F0F80184850E94AC0988E0D80141
:102940001C968C938091850490918604A0918704B5
:10295000B09188048EA39FA3A8A7B9A78B839C835B
:10296000AD83BE8318861F82AE01465D5F4FB60100
:10297000CE0101960E9487110097C1F0D801ED9118
:10298000FC910684F785E02D81EA92E09DA38CA35B
:102990008CA59DA5AEA5BFA58EA39FA3A8A7B9A7EB
:1029A000A701BE016C5D7F4FC8011995AF960FB6A8
:1029B000F894DEBF0FBECDBFDF91CF911F910F9175
:1029C000FF90EF90DF90CF9008950F931F93CF93D8
:1029D000DF93EC01FB0101900020E9F78F01061B5A
:1029E000170B8A819B81A801480F591F2C813D81BB
:1029F0002417350768F028813981A801820F931FB9
:102A00000E947E2A4A815B81400F511F5B834A836B
:102A1000DF91CF911F910F9108958F929F92AF9266
:102A2000BF92CF92DF92EF92FF920F931F93CF93BB
:102A3000DF937C01EB016C0182E0C80ED11C4701E1
:102A4000E5E08E0E911C10E000E0F60141916F016F
:102A500050E070E060E02AE0CE010E94A8085C012E
:102A6000E881F9810190F081E02D6EE2CE011995A7
:102A70008A0D9B1D080F191FC814D90431F7F701DF
:102A8000458150E070E060E02AE0CE010E94A80895
:102A9000800F911FDF91CF911F910F91FF90EF90C9
:102AA000DF90CF90BF90AF909F908F9008953F920E
:102AB0004F925F926F927F928F929F92AF92BF924E
:102AC000CF92DF92EF92FF920F931F93CF93DF93FA
:102AD000CDB7DEB7EA970FB6F894DEBF0FBECDBF15
:102AE0007C012A013B0169010E94D2054B015C0176
:102AF00087010D5B1F4FC8010E942B111816190684
:102B00009CF00E94D205681979098A099B0946162A
:102B100057066806790608F466C162E370E080E053
:102B200090E00E949F05E7CF42E250E0BE016F5F58
:102B30007F4FC8010E94D50E89818230D1F0312C9F
:102B4000832DEA960FB6F894DEBF0FBECDBFDF919E
:102B5000CF911F910F91FF90EF90DF90CF90BF909A
:102B6000AF909F908F907F906F905F904F903F902D
:102B70000895F801848995898334910501F76D8161
:102B80007E818F8198850E9489294B015C01F60125
:102B900080829182A282B38246E050E0B701685FF2
:102BA0007F4FCE014D960E94712A892B41F6F70185
:102BB00080819181A281B38188169906AA06BB06FD
:102BC00008F4BDCF84819581A681B78188159905C8
:102BD000AA05BB0508F4B3CF89899A89AB89BC895A
:102BE00086879787A08BB18B4EEC50E070E060E059
:102BF000C8010E94D50E312CC701829698AB8FA7D1
:102C0000F701B696FAABE9AB08969CAB8BAB6701C4
:102C10009AE1C90ED11CBD96FEABEDABC701429641
:102C200098AF8FABFD97FAAFE9AF4701FEE18F0E8A
:102C3000911CF801818D928D181619060CF080CF29
:102C4000C8010E94F40E8333910509F4B2C014F553
:102C50008130910509F464C044F4892B51F3C80113
:102C60000E94F40EAC01552775C08330910509F41C
:102C700062C00697A1F7C8010E94F40EB82E44E086
:102C800050E0B401C8010E94D50EEB2DE450FF0BBB
:102C9000AF0160C08A33910509F45FC084F58533C4
:102CA0009105B1F1C697D9F6C8010E94F40E5C01F6
:102CB000B601CE0189960E94E4108BA59CA5ADA516
:102CC000BEA5892B8A2B8B2BB1F0EDA9FEA94080E4
:102CD000518062807380B601CE0183960E94E41019
:102CE0008DA19EA1AFA1B8A5A501481659066A06F7
:102CF0007B0609F0B8CF44E050E0B60118C08B3332
:102D0000910509F440C08F3F910509F492CFA7CFF8
:102D1000C8010E94F40EC8010E94F40E382E89CF1B
:102D2000C8010E94F40E44E050E06FA978ADC801DC
:102D30000E94D50E7ECFC8010E94F40EB82E44E04A
:102D400050E069AD7AADC8010E94D50E8B2D84503C
:102D5000990BAC0170E060E0EACFC8010E94F40E6C
:102D600044E050E069A97AA9C8010E94D50EF70194
:102D700066A177A180A591A50E94892966A377A362
:102D800080A791A756CFC8010E94F40E44E050E0FE
:102D90006BA97CA9C8010E94D50EF70162A573A595
:102DA00084A595A50E94892962A773A784A795A7E2
:102DB00040CFC8010E94F40E44E050E06FA578A90E
:102DC000C8010E94D50EF70162A173A184A195A14B
:102DD0000E94892962A373A384A395A366A777A7FA
:102DE00080AB91AB26CF33243A94AACE7F928F92B8
:102DF0009F92AF92BF92CF92DF92EF92FF920F938A
:102E00001F93CF93DF93CDB7DEB7A6970FB6F89495
:102E1000DEBF0FBECDBF8C01762E942E852E20E214
:102E2000A22ECE0101967C01DC01EA2D1D92EA95CD
:102E3000E9F76801F3E4CF0ED11C81EA92E09AA38E
:102E400089A38FEF8BA38CA38DA38EA343E450E0C3
:102E5000BE016F5D7F4FC6010E94C507019609F450
:102E6000BFC081E089838A8386E0B82EBB821C8242
:102E7000D80114966D917D918D919C9117970E9428
:102E800089296D837E838F83988789869A8680E8D7
:102E900090E09C878B874CE150E0B701C6010E940F
:102EA000FE0CFE0137968AE1DF011D928A95E9F753
:102EB0004801B8E08B0E911CF401D70101900D92EE
:102EC000BA94E1F740E150E0B701C6010E94FE0C60
:102ED000F7011192AA94E9F796E0A92EB12C40E2ED
:102EE00050E0B701C6010E94FE0CF1E0AF1AB10834
:102EF000B1F783E6898392E89A8393E59B838C8379
:102F000085E38D8381E08E837F829DE3988797E0C0
:102F100099878A8786E0F401DE011B9601900D9265
:102F20008A95E1F78CE0898B8A8B64EB72E0CE01A5
:102F300043960E94972AD8011B966C91CE01499620
:102F40000E945F03F8016485CE014B960E945F03E7
:102F5000D8011D966C91CE014D960E945F034EE103
:102F600050E0B701C6010E94FE0CB3E07B121EC008
:102F700082E3898384E08A83F80196859B83978521
:102F80009C8390899D8391899E8396E39F83888704
:102F9000828D8987838D8A87848D8B87858D8C87A9
:102FA0004CE050E0B701C6010E94FE0C87E3898324
:102FB00086E08A8391E09B8393E09C838D838FE0FE
:102FC0008E838AE38F838BE388878FEF898749E03D
:102FD00050E0B701C6010E94FE0CC6010E94380AEB
:102FE000A6960FB6F894DEBF0FBECDBFDF91CF918E
:102FF0001F910F91FF90EF90DF90CF90BF90AF9017
:103000009F908F907F9008950F931F93CF93DF939E
:10301000CDB7DEB762970FB6F894DEBF0FBECDBF57
:103020008C01CB014AE0BE016F5F7F4F0E94CC282C
:10303000BE016F5F7F4FC8010E94E51462960FB614
:10304000F894DEBF0FBECDBFDF91CF911F910F91DE
:1030500008953F924F925F926F927F928F929F92CC
:10306000AF92BF92CF92DF92EF92FF920F931F9396
:10307000CF93DF93CDB7DEB7A3970FB6F894DEBF3B
:103080000FBECDBF5C010DB71EB71BA30AA360E046
:1030900070E0CB010E949F05D50157968D919C91C0
:1030A0005897912C029709F43DC456968C915697E7
:1030B0008F5F56968C93569754962D913C91232B67
:1030C00019F09924939427C48330D8F7F5018081AF
:1030D00091810E941B08882309F400C48E010F5FB0
:1030E0001F4F380150E1452E512CD501ED91FC9137
:1030F00080819181DC01ED91FC910084F185E02DCE
:103100001995181619060CF0E9C3D501ED91FC913B
:1031100045E050E0BE01695E7F4F808191810E9451
:10312000DE05009711F3059709F048C0888D998D49
:10313000982789279827998F888F0A8D1B8D1027AC
:10314000012710271B8F0A8F892BC1F18F898111CD
:103150003EC00E94D205F501668377838087918700
:103160002789308D4A8D5B8D232B61F5288D398D14
:103170002130310539F549305105E1F0483C510520
:1031800019F044305105D1F4D5011E966D937D930D
:103190008D939C935197E1E0F0E05896FC93EE9369
:1031A0005797C5010E94D62060E070E0CB010E94D5
:1031B0009F059BCF83E090E0908F878BF501808106
:1031C0009181A6C34530510509F08FCFF7CFF501A6
:1031D000808191810130F4E01F0740F0D5015896BD
:1031E0001C921E9257970E942E087FCF8DB69EB6D6
:1031F00098012F5F3F4FEDB7FEB7E21BF30B0FB601
:10320000F894FEBF0FBEEDBF2DB73EB72F5F3F4F07
:103210007901A801B901DC018D919C910E94DE0524
:103220008017910709F06CC0EA8DFB8DEE0DFF1D34
:1032300010820E94D205F50166837783808791878B
:103240008F89813109F43AC358F58630D1F08F3037
:1032500009F4ACC0823051F5D50157968D919C91FF
:103260005897892B71F4E1E0F0E05896FC93EE93C7
:103270005797C5010E94D62060E070E0CB010E9404
:103280009F05488D598DD12CC12CF12CE12C08ECD7
:1032900010E030E020E060E0C5010E94B61D14C0DF
:1032A0008D31D1F268F4843109F480C0D50158968B
:1032B0001C921E9257978D919C910E942E0804C0DB
:1032C000893241F0873391F70FB6F8949EBE0FBE56
:1032D0008DBE0BCF84819581892B39F480E290E0FB
:1032E0000E94B526F501958384830A8D1B8D0E0DF2
:1032F0001F1DFA82E9821C830B83E016F10630F071
:103300000FB6F8949EBE0FBE8DBE58CF40E250E07F
:10331000B701D50114968D919C910E949E2AC301FC
:103320000E94B420FC018081918180179107D8F51B
:1033300089819A81009799F12B813C8182179307AB
:1033400070F50E949C288B01D5018D919C910E9463
:103350002E08D501ED91FC91119714968D919C91B9
:103360001597918780871387028758961C921E9223
:1033700057970E94D205DC01CB0188589341A109DF
:10338000B109F50182879387A487B58786839783E0
:10339000A087B18786879787A08BB18B95CF60E098
:1033A00070E0CB01D0CF00E510E0CECF888D998DB5
:1033B000D50155969C938E9354970A8D1B8D19A316
:1033C00008A36801CE0CDF1CFD8EEC8EDF8ECE8E46
:1033D000EC14FD0408F08EC1D7010D911C91CE01B3
:1033E0004C960E94B420FC01808191818C159D0532
:1033F00008F080C18C8D9D8DDC012C91213409F069
:1034000065C001960E947E2846E3342E380E409710
:103410000CF461C00637B2E71B0709F406C208F0D6
:1034200094C30136F2E71F0709F47AC3043622E792
:10343000120709F060C033243A947A8A698A1C8A98
:103440001B8A5E8A4D8A69EC72E0CE0141960E9429
:10345000E514032D10E0B801CE0141960E94041836
:10346000F801EA5FFB4F8491F801E054FC4FF490BF
:1034700006581C4FF801049160E070E0002389F0C9
:1034800081110E94A904E02FF0E0EE0FFF1FE05A27
:10349000FC4FA591B491EC91FE2261E070E009F43B
:1034A00060E0CE0141960E9404180B891C890150EE
:1034B000110929893A89D12CC12CF12CE12C50E039
:1034C00040E064E1C5010E94B61D14C1CE014C96D6
:1034D0000E94C720382E0637B2E71B0709F4A7C1A0
:1034E000E0F40136F2E71F0709F4AAC0043622E728
:1034F000120709F4A2CF00371D4609F466C0D501B2
:1035000054964D915C91D12CC12CF12CE12C02E010
:1035100010E030E020E060E0D5CF043647E7140744
:1035200009F473C0063757E7150709F49AC1013645
:10353000174729F7CE014C960E94B420DC018D91EB
:103540009C918C159D0508F0D5C061E0832D0E94EB
:103550003E05CE014C960E94C7208C0161E0832D70
:103560000E943E050115110509F465C00F3F1105C4
:1035700009F09AC061E060C0CE014C960E94C7205D
:10358000F82ECE014C960E94B4200C8D1D8D6BEB55
:1035900072E0C8010E948E2A60E0892B79F06EEB00
:1035A00072E0C8010E948E2A892B39F062EC72E029
:1035B000C8010E948E2A892BE9F461E08F2D0E94B8
:1035C0003E05CE014C960E94B4208C8D9D8D8C15AD
:1035D0009D0508F08FC0DC012C91213469F601961D
:1035E0000E947E2836E3F32EF80E409754F2FF2413
:1035F000FA94C7CF66EC72E0C8010E948E2A892B2C
:1036000001F762E0DBCF33243A94CE014C960E945E
:10361000B420DC018D919C918C159D0508F06AC049
:1036200061E0832D0E943E05CE014C960E94C7208A
:1036300061E0892B09F460E0832D0E9410055AC0D7
:103640007A8A698A1C8A1B8A5E8A4D8A6CEC72E0CF
:10365000CE0141960E94E514632D70E0CE014196A3
:103660000E940418B5E3B31510F4EAEC3E0E9091F5
:103670007B00832D8870977F892B80937B00832D1F
:103680008770806480937C0080917A00806480934E
:103690007A0080917A0086FDFCCF8091780060915D
:1036A0007900762F682FFDCEE32DF0E0EA5FFB4F27
:1036B000E491E150E23108F0B3C0F0E08827EC5922
:1036C000F44E8F4F0C948129761B7E1B831B8D1B20
:1036D000971B101CA11BA91BB11BBB1BC51BCF1B20
:1036E000DE1BE81B101CF21BFC1B061C84B580684B
:1036F00084BD07BDF501158A148AE6CD84B58062C4
:1037000084BD08BDF7CF80918000806880938000E1
:103710001093890000938800EDCF80918000806233
:103720008093800010938B0000938A00E3CF8091F8
:10373000800088608093800010938D0000938C003F
:10374000D9CF8091B00080688093B0000093B3001F
:10375000D1CF8091B00080628093B0000093B4001C
:10376000C9CF809190008068809390001093990059
:1037700000939800BFCF809190008062809390006A
:1037800010939B0000939A00B5CF809190008860C1
:103790008093900010939D0000939C00ABCF80918C
:1037A000A00080688093A0008091A0008F7B809310
:1037B000A0001093A9000093A8009CCF8091A000C6
:1037C00080628093A0001093AB000093AA0092CF78
:1037D0008091A00088608093A0001093AD000093BA
:1037E000AC0088CF809120018068809320011093E5
:1037F0002901009328017ECF80912001806280936F
:10380000200110932B0100932A0174CF8091200195
:1038100088608093200110932D0100932C016ACFC2
:10382000003811050CF0A6CE06CF33243A94398225
:1038300037FC60CFE32DF0E0EE0FFF1FE45BFB4FA2
:10384000259134912115310509F454CFB3E02B357E
:103850003B0709F44FCFC301F90119954BCF33242E
:103860003A94CE014C960E94B4202C8D3D8DC90116
:103870008E199F0908A119A1081B190B3A832983E6
:103880001C830B831E830D83398A37FC33CFE32DD2
:10389000F0E0EE0FFF1FE45BFA4F25913491211504
:1038A000310509F427CF13E02A35310709F422CF77
:1038B000B301CE014196F90119951CCF8A8D9B8DDC
:1038C0008E0D9F1DFA82E9829C838B83E816F90690
:1038D00008F0FACCC3010E94B420F6CC0E94D205B5
:1038E0002B013C01D5018D919C910E941B08F50193
:1038F0002789308D2130310509F089C0811132C00E
:1039000046865786608A718A108E178A80819181D7
:103910000E942E08912CD50156968C915697815075
:1039200056968C93892DAAA1BBA10FB6F894BEBF61
:103930000FBEADBFA3960FB6F894DEBF0FBECDBFCE
:10394000DF91CF911F910F91FF90EF90DF90CF907B
:10395000BF90AF909F908F907F906F905F904F90AF
:103960003F90089586819781A085B185930182015A
:10397000081B190B2A0B3B0BD901C80189331AE428
:103980009107A105B10518F0108E178A18CC813166
:103990009742A105B10590F482859385A485B585EC
:1039A00093018201081B190B2A0B3B0BD901C8019B
:1039B00081319742A105B10508F483CBF5018685D5
:1039C0009785A089B18993018201081B190B2A0BE5
:1039D0003B0BD901C801893B9B40A105B10508F407
:1039E00070CBD12CC12CF12CE12C10E000E030E0A8
:1039F00020E050E040E066E0C5010E94B61DD50120
:103A00001E964D925D926D927C9251975ACB232BCC
:103A100009F057CB468557856089718993018201EA
:103A2000041B150B260B370BB901A801882381F065
:103A3000493B5B406105710508F443CB808191816E
:103A40000E942E08D50158961C921E92579762CF5D
:103A5000493853416105710508F433CB8081918168
:103A60000E942E08D5010D911C91F8016085718589
:103A70008081918142855385DC01ED91FC91611536
:103A80007105A9F00088F189E02D19959924939486
:103A9000019709F0912CF801948691101EC0D50170
:103AA0001E964D925D926D927C92519734CF068412
:103AB000F785E02D21EA32E03A832983D801149674
:103AC000CD90DD90ED90FC901797CB82DC82ED825B
:103AD000FE82BE016F5F7F4FD8CF81E090E0F5019D
:103AE000938B828B22813381F90101900020E9F7C9
:103AF00031978F01021B130BD12CC12CF12CE12C1F
:103B000041E050E06DE1C5010E94B61DF5018285DE
:103B10009385A485B58586879787A08BB18BFBCECF
:103B20007A8A698A1C8A1B8A5E8A4D8A6CEC72E0EA
:103B3000CE0141960E94E5146FEF70E0CE014196F0
:103B40000E94041833243A9490CD043647E71407B2
:103B500009F459CD063757E7150709F480CE013629
:103B6000174709F0CCCC33243A94E4CC2F923F92FF
:103B70004F925F926F927F928F929F92AF92BF927D
:103B8000CF92DF92EF92FF920F931F93CF93DF9329
:103B900000D000D0CDB7DEB75C016E834A01390199
:103BA000DC018D919C910E941B08882309F4D3C0ED
:103BB0008E818D7F09F401C1BE81B63009F4FDC04C
:103BC000BD3109F4FAC0F5018789908D019709F09C
:103BD000C2C081149104B9F4D50154968D909C9083
:103BE00055978114910479F452968D919C91539735
:103BF000019609F4C9C053969C938E935297D501B0
:103C000052968D909C908E818C50893090F5F50164
:103C100082859385A485B5854681578160857185A8
:103C2000481759076A077B0710F4AC01BD011A0158
:103C30002B01F2E42F0E311C411C511C0E94D205B5
:103C4000A2019101261B370B480B590BDA01C90160
:103C5000B7FDA0C0C5010E9429180E94D205A2018B
:103C60009101261B370B480B590BDA01C901B7FF2D
:103C7000F1CFC80105966114710411F485E090E05C
:103C8000512C412CE114F10409F02601480E591E73
:103C9000BE81B9839824892498249B828A82C80192
:103CA0008C0D9D1D9827892798279D838C83D5018E
:103CB000ED91FC9180819181DC01ED91FC9102807C
:103CC000F381E02D45E050E0BE016F5F7F4F199515
:103CD0004C0160E070E0CB010E949F05BE81BB23D8
:103CE00081F101151105A9F0D501ED91FC918081BB
:103CF0009181DC01ED91FC910280F381E02DA8011E
:103D0000B3011995880E991E60E070E0CB010E9406
:103D10009F05C114D104A9F0D501ED91FC918081DA
:103D20009181DC01ED91FC910280F381E02DA601EF
:103D3000B7011995880E991E60E070E0CB010E94D2
:103D40009F058414950479F1F501108E178A8081FE
:103D500091810E942E0826960FB6F894DEBF0FBE02
:103D6000CDBFDF91CF911F910F91FF90EF90DF902A
:103D7000CF90BF90AF909F908F907F906F905F900B
:103D80004F903F902F90089581E090E0F501938B44
:103D9000828B35CFD50156968C9181116ACFC501A2
:103DA0000E94291866CF0E94D205D5011A966D93FC
:103DB0007D938D939C931D97CECF8114910409F030
:103DC00058CF0ACFCF92DF92EF92FF920F931F93BB
:103DD000CF93DF93CDB7DEB7C650D4400FB6F8947B
:103DE000DEBF0FBECDBF8C01CE010196CF5FDB4F92
:103DF00099838883C150D440CD5FDB4F19821882EC
:103E0000C350D44080E094E0CB5FDB4F998388833C
:103E1000C550D4406FEC72E0CE018F5F9B4F0E9483
:103E2000E514B801CE018F5F9B4F0E94041862ED2C
:103E300072E0CE018F5F9B4F0E94E514CD5FDB4F98
:103E400008811981C350D44001501109CF5FDB4F65
:103E500028813981C150D440D12CC12CF12CE12CC6
:103E600050E040E064E181EE94E00E94B61DCA5F3C
:103E7000DB4F0FB6F894DEBF0FBECDBFDF91CF9101
:103E80001F910F91FF90EF90DF90CF900895AF9228
:103E9000BF92CF92DF92EF92FF920F931F93CF9337
:103EA000DF93CDB7DEB72E970FB6F894DEBF0FBE07
:103EB000CDBF5C0125E4A20EB11CF501C080CC2071
:103EC00051F17C01FC01048110E0CE0101969A873A
:103ED00089871C861B8688E090E09E878D876FEC23
:103EE00072E0CE0109960E94E514B801CE01099650
:103EF0000E940418D12CF5E0EF0EF11C0B851C85F7
:103F000029853A8550E040E064E181EE94E00E942A
:103F1000B61DF50110822E960FB6F894DEBF0FBEC7
:103F2000CDBFDF91CF911F910F91FF90EF90DF9068
:103F3000CF90BF90AF900895CF92DF92EF92FF9213
:103F40000F931F93CF936B01FB01E080F18066E03C
:103F500070E090E080E00E9490298C01009729F4A5
:103F6000E114F10491F4C1E015C0FC01108266ED8A
:103F700072E00E94972AE114F10489F5C1E0F8018A
:103F80008081882399F1C0E031C0C1E0F7018081D0
:103F90008111C0E0CC2371F16CED72E08BE994E00B
:103FA0000E94770861EB72E08BE994E00E94770849
:103FB0006EEE72E08BE994E00E94770861EB72E0AC
:103FC0008BE994E00E9477088BE994E0CF911F91F0
:103FD0000F91FF90EF90DF90CF900C94471FB701A7
:103FE000C8010E948E2AC1E0892B69F6C8010E948F
:103FF0005127D0CF6DEF72E08BE994E00E947708F3
:10400000F60142815381608171818BE994E00E94C5
:104010003B08D4CF1F920F920FB60F9211240BB60C
:104020000F922F933F934F935F936F937F938F9351
:104030009F93AF93BF93EF93FF9388EC93E00E941D
:10404000E903FF91EF91BF91AF919F918F917F9184
:104050006F915F914F913F912F910F900BBE0F90F9
:104060000FBE0F901F9018951F920F920FB60F92D0
:1040700011240BB60F922F938F939F93EF93FF937F
:10408000E091D803F091D9038081E091DE03F091B3
:10409000DF0382FD1DC090818091E1038F5F8F73EC
:1040A0002091E203821741F0E091E103F0E0E85350
:1040B000FC4F958F8093E103FF91EF919F918F913A
:1040C0002F910F900BBE0F900FBE0F901F90189561
:1040D0008081F2CF1F920F920FB60F9211242F936F
:1040E0003F938F939F93AF93BF93809119039091C8
:1040F0001A03A0911B03B0911C033091180323E015
:10410000230F2D3758F50196A11DB11D20931803DB
:104110008093190390931A03A0931B03B0931C037D
:1041200080911D0390911E03A0911F03B091200365
:104130000196A11DB11D80931D0390931E03A093B2
:104140001F03B0932003BF91AF919F918F913F9137
:104150002F910F900FBE0F901F90189526E8230FF8
:104160000296A11DB11DD2CFDC01ED91FC911197FA
:10417000309761F012962D913C911397E217F30757
:1041800028F401900020E9F7ED93FC930895FC01D9
:1041900080819181009739F02281338182179307C2
:1041A00010F40C947E2890E080E00895AF92BF92C6
:1041B000CF92DF92EF92FF920F931F93CF93DF93F3
:1041C000CDB7DEB7C65AD1090FB6F894DEBF0FBE21
:1041D000CDBF5C0146E650E06CE472E0CE01019692
:1041E0000E94C328D12CC12CCE0189599F4F7C013C
:1041F00006E610E09E012F5F3F4F50E040E061E196
:10420000C5010E94B61DCA55DF4F0FB6F894DEBF38
:104210000FBECDBFDF91CF911F910F91FF90EF9017
:10422000DF90CF90BF90AF900895E8ECF3E0138259
:10423000128288EE93E0A0E0B0E084839583A683A9
:10424000B78381E692E09183808385EC90E0958747
:10425000848784EC90E09787868780EC90E0918B50
:10426000808B81EC90E0938B828B82EC90E0958B3D
:10427000848B86EC90E0978B868B118E128E138E3A
:10428000148EE5E6F4E081EA92E091838083128265
:10429000138214821582EBE6F4E09183808312820C
:1042A000138214821582E1E7F4E091838083128205
:1042B000138214821582E7E7F4E0918380831282EF
:1042C000138214821582EDE7F4E0918380831282D9
:1042D000138214821582E9E8F4E0918380831282CC
:1042E000138214821582E3E8F4E0918380831282C2
:1042F000138214821582EFE8F4E0918380831282A6
:10430000138214821582E5E9F4E09183808312829E
:10431000138214821582ECE1F5E09183808312828E
:10432000138214821582EDE0F5E01382128223E7F6
:1043300032E03183208328E0248728EE33E036877B
:104340002587A0E0B5E013969C938E931297149660
:104350001D921D921D921C92179719961C921E92E7
:1043600018971B961C921E921A971C961C921C97CB
:104370001196FC93EE9348EB5BE060E070E04483C1
:10438000558366837783E1EEF4E0B183A0831382E3
:104390001282158214821682178210861186128666
:1043A00013861486158616861786108A118A138A34
:1043B000128A158A148A168A108E178AEBE9F4E09D
:1043C00014821382128287EA92E091838083109292
:1043D000E0040895CF93DF9300D000D000D01F9267
:1043E000CDB7DEB7789484B5826084BD84B5816032
:1043F00084BD85B5826085BD85B5816085BD8091B0
:104400006E00816080936E00109281008091810027
:10441000826080938100809181008160809381001F
:10442000809180008160809380008091B1008460E1
:104430008093B1008091B00081608093B000809142
:1044400091008260809391008091910081608093BF
:104450009100809190008160809390008091A100F4
:1044600082608093A1008091A10081608093A1006F
:104470008091A00081608093A000809121018260E2
:10448000809321018091210181608093210180919D
:10449000200181608093200180917A008460809364
:1044A0007A0080917A00826080937A0080917A000D
:1044B000816080937A0080917A00806880937A008E
:1044C0001092C100E091D803F091D90382E080837B
:1044D000E091D403F091D5031082E091D603F091DE
:1044E000D7038FEC80831092E003E091DC03F0911E
:1044F000DD0386E08083E091DA03F091DB038081C5
:1045000080618083E091DA03F091DB038081886031
:104510008083E091DA03F091DB03808180688083FF
:10452000E091DA03F091DB0380818F7D80838EEF51
:104530008093FA049DEE9093FB042AEB2093FC04F5
:104540008093FD048093FE049093FF0420E032E00A
:10455000D9010D900020E9F79D0121503240A0E0E3
:10456000B2E0E1E0F0E0AD014050524042175307A5
:1045700084F4AF014F5F5F4F6D91EF51FB4F818D21
:104580008627818F4630510514F041E050E0FA0152
:10459000EACF8091870381112AC010926F03109295
:1045A0006E0388EE93E0A0E0B0E0809370039093F8
:1045B0007103A0937203B093730387E392E0909327
:1045C0006D0380936C0381EA92E090937B03809368
:1045D0007A0310927C0310927D0310927E03109256
:1045E0007F0388E08093840381E08093870389E2DE
:1045F00093E09093280380932703809126038111F1
:104600009BC060E372E080E090E00E949F051FB7CE
:10461000F89480912403811127C0EFEAF3E084919C
:10462000E5EFF3E09491E82FF0E0EE0FFF1FE25387
:10463000FD4FA591B491EC91E92321F461E085E36C
:104640000E94100561E085E30E943E058CB5806103
:104650008CBD8CB580648CBD61E084E30E943E0516
:1046600061E083E30E943E05809124038F5F809385
:1046700024031FBFE4E8F3E0E491F0E0EE0FFF1F36
:10468000EC54FD4F859194919093230380932203E2
:10469000EAECF3E0E491E093210361E08AE00E9418
:1046A0003E050E94480680E591E00E945C0384E399
:1046B0008093C70380E80E9412070E947C0A882327
:1046C00009F4EAC188E00E9412070E94690A883052
:1046D00009F0E2C180E10E9412070E94690A80315C
:1046E00009F0DAC180E00E9412070E94690A182FBF
:1046F0008111D2C141E050E0BE016F5F7F4F8FE179
:1047000090E00E94F4088981833009F0C5C180E4FB
:104710008093250342E06EE170E0812F0E947007D4
:1047200042E06FE170E0812F0E9470071F5F183038
:1047300089F781E08093260380E591E00E945C0385
:1047400046E050E06AEF74E089E090E00E94640681
:1047500081EA92E09A8389831B821C821D821E82D9
:1047600044E050E0BE016D5F7F4F8FE090E00E941B
:1047700064060091270310912803F80112A213A2E6
:1047800014A215A216A217A210A611A612A613A66D
:1047900014A615A680E69AEEA0E0B0E086AB97AB33
:1047A000A0AFB1AF80EA9FE0A0E0B0E082AF93AFEE
:1047B000A4AFB5AFD801189686E0FD01282F11925D
:1047C0002A95E9F79801225F3F4F94E1F901119290
:1047D0009A95E9F7EAEFF4E001900D928A95E1F7F6
:1047E000C8018E5B9F4F9A878987DC011C920E94CB
:1047F00026282FEC37E040E050E00E941E29DC0123
:10480000CB010196A11DB11DF80184839583A68378
:10481000B78380839183A283B3835801F3E4AF0EFF
:10482000B11CC5010E94C40964E470E0C5010E9486
:10483000F40F882309F499C10E94D2052B013C0191
:1048400048EEC42E43E0D42EE12CF12C52E0252E6C
:10485000912C812CA985BA858C918330B9F1811175
:104860008EC1F80184819581A681B7810196A11D31
:10487000B11D84839583A683B7830E94D2056419F2
:10488000750986099709A70196010E945029A90177
:1048900061E0C8010E94F61681E0A985BA858C9373
:1048A000F1E08F169104B1F20E94D20564197509E6
:1048B00086099709D801D6962D913D914D915C912D
:1048C000D997261737074807590710F6C5010E94E0
:1048D000C409F80184819581A681B7810196A11D43
:1048E000B11D84839583A683B7830E94D205F80106
:1048F000FE9660837183828393838A94892809F06A
:1049000034C180E591E00E945C030091270310917F
:104910002803B801625F7F4FCE0101960E94E41028
:1049200044E050E0BE016D5F7F4F8FE090E00E9459
:104930006406B8016A5E7F4FCE0101960E94E410C2
:1049400044E050E0BE016D5F7F4F81E090E00E9447
:104950006406B8016E5E7F4FCE0101960E94E4109E
:1049600044E050E0BE016D5F7F4F85E090E00E9423
:104970006406B801625E7F4FCE0101960E94E4108A
:104980008B819C81AD81BE81809385049093860448
:10499000A0938704B09388040E947A057F73809166
:1049A0002102909122026827792770932202609356
:1049B000210268EE73E080E090E00E949F0581EAAA
:1049C00092E09A8389831B821C821D821E8280E56D
:1049D00091E00E945C0344E050E0BE016D5F7F4FB8
:1049E0008FE090E00E94F40880E092E09093E4046D
:1049F0008093E3040E94D205DC01CB0188589341E7
:104A0000A109B1098093EB049093EC04A093ED0409
:104A1000B093EE048093E7049093E804A093E90434
:104A2000B093EA048093EF049093F004A093F10410
:104A3000B093F204E091E104F091E20487E093E0A6
:104A40009187808780E590E0938782878091E10459
:104A50009091E2040E942E081092F9041092F8043A
:104A60000E94D2056B017C018091F8049091F904B9
:104A7000019709F44FC10E94D2056C197D098E0976
:104A80009F09683273428105910508F043C181EEA8
:104A900094E00E942918E8CF87E38093C70380E859
:104AA0000E9412070E947C0A882329F188E00E9454
:104AB00012070E94690A8830F1F480E10E9412070F
:104AC0000E94690A182F8031B1F480E00E94120719
:104AD0000E94690A81110FC041E050E0BE016F5F82
:104AE0007F4F89E390E00E94F4088981843019F4B3
:104AF000109325031ECE83E38093C70380E80E94B2
:104B000012070E947C0A882371F180E10E9412073B
:104B10000E94690A803139F582E10E9412070E94E1
:104B2000690A823101F580E00E9412070E94690A39
:104B3000811119C084E08093250315E5188741E0B1
:104B400050E0BE01685F7F4F8BE190E00E946406F9
:104B50001F8341E050E0BE01695F7F4F8AE190E032
:104B60000E946406E6CD1092C70360E177E280E020
:104B700090E00E949F05F0E0E0E01995FFCF8430BF
:104B8000F9F4F80184819581A681B7810196A11D70
:104B9000B11D84839583A683B7830E94D2056419CF
:104BA000750986099709A70196010E945029A90154
:104BB00063E0C8010E94F616A985BA852C9270CED2
:104BC000813059F5F80142AD53AD64AD75AD9E012C
:104BD0002F5F3F4FC8010E945715382EF2E08F1308
:104BE00092C089819A81AB81BC81F80184839583CD
:104BF000A683B7830E94D2056419750986099709AF
:104C0000A70196010E945029A90163E0C8010E94F2
:104C1000F616A985BA853C9243CE823009F040CE83
:104C2000F80142AD53AD64AD75AD9E012F5F3F4FAE
:104C3000C8010E945715382EF5E08F135DC0E3E0E0
:104C4000A985BA85EC93F80182A193A1A4A1B5A18D
:104C5000892B8A2B8B2B41F484E893E0A0E0B0E011
:104C600082A393A3A4A3B5A3F80186A197A1A0A5AD
:104C7000B1A5892B8A2B8B2B61F482A193A1A4A1CE
:104C8000B5A1B695A7959795879586A397A3A0A755
:104C9000B1A7F80182A593A5A4A5B5A5892B8A2B58
:104CA0008B2BA9F482A193A1A4A1B5A1AC01BD0154
:104CB00023E076956795579547952A95D1F7841BFC
:104CC000950BA60BB70B82A793A7A4A7B5A7F801CE
:104CD00086A197A1A0A5B1A586A797A7A0ABB1ABC8
:104CE00082A593A5A4A5B5A582AB93ABA4ABB5ABA8
:104CF00088248394912CD4CDF6E08F1304C0A98529
:104D0000BA851C92CDCDBFEF3B12CACDE985FA859D
:104D10001082C6CD8091F8049091F904019709F0B2
:104D200095CE8BE994E00E94471F80919F0490E00C
:104D30000E94E21E83E493E00E94860885E393E0EC
:104D40000E9486088FE093E00E94860888EE92E039
:104D50000E9486088BE994E00E94471F81EE94E050
:104D60000E9429180E947804F9CF0F931F93CF93C4
:104D7000DF938230910510F482E090E0E091240509
:104D8000F091250530E020E0B0E0A0E0309799F404
:104D90002115310509F44AC0281B390B243031058F
:104DA000D8F58A819B816115710589F1FB01938397
:104DB0008283FE0111C04081518102811381481715
:104DC0005907E0F04817590799F4109761F01296C7
:104DD0000C93129713961C933296CF01DF91CF91CB
:104DE0001F910F9108950093240510932505F4CF8A
:104DF0002115310551F04217530738F0A901DB01A5
:104E00009A01BD01DF01F801C1CFEF01F9CF909305
:104E1000250580932405CDCFFE01E20FF31F81937A
:104E200091932250310939832883D7CF20912205CD
:104E300030912305232B41F4209125023091260245
:104E400030932305209322052091230230912402E0
:104E50002115310541F42DB73EB7409127025091FD
:104E60002802241B350BE0912205F0912305E2175F
:104E7000F307A0F42E1B3F0B2817390778F0AC017D
:104E80004E5F5F4F2417350748F04E0F5F1F50935A
:104E9000230540932205819391939FCFF0E0E0E0BA
:104EA0009CCFCF93DF930097E9F0FC0132971382F8
:104EB0001282A0912405B0912505ED0130E020E09B
:104EC0001097A1F420813181820F931F2091220538
:104ED000309123052817390709F061C0F0932305A5
:104EE000E0932205DF91CF910895EA01CE17DF0705
:104EF000E8F54A815B819E0141155105B1F7E90151
:104F0000FB83EA8349915991C40FD51FEC17FD0724
:104F100061F4808191810296840F951FE901998344
:104F20008883828193819B838A83F0E0E0E01296FC
:104F30008D919C9113970097B9F52D913C91119704
:104F4000CD010296820F931F2091220530912305F7
:104F50002817390739F6309751F510922505109228
:104F60002405B0932305A0932205BCCFD383C2832D
:104F700040815181840F951FC817D90761F44E5F96
:104F80005F4F88819981480F591F518340838A81DF
:104F90009B81938382832115310509F0B0CFF09373
:104FA0002505E09324059ECFFD01DC01C0CF1382CF
:104FB0001282D7CF8F929F92AF92BF92CF92DF9201
:104FC000EF92FF92CF93DF93EC01688179818A8120
:104FD0009B81611571058105910521F464E279EDEC
:104FE0008BE597E02DE133EF41E050E00E941E2970
:104FF00049015A019B01AC01A7EAB1E40E943D2995
:105000006B017C01ACEEB4EFA50194010E944B2929
:10501000C60ED71EE81EF91EF7FE06C081E0C81AAC
:10502000D108E10880E8F80AC882D982EA82FB82C6
:10503000C701B6019F77DF91CF91FF90EF90DF908E
:10504000CF90BF90AF909F908F9008958F929F9236
:10505000AF92BF92CF92DF92EF92FF9260912902BE
:1050600070912A0280912B0290912C02611571059A
:105070008105910521F464E279ED8BE597E02DE15E
:1050800033EF41E050E00E941E2949015A019B0183
:10509000AC01A7EAB1E40E943D296B017C01ACEEB2
:1050A000B4EFA50194010E944B29C60ED71EE81E3D
:1050B000F91EF7FE06C081E0C81AD108E10880E8B1
:1050C000F80AC0922902D0922A02E0922B02F092B2
:1050D0002C02C701B6019F77FF90EF90DF90CF9031
:1050E000BF90AF909F908F90089560932902709326
:1050F0002A0280932B0290932C020895FC018827AA
:105100009927E89421912032E9F3293010F02E30CC
:10511000C8F32B3241F02D3239F4689404C00E9458
:10512000EC28820F911D219120532A30C0F31EF4E8
:10513000909581959F4F08951F93FC01992788278B
:10514000BC01E89411911032E9F3193010F01E30CF
:10515000C8F31B3251F01D3249F4689406C00E9416
:10516000D728610F711D811D911D119110531A30A7
:10517000B0F33EF490958095709561957F4F8F4F79
:105180009F4F1F910895FB01DC0102C005900D9215
:1051900041505040D8F70895BB274A3031F4992345
:1051A00022F4BDE2909581959F4F0C94F528592FDC
:1051B000482F372F262F660F771F881F991F660FDE
:1051C000771F881F991F620F731F841F951F660F1B
:1051D000771F881F991F08957AE0979F902D879FCA
:1051E000802D910D11240895BB27FB015527AA2777
:1051F000880F991FAA1FA41710F0A41B8395505164
:10520000B9F7A05DAA3308F0A95DA193009779F7DB
:10521000B111B1931192CB010C940E29DC01FC0168
:10522000672F71917723E1F7329704C07C916D93DA
:1052300070836291AE17BF07C8F30895052E97FBE0
:105240001EF400940E94352957FD07D00E94502972
:1052500007FC03D04EF40C943529509540953095B9
:1052600021953F4F4F4F5F4F0895909580957095D2
:1052700061957F4F8F4F9F4F08950E947229A59F80
:10528000900DB49F900DA49F800D911D1124089541
:10529000B7FF0C943D290E943D29821B930B089572
:1052A000A1E21A2EAA1BBB1BFD010DC0AA1FBB1F2A
:1052B000EE1FFF1FA217B307E407F50720F0A21B9C
:1052C000B30BE40BF50B661F771F881F991F1A9409
:1052D00069F760957095809590959B01AC01BD0133
:1052E000CF010895A29FB001B39FC001A39F700D8D
:1052F000811D1124911DB29F700D811D1124911DDE
:105300000895EE0FFF1F881F8BBF0790F691E02DC9
:10531000199469279627692778278727782708957A
:105320004F925F926F927F928F929F92AF92BF92B5
:10533000CF92DF92EF92FF920F931F93CF93DF9361
:105340008C01009799F4CB01DF91CF911F910F91C0
:10535000FF90EF90DF90CF90BF90AF909F908F9095
:105360007F906F905F904F900C94B526FC01E60FF4
:10537000F71F9C0122503109E217F30708F4AEC071
:10538000D901CD91DC911197C617D70720F1C5300F
:10539000D10578F0CE0104978617970750F0C61B09
:1053A000D70B2297C193D1936D937C93CF010E9429
:1053B0005127C801DF91CF911F910F91FF90EF907E
:1053C000DF90CF90BF90AF909F908F907F906F9025
:1053D0005F904F9008955B01AC1ABD0A4C018C0E92
:1053E0009D1EA0912405B0912505512C412CF12C36
:1053F000E12C109731F580912205909123058815B5
:10540000990509F05CC04616570608F058C080910F
:10541000230290912402009741F48DB79EB74091EA
:10542000270250912802841B950BE817F90708F012
:1054300055C0F0932305E0932205F9017183608341
:10544000B8CF8D919C91119712966C9012971396EC
:105450007C901397A815B90559F56C0142E0C40E6C
:10546000D11CCA14DB0420F1AC014A195B09DA0132
:105470001296159780F06282738251834083D9011E
:105480006D937C93E114F10471F0D7011396FC93B2
:10549000EE9312978ECF22968C0F9D1FF901918368
:1054A0008083F301EFCFF0932505E093240581CFAE
:1054B0004816590608F42C017D01D3019ACFCB017F
:1054C0000E94B5267C01009749F0AE01B8010E9408
:1054D0007E2AC8010E94512787016BCF10E000E0AF
:1054E00068CFFB01DC0104C08D910190801921F48B
:1054F00041505040C8F7881B990B0895FB01DC010F
:1055000002C001900D9241505040D8F70895DC013F
:1055100001C06D9341505040E0F70895FB01DC015C
:105520008D91019080190110D9F3990B0895FB0119
:10553000DC0101900D920020E1F70895FB01DC01F0
:105540004150504048F001900D920020C9F701C031
:0E5550001D9241505040E0F70895F894FFCFAF
:10555E00424E4443634A4B614B53666E54724564EC
:10556E00666971344F6E586C567A70526C5F7A431E
:10557E000000C00000260580000100000001005E52
:10558E00000000000000008D07FE0C74085B037124
:10559E0003F40EB80AF40FD00BC409C507E713388D
:1055AE000A2B11D50E140804080008FC0700000091
:1055BE00000B047503A2035804D303B103C5030003
:1055CE00000000AE07380DF50CE00CFB0D1E0FC7EA
:1055DE000A12105A14380FFF09DD096C08690867A2
:1055EE0008A3075D08B910F0108E105908000000CE
:1055FE00000D1500000000420875037408471F3B9C
:10560E00080D0A0057495A6E657400696E006F7571
:10561E00740070776D0070750064770061770076A6
:10562E007700636C72004D6172636F00596F752065
:10563E00736169643A20274D6172636F27004920B8
:10564E00736169643A2027506F6C6F2700596F752C
:10565E0020736169643A00626C796E6B2D636C6FB6
:08566E0075642E636F6D0000EE
:00000001FF
