:100000000C945D000C9485000C9485000C94850084
:100010000C9485000C9485000C9485000C9485004C
:100020000C9485000C9485000C9485000C9485003C
:100030000C9485000C9485000C9485000C9485002C
:100040000C946C030C9485000C943A030C941403E8
:100050000C9485000C9485000C9485000C9485000C
:100060000C9485000C9485000000000024002700FB
:100070002A0000000000250028002B0004040404CE
:100080000404040402020202020203030303030342
:10009000010204081020408001020408102001021F
:1000A00004081020000000080002010000030407FB
:1000B0000000000000000000E40411241FBECFEF88
:1000C000D8E0DEBFCDBF11E0A0E0B1E0E6E7FAE0A6
:1000D00002C005900D92A631B107D9F721E0A6E143
:1000E000B1E001C01D92AE3BB207E1F710E0CDE5F3
:1000F000D0E004C02197FE010E943305CC35D10722
:10010000C9F70E94B6030C9439050C940000AF9215
:10011000BF92CF92DF92EF92FF920F931F93CF93F4
:10012000DF936C017B018B01040F151FEB015E0156
:10013000AE18BF08C017D10759F06991D601ED91EB
:10014000FC910190F081E02DC6010995892B79F78A
:10015000C501DF91CF911F910F91FF90EF90DF903C
:10016000CF90BF90AF900895FC01538D448D252F03
:1001700030E0842F90E0821B930B541710F0CF9641
:10018000089501970895FC01918D828D981761F073
:10019000A28DAE0FBF2FB11D5D968C91928D9F5F8A
:1001A0009F73928F90E008958FEF9FEF0895FC0169
:1001B000918D828D981731F0828DE80FF11D858D1C
:1001C00090E008958FEF9FEF0895FC01918D228DAF
:1001D000892F90E0805C9F4F821B91098F73992734
:1001E000089581E291E00E94E50021E0892B09F465
:1001F00020E0822F089580E090E0892B29F00E9472
:10020000F10081110C9400000895FC01A48DA80F49
:10021000B92FB11DA35ABF4F2C91848D90E0019648
:100220008F739927848FA689B7892C93A089B18968
:100230008C91837080648C93938D848D981306C009
:100240000288F389E02D80818F7D80830895EF926D
:10025000FF920F931F93CF93DF93EC0181E0888F80
:100260009B8D8C8D98131AC0E889F989808185FF50
:1002700015C09FB7F894EE89FF896083E889F989F2
:1002800080818370806480839FBF81E090E0DF91F4
:10029000CF911F910F91FF90EF900895F62E0B8D47
:1002A00010E00F5F1F4F0F731127E02E8C8D8E1102
:1002B0000CC00FB607FCFACFE889F989808185FF69
:1002C000F5CFCE010E940501F1CFEB8DEC0FFD2F94
:1002D000F11DE35AFF4FF0829FB7F8940B8FEA8924
:1002E000FB8980818062CFCFCF93DF93EC01888D33
:1002F0008823B9F0AA89BB89E889F9898C9185FDA1
:1003000003C0808186FD0DC00FB607FCF7CF8C912E
:1003100085FFF2CF808185FFEDCFCE010E940501E0
:10032000E9CFDF91CF91089590E0FC01EC55FF4FAC
:100330002491FC01E057FF4F3491FC01E458FF4F3A
:10034000E491EE23C9F0222339F0233001F1A8F41F
:10035000213019F1223029F1F0E0EE0FFF1FEE58A5
:10036000FF4FA591B4918FB7F894EC91611126C01D
:1003700030953E233C938FBF08952730A9F0283055
:10038000C9F0243049F7809180008F7D03C08091AF
:1003900080008F7780938000DFCF84B58F7784BD16
:1003A000DBCF84B58F7DFBCF8091B0008F778093BA
:1003B000B000D2CF8091B0008F7DF9CF3E2BDACF45
:1003C000CF93DF9390E0FC01E057FF4F24918458D6
:1003D0009F4FFC0184918823D1F090E0880F991FF2
:1003E000FC01E859FF4FA591B491FC01EE58FF4F75
:1003F000C591D49161110EC09FB7F8948C91E22FF2
:10040000E0958E238C932881E223E8839FBFDF91C0
:10041000CF9108958FB7F894EC91E22BEC938FBFB6
:10042000F6CF1F93CF93DF93182FEB0161E00E946B
:10043000E001209739F460E0812FDF91CF911F9187
:100440000C949401CF3FD10511F461E0F5CFE12F79
:10045000F0E0EC55FF4FE491E33031F140F4E1304E
:10046000B1F0E230E1F0C038D1057CF7E4CFE730FD
:1004700029F1E83059F1E430B1F7809180008062D1
:1004800080938000D0938B00C0938A0004C084B511
:10049000806884BDC7BDDF91CF911F91089584B559
:1004A000806284BDC8BDF7CF809180008068809352
:1004B0008000D0938900C0938800EDCF8091B00078
:1004C00080688093B000C093B300E5CF8091B00006
:1004D00080628093B000C093B400DDCF3FB7F89442
:1004E00080911B0190911C01A0911D01B0911E01F2
:1004F00026B5A89B05C02F3F19F00196A11DB11D7F
:100500003FBFBA2FA92F982F8827BC01CD01620FBA
:10051000711D811D911D42E0660F771F881F991F75
:100520004A95D1F708958F929F92AF92BF92CF9242
:10053000DF92EF92FF926B017C010E946E024B01F1
:100540005C01C114D104E104F104B9F00E946E020F
:10055000681979098A099B09683E734081059105EC
:1005600080F321E0C21AD108E108F10888EE880E74
:1005700083E0981EA11CB11CE4CFFF90EF90DF90A8
:10058000CF90BF90AF909F908F9008958F929F9241
:10059000AF92BF920F931F93CF93DF93CDB7DEB788
:1005A000A1970FB6F894DEBF0FBECDBF19A242309F
:1005B00008F44AE08E010F5D1F4F842E912CB12C60
:1005C000A12CA50194010E941105E62FB901CA01D1
:1005D000EA3044F5E05DD801EE938D01232B242B06
:1005E000252B79F790E080E0109769F0FD010190EC
:1005F0000020E9F73197AF014A1B5B0BBD0181E297
:1006000091E00E948700A1960FB6F894DEBF0FBE5E
:10061000CDBFDF91CF911F910F91BF90AF909F9071
:100620008F900895E95CD7CF1F920F920FB60F926B
:1006300011242F933F934F935F936F937F938F93E7
:100640009F93AF93BF93EF93FF9381E291E00E945A
:100650000501FF91EF91BF91AF919F918F917F9194
:100660006F915F914F913F912F910F900FBE0F901F
:100670001F9018951F920F920FB60F9211242F936F
:100680008F939F93EF93FF93E0913101F0913201AB
:100690008081E0913701F091380182FD1BC090818B
:1006A00080913A018F5F8F7320913B01821741F057
:1006B000E0913A01F0E0EF5DFE4F958F80933A01B3
:1006C000FF91EF919F918F912F910F900FBE0F90FF
:1006D0001F9018958081F4CF1F920F920FB60F9242
:1006E00011242F933F938F939F93AF93BF93809148
:1006F000170190911801A0911901B0911A01309140
:10070000160123E0230F2D3758F50196A11DB11DC9
:10071000209316018093170190931801A09319015B
:10072000B0931A0180911B0190911C01A0911D01B1
:10073000B0911E010196A11DB11D80931B019093E4
:100740001C01A0931D01B0931E01BF91AF919F9119
:100750008F913F912F910F900FBE0F901F90189582
:1007600026E8230F0296A11DB11DD2CF789484B53F
:10077000826084BD84B5816084BD85B5826085BD9D
:1007800085B5816085BD80916E00816080936E002B
:10079000109281008091810082608093810080911D
:1007A00081008160809381008091800081608093CE
:1007B00080008091B10084608093B1008091B0008E
:1007C00081608093B00080917A00846080937A0089
:1007D00080917A00826080937A0080917A008160B3
:1007E00080937A0080917A00806880937A001092DA
:1007F000C10060E08EE00E94E00161E08FE00E94B5
:10080000E00161E083E10E94E00161E08DE00E948F
:10081000E00161E087E00E94E00161E086E00E9483
:10082000E00161E085E00E94E00161E084E00E9477
:10083000E001E0913101F091320182E08083E091AA
:100840002D01F0912E011082E0912F01F0913001E5
:100850008FEC808310923901E0913501F0913601DF
:1008600086E08083E0913301F091340180818061E2
:100870008083E0913301F09134018081886080832E
:10088000E0913301F0913401808180688083E091B0
:100890003301F091340180818F7D808310E4C0E0CA
:1008A000D0E010937C0080917A00806480937A007D
:1008B00080917A0086FDFCCF90917800809179003C
:1008C0008927982789279093200180931F016C0125
:1008D000092E000CEE08FF0897FF72C06DE281E25E
:1008E00091E00E94270166277727CB016C197D09CB
:1008F0008E099F094AE00E94C60242E050E062E190
:1009000071E081E291E00E948700C0901F01D090C9
:100910002001B6018FE00E941102B60183E10E941E
:1009200011020D2C000CEE08FF08C701B6010E9451
:10093000930268EE73E080E090E00E94930261E031
:100940008DE00E94940161E087E00E94940160E0E4
:1009500086E00E94940161E085E00E94940160E0DD
:1009600084E00E949401C701B6010E94930268EEE0
:1009700073E080E090E00E94930260E08DE00E94CE
:10098000940161E08DE00E94940161E086E00E94A4
:10099000940160E087E00E94940161E084E00E949D
:1009A000940160E085E00E949401209709F479CFDA
:1009B0000E94F100882309F474CF0E94000071CFD7
:1009C0004AE0C701B60197CFE1E2F1E0138212825B
:1009D00088EE93E0A0E0B0E084839583A683B7839C
:1009E00084E091E09183808385EC90E09587848713
:1009F00084EC90E09787868780EC90E0918B808BE9
:100A000081EC90E0938B828B82EC90E0958B848BD1
:100A100086EC90E0978B868B118E128E138E148E3F
:100A20000895A1E21A2EAA1BBB1BFD010DC0AA1F2F
:100A3000BB1FEE1FFF1FA217B307E407F50720F047
:100A4000A21BB30BE40BF50B661F771F881F991FC2
:100A50001A9469F760957095809590959B01AC010B
:100A6000BD01CF010895EE0FFF1F0590F491E02D19
:060A70000994F894FFCF89
:100A76000000000027018700B4007401E500C300F0
:060A8600D7000D0A00007C
:00000001FF
