:020000040000FA
:100000000C9462000C948A000C948A000C948A0070
:100010000C948A000C948A000C948A000C948A0038
:100020000C948A000C948A000C948A000C948A0028
:100030000C948A000C948A000C948A000C948A0018
:100040000C949A020C948A000C948A000C948A00F6
:100050000C948A000C948A000C948A000C948A00F8
:100060000C948A000C948A000000000024002700F1
:100070002A0000000000250028002B0000000000DE
:1000800023002600290004040404040404040202DA
:100090000202020203030303030301020408102007
:1000A0004080010204081020010204081020000012
:1000B0000008000201000003040700000000000027
:1000C0000000C20311241FBECFEFD8E0DEBFCDBFBA
:1000D00011E0A0E0B1E0E4E1F8E002C005900D928B
:1000E000A032B107D9F721E0A0E2B1E001C01D9232
:1000F000A134B207E1F710E0C2E6D0E004C02197D6
:10010000FE010E940204C136D107C9F70E94E40231
:100110000C9408040C940000AF92BF92CF92DF922F
:10012000EF92FF920F931F93CF93DF936C017B01AC
:100130008B01040F151FEB015E01AE18BF08C0173D
:10014000D10759F06991D601ED91FC910190F081B0
:10015000E02DC6010995892B79F7C501DF91CF9173
:100160001F910F91FF90EF90DF90CF90BF90AF90D5
:100170000895833081F028F4813099F08230A9F01D
:1001800008958730A9F08830C9F08430B1F48091A7
:1001900080008F7D03C0809180008F7780938000E6
:1001A000089584B58F7784BD089584B58F7DFBCF86
:1001B0008091B0008F778093B00008958091B00057
:1001C0008F7DF9CF1F93CF93DF93282F30E0F90174
:1001D000E255FF4F8491F901E656FF4FD491F901A2
:1001E000EA57FF4FC491CC23A9F0162F81110E942A
:1001F000B900EC2FF0E0EE0FFF1FEE58FF4FA59176
:10020000B4918FB7F894EC91111108C0D095DE230A
:10021000DC938FBFDF91CF911F910895DE2BF8CF34
:10022000CF93DF9390E0FC01E656FF4F24918A576D
:100230009F4FFC0184918823D1F090E0880F991F93
:10024000FC01E859FF4FA591B491FC01EE58FF4F16
:10025000C591D49161110EC09FB7F8948C91E22F93
:10026000E0958E238C932881E223E8839FBFDF9162
:10027000CF9108958FB7F894EC91E22BEC938FBF58
:10028000F6CF089590E080E00895FC0101900020F1
:10029000E9F73197AF01481B590BBC0189E291E0A6
:1002A0000C948C00CF93DF93EC0160E08E810E9470
:1002B000E20061E08E810E94E20060E08E810E9497
:1002C000E2008BE891E00197F1F7DF91CF9108957B
:1002D000CF92DF92EF92FF920F931F93CF93DF9312
:1002E0006C017C0187E0E80EF11CD0E0C0E0062F35
:1002F00010E0B8010C2E02C0759567950A94E2F7DC
:100300006170F70181917F010E94E2002196C43063
:10031000D10579F7C601DF91CF911F910F91FF9021
:10032000EF90DF90CF900C945201CF92DF92EF923A
:10033000FF920F931F93CF93DF93EC01F62E642F60
:100340008C810E94E2008D818F3F19F060E00E9455
:10035000E2000F2D10E08F8584FF25C06E0187E03D
:10036000C80ED11CF12CE12CB8010E2C02C07595E1
:1003700067950A94E2F76170F60181916F010E941E
:10038000E200FFEFEF1AFF0A88E0E816F10461F7D8
:10039000CE01DF91CF911F910F91FF90EF90DF90F1
:1003A000CF900C945201B80184E0759567958A95B9
:1003B000E1F7CE010E9468016F2DCE01DF91CF9150
:1003C0001F910F91FF90EF90DF90CF900C946801F8
:1003D00040E0682F89E291E00C949501CF93DF9380
:1003E000823029F49091380198609093380180937D
:1003F0003C0110923D0180E480933E0180E18093B6
:100400003F0180E58093400161E080912D010E94D1
:10041000100180912E018F3F19F061E00E941001C0
:1004200061E080912F010E941001C9E2D1E09E019C
:10043000295231408091380184FD0BC084E090E066
:1004400021962817390744F461E08E810E9410013B
:10045000EECF88E090E0F4CF8BE39DE00197F1F7D9
:1004600060E080912D010E94E20060E080912F0108
:100470000E94E20080912E018F3F19F060E00E94FF
:10048000E2008091380184FD39C063E089E291E0A7
:100490000E946801CBE4D6E4CE010197F1F763E056
:1004A00089E291E00E9468012197F1F763E089E217
:1004B00091E00E94680183E592E00197F1F762E024
:1004C00089E291E00E9468018091380180620E9477
:1004D000E80184E0809339018CE00E94E80181E02A
:1004E0000E94E8018BE39FE10197F1F782E080939E
:1004F0003A0186E0DF91CF910C94E80180620E947E
:10050000E8018BE496E40197F1F78091380180626D
:100510000E94E80183E592E00197F1F780913801AC
:1005200080620E94E801D0CF41E00E94950181E005
:1005300090E008951F920F920FB60F9211242F93FF
:100540003F938F939F93AF93BF9380912501909199
:100550002601A0912701B09128013091240123E0C8
:10056000230F2D3758F50196A11DB11D20932401AD
:100570008093250190932601A0932701B093280131
:100580008091200190912101A0912201B09123013D
:100590000196A11DB11D8093200190932101A0938C
:1005A0002201B0932301BF91AF919F918F913F9111
:1005B0002F910F900FBE0F901F90189526E8230FD4
:1005C0000296A11DB11DD2CFCF93DF93CDB7DEB779
:1005D000A1970FB6F894DEBF0FBECDBF789484B557
:1005E000826084BD84B5816084BD85B5826085BD2F
:1005F00085B5816085BD80916E00816080936E00BD
:1006000010928100809181008260809381008091AE
:10061000810081608093810080918000816080935F
:1006200080008091B10084608093B1008091B0001F
:1006300081608093B00080917A00846080937A001A
:1006400080917A00826080937A0080917A00816044
:1006500080937A0080917A00806880937A0010926B
:10066000C10082E00E94EE018CE091E00E94450111
:1006700060E081E00E9410019BE9292E90E0392E74
:1006800027E8822E20E0922E38EEC32E33E0D32EC0
:10069000E12CF12C4AE0442E512C612C712C50E0BD
:1006A000A52E50E0B52EEFEAF0E08491F10104911F
:1006B000F4011491112309F460C081110E94B90062
:1006C000E12FF0E0EE0FFF1FE458FF4FA591B4912A
:1006D0008C91082391E080E009F490E0092F182F15
:1006E000E0913C01E23008F04BC0E150F0E0E75D02
:1006F000FE4F848980680E94E80188E191E0013022
:10070000110511F08CE191E00E9445012FB7F8949A
:100710006091250170912601809127019091280117
:100720002FBFA70196010E94E00319A28E010F5D61
:100730001F4FCA01B901A30192010E94E003605D4D
:10074000F80162938F01211531054105510589F7A3
:10075000309761F001900020E9F73197AF01401B1D
:10076000510BB80189E291E00E948C00A114B10400
:1007700009F499CF0E94000096CF10E000E0B0CFBE
:10078000E1E0B4CFE9E2F1E01382128284E091E08B
:10079000918380838DE084838FEF85838CE08683D3
:1007A0008BE087838AE0808789E0818788E0828781
:1007B0001386148615861686178681E00C94EE0142
:1007C000A1E21A2EAA1BBB1BFD010DC0AA1FBB1F55
:1007D000EE1FFF1FA217B307E407F50720F0A21BC7
:1007E000B30BE40BF50B661F771F881F991F1A9434
:1007F00069F760957095809590959B01AC01BD015E
:10080000CF010895EE0FFF1F0590F491E02D09949C
:10081000F894FFCF0000000094028C0042014101D7
:100820005049522053454E534F5220007965730072
:040830006E6F0000E7
:107E0000112484B714BE81FFF0D085E080938100F7
:107E100082E08093C00088E18093C10086E0809377
:107E2000C20080E18093C4008EE0C9D0259A86E02C
:107E300020E33CEF91E0309385002093840096BBD3
:107E4000B09BFECF1D9AA8958150A9F7CC24DD24C4
:107E500088248394B5E0AB2EA1E19A2EF3E0BF2EE7
:107E6000A2D0813461F49FD0082FAFD0023811F036
:107E7000013811F484E001C083E08DD089C08234E0
:107E800011F484E103C0853419F485E0A6D080C0E4
:107E9000853579F488D0E82EFF2485D0082F10E0AE
:107EA000102F00270E291F29000F111F8ED06801E7
:107EB0006FC0863521F484E090D080E0DECF843638
:107EC00009F040C070D06FD0082F6DD080E0C81688
:107ED00080E7D80618F4F601B7BEE895C0E0D1E017
:107EE00062D089930C17E1F7F0E0CF16F0E7DF06D8
:107EF00018F0F601B7BEE89568D007B600FCFDCFD4
:107F0000A601A0E0B1E02C9130E011968C91119780
:107F100090E0982F8827822B932B1296FA010C0160
:107F200087BEE89511244E5F5F4FF1E0A038BF0790
:107F300051F7F601A7BEE89507B600FCFDCF97BE46
:107F4000E89526C08437B1F42ED02DD0F82E2BD052
:107F50003CD0F601EF2C8F010F5F1F4F84911BD097
:107F6000EA94F801C1F70894C11CD11CFA94CF0C13
:107F7000D11C0EC0853739F428D08EE10CD085E9AC
:107F80000AD08FE07ACF813511F488E018D01DD067
:107F900080E101D065CF982F8091C00085FFFCCF94
:107FA0009093C60008958091C00087FFFCCF809118
:107FB000C00084FD01C0A8958091C6000895E0E648
:107FC000F0E098E1908380830895EDDF803219F02E
:107FD00088E0F5DFFFCF84E1DECF1F93182FE3DFCA
:107FE0001150E9F7F2DF1F91089580E0E8DFEE27F6
:047FF000FF270994CA
:027FFE00040479
:00000001FF
